{"contracts/TruthPost.sol":{"TruthPost":{"abi":[{"inputs":[{"internalType":"contract IArbitrator","name":"_arbitrator","type":"address"},{"internalType":"bytes","name":"_arbitratorExtraData","type":"bytes"},{"internalType":"string","name":"_metaevidenceIpfsUri","type":"string"},{"internalType":"uint256","name":"_articleWithdrawalTimelock","type":"uint256"},{"internalType":"uint256","name":"_winnerStakeMultiplier","type":"uint256"},{"internalType":"uint256","name":"_loserStakeMultiplier","type":"uint256"},{"internalType":"address payable","name":"_treasury","type":"address"}],"stateMutability":"nonpayable","type":"constructor"},{"anonymous":false,"inputs":[{"indexed":true,"internalType":"address","name":"_newAdmin","type":"address"}],"name":"AdminUpdate","type":"event"},{"anonymous":false,"inputs":[{"indexed":true,"internalType":"uint256","name":"_newWithdrawalTimelock","type":"uint256"}],"name":"ArticleWithdrawalTimelockUpdate","type":"event"},{"anonymous":false,"inputs":[{"indexed":false,"internalType":"uint256","name":"articleAddress","type":"uint256"}],"name":"ArticleWithdrawn","type":"event"},{"anonymous":false,"inputs":[{"indexed":false,"internalType":"uint256","name":"articleAddress","type":"uint256"},{"indexed":false,"internalType":"uint256","name":"newTotal","type":"uint256"}],"name":"BalanceUpdate","type":"event"},{"anonymous":false,"inputs":[{"indexed":true,"internalType":"uint256","name":"articleAddress","type":"uint256"},{"indexed":false,"internalType":"address","name":"challanger","type":"address"},{"indexed":false,"internalType":"uint256","name":"disputeID","type":"uint256"}],"name":"Challenge","type":"event"},{"anonymous":false,"inputs":[{"indexed":true,"internalType":"uint256","name":"_newTaxRate","type":"uint256"}],"name":"ChallengeTaxRateUpdate","type":"event"},{"anonymous":false,"inputs":[{"indexed":true,"internalType":"uint256","name":"disputeId","type":"uint256"},{"indexed":true,"internalType":"uint256","name":"round","type":"uint256"},{"indexed":false,"internalType":"enum ITruthPost.RulingOptions","name":"ruling","type":"uint8"},{"indexed":true,"internalType":"address","name":"contributor","type":"address"},{"indexed":false,"internalType":"uint256","name":"amount","type":"uint256"}],"name":"Contribution","type":"event"},{"anonymous":false,"inputs":[{"indexed":false,"internalType":"uint256","name":"articleAddress","type":"uint256"}],"name":"Debunked","type":"event"},{"anonymous":false,"inputs":[{"indexed":true,"internalType":"contract IArbitrator","name":"_arbitrator","type":"address"},{"indexed":true,"internalType":"uint256","name":"_disputeID","type":"uint256"},{"indexed":false,"internalType":"uint256","name":"_metaEvidenceID","type":"uint256"},{"indexed":false,"internalType":"uint256","name":"_evidenceGroupID","type":"uint256"}],"name":"Dispute","type":"event"},{"anonymous":false,"inputs":[{"indexed":true,"internalType":"contract IArbitrator","name":"_arbitrator","type":"address"},{"indexed":true,"internalType":"uint256","name":"_evidenceGroupID","type":"uint256"},{"indexed":true,"internalType":"address","name":"_party","type":"address"},{"indexed":false,"internalType":"string","name":"_evidence","type":"string"}],"name":"Evidence","type":"event"},{"anonymous":false,"inputs":[{"indexed":true,"internalType":"uint256","name":"_newLoserAppealPeriodMultiplier","type":"uint256"}],"name":"LoserAppealPeriodMultiplierUpdate","type":"event"},{"anonymous":false,"inputs":[{"indexed":true,"internalType":"uint256","name":"_newLoserStakeMultiplier","type":"uint256"}],"name":"LoserStakeMultiplierUpdate","type":"event"},{"anonymous":false,"inputs":[{"indexed":true,"internalType":"uint256","name":"_metaEvidenceID","type":"uint256"},{"indexed":false,"internalType":"string","name":"_evidence","type":"string"}],"name":"MetaEvidence","type":"event"},{"anonymous":false,"inputs":[{"indexed":false,"internalType":"string","name":"articleID","type":"string"},{"indexed":false,"internalType":"uint8","name":"category","type":"uint8"},{"indexed":false,"internalType":"uint256","name":"articleAddress","type":"uint256"}],"name":"NewArticle","type":"event"},{"anonymous":false,"inputs":[{"indexed":true,"internalType":"address","name":"_newOwner","type":"address"}],"name":"OwnershipTransfer","type":"event"},{"anonymous":false,"inputs":[{"indexed":true,"internalType":"contract IArbitrator","name":"_arbitrator","type":"address"},{"indexed":true,"internalType":"uint256","name":"_disputeID","type":"uint256"},{"indexed":false,"internalType":"uint256","name":"_ruling","type":"uint256"}],"name":"Ruling","type":"event"},{"anonymous":false,"inputs":[{"indexed":true,"internalType":"uint256","name":"disputeId","type":"uint256"},{"indexed":true,"internalType":"uint256","name":"round","type":"uint256"},{"indexed":true,"internalType":"enum ITruthPost.RulingOptions","name":"ruling","type":"uint8"}],"name":"RulingFunded","type":"event"},{"anonymous":false,"inputs":[{"indexed":false,"internalType":"uint256","name":"articleAddress","type":"uint256"}],"name":"TimelockStarted","type":"event"},{"anonymous":false,"inputs":[{"indexed":true,"internalType":"uint256","name":"_byAmount","type":"uint256"}],"name":"TreasuryBalanceUpdate","type":"event"},{"anonymous":false,"inputs":[{"indexed":true,"internalType":"address","name":"_newTreasury","type":"address"}],"name":"TreasuryUpdate","type":"event"},{"anonymous":false,"inputs":[{"indexed":true,"internalType":"uint256","name":"_newWinnerStakeMultiplier","type":"uint256"}],"name":"WinnerStakeMultiplierUpdate","type":"event"},{"anonymous":false,"inputs":[{"indexed":true,"internalType":"uint256","name":"disputeId","type":"uint256"},{"indexed":true,"internalType":"uint256","name":"round","type":"uint256"},{"indexed":false,"internalType":"enum ITruthPost.RulingOptions","name":"ruling","type":"uint8"},{"indexed":true,"internalType":"address","name":"contributor","type":"address"},{"indexed":false,"internalType":"uint256","name":"reward","type":"uint256"}],"name":"Withdrawal","type":"event"},{"inputs":[],"name":"ARBITRATOR","outputs":[{"internalType":"contract IArbitrator","name":"","type":"address"}],"stateMutability":"view","type":"function"},{"inputs":[],"name":"ARTICLE_WITHDRAWAL_TIMELOCK","outputs":[{"internalType":"uint256","name":"","type":"uint256"}],"stateMutability":"view","type":"function"},{"inputs":[],"name":"LOSER_APPEAL_PERIOD_MULTIPLIER","outputs":[{"internalType":"uint256","name":"","type":"uint256"}],"stateMutability":"view","type":"function"},{"inputs":[],"name":"LOSER_STAKE_MULTIPLIER","outputs":[{"internalType":"uint256","name":"","type":"uint256"}],"stateMutability":"view","type":"function"},{"inputs":[],"name":"MULTIPLIER_DENOMINATOR","outputs":[{"internalType":"uint256","name":"","type":"uint256"}],"stateMutability":"view","type":"function"},{"inputs":[],"name":"NUMBER_OF_LEAST_SIGNIFICANT_BITS_TO_IGNORE","outputs":[{"internalType":"uint256","name":"","type":"uint256"}],"stateMutability":"view","type":"function"},{"inputs":[],"name":"NUMBER_OF_RULING_OPTIONS","outputs":[{"internalType":"uint256","name":"","type":"uint256"}],"stateMutability":"view","type":"function"},{"inputs":[],"name":"TREASURY","outputs":[{"internalType":"address payable","name":"","type":"address"}],"stateMutability":"view","type":"function"},{"inputs":[],"name":"VERSION","outputs":[{"internalType":"string","name":"","type":"string"}],"stateMutability":"view","type":"function"},{"inputs":[],"name":"WINNER_STAKE_MULTIPLIER","outputs":[{"internalType":"uint256","name":"","type":"uint256"}],"stateMutability":"view","type":"function"},{"inputs":[],"name":"admin","outputs":[{"internalType":"address payable","name":"","type":"address"}],"stateMutability":"view","type":"function"},{"inputs":[{"internalType":"uint256","name":"_disputeID","type":"uint256"}],"name":"appealFee","outputs":[{"internalType":"uint256","name":"arbitrationFee","type":"uint256"}],"stateMutability":"view","type":"function"},{"inputs":[{"internalType":"uint72","name":"","type":"uint72"}],"name":"articleStorage","outputs":[{"internalType":"address payable","name":"owner","type":"address"},{"internalType":"uint32","name":"withdrawalPermittedAt","type":"uint32"},{"internalType":"uint56","name":"bountyAmount","type":"uint56"},{"internalType":"uint8","name":"category","type":"uint8"}],"stateMutability":"view","type":"function"},{"inputs":[],"name":"categoryCounter","outputs":[{"internalType":"uint8","name":"","type":"uint8"}],"stateMutability":"view","type":"function"},{"inputs":[{"internalType":"uint256","name":"","type":"uint256"}],"name":"categoryToArbitratorExtraData","outputs":[{"internalType":"bytes","name":"","type":"bytes"}],"stateMutability":"view","type":"function"},{"inputs":[{"internalType":"uint72","name":"_articleStorageAddress","type":"uint72"}],"name":"challenge","outputs":[],"stateMutability":"payable","type":"function"},{"inputs":[{"internalType":"uint72","name":"_articleStorageAddress","type":"uint72"}],"name":"challengeFee","outputs":[{"internalType":"uint256","name":"","type":"uint256"}],"stateMutability":"view","type":"function"},{"inputs":[],"name":"challengeTaxRate","outputs":[{"internalType":"uint256","name":"","type":"uint256"}],"stateMutability":"view","type":"function"},{"inputs":[{"internalType":"address payable","name":"_newAdmin","type":"address"}],"name":"changeAdmin","outputs":[],"stateMutability":"nonpayable","type":"function"},{"inputs":[{"internalType":"uint256","name":"_newArticleWithdrawalTimelock","type":"uint256"}],"name":"changeArticleWithdrawalTimelock","outputs":[],"stateMutability":"nonpayable","type":"function"},{"inputs":[{"internalType":"uint256","name":"_newLoserAppealPeriodMultiplier","type":"uint256"}],"name":"changeLoserAppealPeriodMultiplier","outputs":[],"stateMutability":"nonpayable","type":"function"},{"inputs":[{"internalType":"uint256","name":"_newLoserStakeMultiplier","type":"uint256"}],"name":"changeLoserStakeMultiplier","outputs":[],"stateMutability":"nonpayable","type":"function"},{"inputs":[{"internalType":"address payable","name":"_newTreasury","type":"address"}],"name":"changeTreasury","outputs":[],"stateMutability":"nonpayable","type":"function"},{"inputs":[{"internalType":"uint256","name":"_newWinnerStakeMultiplier","type":"uint256"}],"name":"changeWinnerStakeMultiplier","outputs":[],"stateMutability":"nonpayable","type":"function"},{"inputs":[{"internalType":"uint256","name":"","type":"uint256"}],"name":"disputes","outputs":[{"internalType":"address payable","name":"challenger","type":"address"},{"internalType":"enum ITruthPost.RulingOptions","name":"outcome","type":"uint8"},{"internalType":"uint8","name":"articleCategory","type":"uint8"},{"internalType":"bool","name":"resolved","type":"bool"},{"internalType":"uint72","name":"articleStorageAddress","type":"uint72"}],"stateMutability":"view","type":"function"},{"inputs":[{"internalType":"uint72","name":"_searchPointer","type":"uint72"}],"name":"findVacantStorageSlot","outputs":[{"internalType":"uint256","name":"vacantSlotIndex","type":"uint256"}],"stateMutability":"view","type":"function"},{"inputs":[{"internalType":"uint256","name":"_disputeID","type":"uint256"},{"internalType":"enum ITruthPost.RulingOptions","name":"_supportedRuling","type":"uint8"}],"name":"fundAppeal","outputs":[{"internalType":"bool","name":"fullyFunded","type":"bool"}],"stateMutability":"payable","type":"function"},{"inputs":[{"internalType":"uint256","name":"_disputeID","type":"uint256"},{"internalType":"enum ITruthPost.RulingOptions","name":"_ruling","type":"uint8"}],"name":"getAmountRemainsToBeRaised","outputs":[{"internalType":"uint256","name":"","type":"uint256"}],"stateMutability":"view","type":"function"},{"inputs":[{"internalType":"uint256","name":"_disputeID","type":"uint256"},{"internalType":"enum ITruthPost.RulingOptions","name":"_ruling","type":"uint8"}],"name":"getAppealPeriod","outputs":[{"internalType":"uint256","name":"","type":"uint256"},{"internalType":"uint256","name":"","type":"uint256"}],"stateMutability":"view","type":"function"},{"inputs":[{"internalType":"uint256","name":"_disputeID","type":"uint256"}],"name":"getLastRoundWinner","outputs":[{"internalType":"uint256","name":"","type":"uint256"}],"stateMutability":"view","type":"function"},{"inputs":[{"internalType":"enum ITruthPost.RulingOptions","name":"_ruling","type":"uint8"},{"internalType":"enum ITruthPost.RulingOptions","name":"_lastRoundWinner","type":"uint8"}],"name":"getReturnOfInvestmentRatio","outputs":[{"internalType":"uint256","name":"","type":"uint256"}],"stateMutability":"view","type":"function"},{"inputs":[{"internalType":"uint256","name":"_disputeID","type":"uint256"},{"internalType":"uint256","name":"_round","type":"uint256"}],"name":"getRoundInfo","outputs":[{"internalType":"bool[3]","name":"hasPaid","type":"bool[3]"},{"internalType":"uint256[3]","name":"totalPerRuling","type":"uint256[3]"},{"internalType":"uint256","name":"totalClaimableAfterExpenses","type":"uint256"}],"stateMutability":"view","type":"function"},{"inputs":[{"internalType":"uint256","name":"_disputeID","type":"uint256"},{"internalType":"address payable","name":"_contributor","type":"address"}],"name":"getTotalWithdrawableAmount","outputs":[{"internalType":"uint256","name":"sum","type":"uint256"},{"internalType":"uint256[][]","name":"amounts","type":"uint256[][]"}],"stateMutability":"view","type":"function"},{"inputs":[{"internalType":"uint72","name":"_articleStorageAddress","type":"uint72"}],"name":"increaseBounty","outputs":[],"stateMutability":"payable","type":"function"},{"inputs":[{"internalType":"string","name":"_articleID","type":"string"},{"internalType":"uint8","name":"_category","type":"uint8"},{"internalType":"uint72","name":"_searchPointer","type":"uint72"}],"name":"initializeArticle","outputs":[],"stateMutability":"payable","type":"function"},{"inputs":[{"internalType":"uint72","name":"_articleStorageAddress","type":"uint72"}],"name":"initiateWithdrawal","outputs":[],"stateMutability":"nonpayable","type":"function"},{"inputs":[{"internalType":"string","name":"_metaevidenceIpfsUri","type":"string"},{"internalType":"bytes","name":"_arbitratorExtraData","type":"bytes"}],"name":"newCategory","outputs":[],"stateMutability":"nonpayable","type":"function"},{"inputs":[{"internalType":"uint256","name":"_disputeID","type":"uint256"},{"internalType":"uint256","name":"_ruling","type":"uint256"}],"name":"rule","outputs":[],"stateMutability":"nonpayable","type":"function"},{"inputs":[{"internalType":"uint256","name":"_disputeID","type":"uint256"},{"internalType":"string","name":"_evidenceURI","type":"string"}],"name":"submitEvidence","outputs":[],"stateMutability":"nonpayable","type":"function"},{"inputs":[],"name":"switchPublishingLock","outputs":[],"stateMutability":"nonpayable","type":"function"},{"inputs":[],"name":"transferBalanceToTreasury","outputs":[],"stateMutability":"nonpayable","type":"function"},{"inputs":[{"internalType":"uint72","name":"_articleStorageAddress","type":"uint72"},{"internalType":"address payable","name":"_newOwner","type":"address"}],"name":"transferOwnership","outputs":[],"stateMutability":"nonpayable","type":"function"},{"inputs":[],"name":"treasuryBalance","outputs":[{"internalType":"uint256","name":"","type":"uint256"}],"stateMutability":"view","type":"function"},{"inputs":[{"internalType":"uint256","name":"_newChallengeTaxRate","type":"uint256"}],"name":"updateChallengeTaxRate","outputs":[],"stateMutability":"nonpayable","type":"function"},{"inputs":[{"internalType":"uint72","name":"_articleStorageAddress","type":"uint72"}],"name":"withdraw","outputs":[],"stateMutability":"nonpayable","type":"function"},{"inputs":[{"internalType":"uint256","name":"_disputeID","type":"uint256"},{"internalType":"address payable","name":"_contributor","type":"address"},{"internalType":"uint256","name":"_roundNumber","type":"uint256"},{"internalType":"enum ITruthPost.RulingOptions","name":"_ruling","type":"uint8"}],"name":"withdrawFeesAndRewards","outputs":[{"internalType":"uint256","name":"amount","type":"uint256"}],"stateMutability":"nonpayable","type":"function"},{"inputs":[{"internalType":"uint256","name":"_disputeID","type":"uint256"},{"internalType":"address payable","name":"_contributor","type":"address"},{"internalType":"enum ITruthPost.RulingOptions","name":"_ruling","type":"uint8"}],"name":"withdrawFeesAndRewardsForAllRounds","outputs":[],"stateMutability":"nonpayable","type":"function"},{"inputs":[{"internalType":"uint256","name":"_disputeID","type":"uint256"},{"internalType":"address payable","name":"_contributor","type":"address"}],"name":"withdrawFeesAndRewardsForAllRoundsAndAllRulings","outputs":[],"stateMutability":"nonpayable","type":"function"},{"inputs":[{"internalType":"uint256","name":"_disputeID","type":"uint256"},{"internalType":"address payable","name":"_contributor","type":"address"},{"internalType":"uint256[][]","name":"positions","type":"uint256[][]"}],"name":"withdrawFeesAndRewardsForGivenPositions","outputs":[],"stateMutability":"nonpayable","type":"function"}],"devdoc":{"author":"https://github.com/proveuswrong<0xferit, gratestas>","custom:approvals":"0xferit, gratestas","details":"You should target ITruthPost interface contract for building on top. Otherwise you risk incompatibility across versions.         Articles are not addressed with their identifiers. That enables us to reuse same storage address for another article later.///         Arbitrator is fixed, but subcourts, jury size and metaevidence are not.         We prevent articles to get withdrawn immediately. This is to prevent submitter to escape punishment in case someone discovers an argument to debunk the article.         Bounty amounts are compressed with a lossy compression method to save on storage cost.","events":{"Dispute(address,uint256,uint256,uint256)":{"details":"To be emitted when a dispute is created to link the correct meta-evidence to the disputeID.","params":{"_arbitrator":"The arbitrator of the contract.","_disputeID":"ID of the dispute in the Arbitrator contract.","_evidenceGroupID":"Unique identifier of the evidence group that is linked to this dispute.","_metaEvidenceID":"Unique identifier of meta-evidence."}},"Evidence(address,uint256,address,string)":{"details":"To be raised when evidence is submitted. Should point to the resource (evidences are not to be stored on chain due to gas considerations).","params":{"_arbitrator":"The arbitrator of the contract.","_evidence":"IPFS path to evidence, example: '/ipfs/Qmarwkf7C9RuzDEJNnarT3WZ7kem5bk8DZAzx78acJjMFH/evidence.json'","_evidenceGroupID":"Unique identifier of the evidence group the evidence belongs to.","_party":"The address of the party submiting the evidence. Note that 0x0 refers to evidence not submitted by any party."}},"MetaEvidence(uint256,string)":{"details":"To be emitted when meta-evidence is submitted.","params":{"_evidence":"IPFS path to metaevidence, example: '/ipfs/Qmarwkf7C9RuzDEJNnarT3WZ7kem5bk8DZAzx78acJjMFH/metaevidence.json'","_metaEvidenceID":"Unique identifier of meta-evidence."}},"Ruling(address,uint256,uint256)":{"details":"To be raised when a ruling is given.","params":{"_arbitrator":"The arbitrator giving the ruling.","_disputeID":"ID of the dispute in the Arbitrator contract.","_ruling":"The ruling which was given."}}},"kind":"dev","methods":{"appealFee(uint256)":{"details":"Returns the total amount needs to be paid to appeal a dispute, including fees and stake deposit.","params":{"_disputeID":"ID of the dispute as in arbitrator."}},"challenge(uint72)":{"details":"Challenges the article at the given storage address. Emits Challenge.","params":{"_articleStorageAddress":"The address of the article in the storage."}},"challengeFee(uint72)":{"details":"Returns the total amount needs to be paid to challenge an article, including taxes if any.","params":{"_articleStorageAddress":"The address of article in the storage."}},"changeAdmin(address)":{"details":"Only the current administrator can call this function. Emits AdminUpdate.","params":{"_newAdmin":"The address of the new administrator."}},"changeArticleWithdrawalTimelock(uint256)":{"details":"Sets the timelock before an author can initiate the withdrawal of an article to a new value.      Emits ArticleWithdrawalTimelockUpdate.","params":{"_newArticleWithdrawalTimelock":"The new value of ARTICLE_WITHDRAWAL_TIMELOCK."}},"changeLoserAppealPeriodMultiplier(uint256)":{"details":"Sets the multiplier of the appeal window for the loser to a new value. Emits LoserAppealPeriodMultiplierUpdate.","params":{"_newLoserAppealPeriodMultiplier":"The new value of LOSER_APPEAL_PERIOD_MULTIPLIER."}},"changeLoserStakeMultiplier(uint256)":{"details":"Sets the multiplier of the arbitration cost that the loser has to pay as fee stake to a new value.      Emits LoserStakeMultiplierUpdate.","params":{"_newLoserStakeMultiplier":"The new value of LOSER_STAKE_MULTIPLIER."}},"changeTreasury(address)":{"details":"Only the current administrator can call this function. Emits TreasuryUpdate.","params":{"_newTreasury":"The address of the new treasury."}},"changeWinnerStakeMultiplier(uint256)":{"details":"Sets the multiplier of the arbitration cost that the winner has to pay as fee stake to a new value.      Emits WinnerStakeMultiplierUpdate.","params":{"_newWinnerStakeMultiplier":"The new value of WINNER_STAKE_MULTIPLIER."}},"findVacantStorageSlot(uint72)":{"details":"Helper function to find a vacant slot for article. Use this function before calling initialize to minimize your gas cost.","params":{"_searchPointer":"Starting point of the search. If you do not have a guess, just pass 0."}},"fundAppeal(uint256,uint8)":{"details":"Lets user to contribute funding of an appeal round. Emits Contribution. If fully funded, emits RulingFunded.","params":{"_disputeID":"The dispute ID as in arbitrator.","_ruling":"The ruling option to which the caller wants to contribute."},"returns":{"fullyFunded":"True if the ruling option got fully funded as a result of this contribution."}},"getAmountRemainsToBeRaised(uint256,uint8)":{"params":{"_disputeID":"The dispute ID as in arbitrator.","_ruling":"The ruling option to query."},"returns":{"_0":"Amount needs to be raised"}},"getAppealPeriod(uint256,uint8)":{"params":{"_disputeID":"The dispute ID as in arbitrator.","_ruling":"The ruling option to query."},"returns":{"_0":"Start","_1":"End"}},"getLastRoundWinner(uint256)":{"params":{"_disputeID":"The dispute ID as in arbitrator."},"returns":{"_0":"Winning ruling option."}},"getReturnOfInvestmentRatio(uint8,uint8)":{"details":"Purely depends on whether given ruling option is winner and stake multipliers.","params":{"_lastRoundWinner":"Winner of the last round.","_ruling":"The ruling option to query."},"returns":{"_0":"Return of investment ratio, denominated by MULTIPLIER_DENOMINATOR."}},"getRoundInfo(uint256,uint256)":{"params":{"_disputeID":"The dispute ID as in arbitrator.","_round":"Round ID."},"returns":{"hasPaid":"Whether given ruling option was fully funded.","totalClaimableAfterExpenses":"Total amount will be distributed back to winners, after deducting expenses.","totalPerRuling":"The total raised per ruling option."}},"getTotalWithdrawableAmount(uint256,address)":{"details":"Returns the sum of withdrawable amount and 2D array of positions[round][ruling].","params":{"_contributor":"Beneficiary of withdraw operation.","_disputeID":"The dispute ID as in arbitrator."},"returns":{"sum":"The total amount available to withdraw."}},"increaseBounty(uint72)":{"details":"Lets author to increase a bounty of a live article. Emits BalanceUpdate.","params":{"_articleStorageAddress":"The address of the article in the storage."}},"initializeArticle(string,uint8,uint72)":{"details":"Do not confuse articleID with articleAddress. Emits NewArticle.","params":{"_articleID":"Unique identifier of an article in IPFS content identifier format.","_category":"The category code of this new article.","_searchPointer":"Starting point of the search. Find a vacant storage slot before calling this function to minimize gas cost."}},"initiateWithdrawal(uint72)":{"details":"Lets an author to start unpublishing process. Emits TimelockStarted.","params":{"_articleStorageAddress":"The address of the article in the storage."}},"newCategory(string,bytes)":{"params":{"_arbitratorExtraData":"Extra data of Kleros arbitrator, signaling subcourt and jury size selection.","_metaevidenceIpfsUri":"IPFS content identifier for metaevidence."}},"rule(uint256,uint256)":{"details":"This is only for arbitrator to use.","params":{"_disputeID":"The dispute ID as in arbitrator.","_ruling":"Winning ruling option."}},"submitEvidence(uint256,string)":{"params":{"_disputeID":"The dispute ID as in arbitrator.","_evidenceURI":"IPFS path to evidence, example: '/ipfs/Qmarwkf7C9RuzDEJNnarT3WZ7kem5bk8DZAzx78acJjMFH/evidence.json'"}},"switchPublishingLock()":{"details":"Useful when it's no longer safe or secure to use this contract.         Prevents new articles to be published. Only intended for privileges users."},"transferBalanceToTreasury()":{"details":"Allows the contract to send its entire balance to the treasury address.         It is important to ensure that the treasury address is set correctly.         If the transfer fails, an exception will be raised, and the funds will remain in the contract.         Emits TreasuryBalanceUpdate."},"transferOwnership(uint72,address)":{"details":"Lets you to transfer ownership of an article.      This is useful when you want to change owner account without withdrawing and resubmitting.      Emits OwnershipTransfer.","params":{"_articleStorageAddress":"The address of article in the storage.","_newOwner":"The new owner of the article which resides in the storage address, provided by the previous parameter."}},"updateChallengeTaxRate(uint256)":{"details":"The new challenge tax rate must be at most 25% based on MULTIPLIER_DENOMINATOR.         Only the current administrator can call this function. Emits ChallengeTaxRateUpdate.","params":{"_newChallengeTaxRate":"The new challenge tax rate to be set."}},"withdraw(uint72)":{"details":"Executes unpublishing of an article. Emits Withdrew.","params":{"_articleStorageAddress":"The address of the article in the storage."}},"withdrawFeesAndRewards(uint256,address,uint256,uint8)":{"details":"Allows to withdraw any reimbursable fees or rewards after the dispute gets resolved.","params":{"_contributor":"Beneficiary of withdraw operation.","_disputeID":"The dispute ID as in arbitrator.","_round":"Number of the round that caller wants to execute withdraw on.","_ruling":"A ruling option that caller wants to execute withdraw on."},"returns":{"amount":"The amount that is going to be transferred to contributor as a result of this function call."}},"withdrawFeesAndRewardsForAllRounds(uint256,address,uint8)":{"details":"Allows to withdraw any rewards or reimbursable fees after the dispute gets resolved for all rounds at once.","params":{"_contributor":"Beneficiary of withdraw operation.","_disputeID":"The dispute ID as in arbitrator.","_ruling":"Ruling option that caller wants to execute withdraw on."}},"withdrawFeesAndRewardsForAllRoundsAndAllRulings(uint256,address)":{"details":"Allows to withdraw any rewards or reimbursable fees after the dispute gets resolved for all rounds and all rulings at once.","params":{"_contributor":"Beneficiary of withdraw operation.","_disputeID":"The dispute ID as in arbitrator."}},"withdrawFeesAndRewardsForGivenPositions(uint256,address,uint256[][])":{"details":"Allows to withdraw any rewards or reimbursable fees after the dispute gets resolved for given positions at once.","params":{"_contributor":"Beneficiary of withdraw operation.","_disputeID":"The dispute ID as in arbitrator.","positions":"[rounds][rulings]."}}},"title":"The Trust Post","version":1},"evm":{"bytecode":{"linkReferences":{},"object":"60a06040526000805460ff1916600117905561020060025560106006556007805433610100026001600160a81b031990911617905534801561004057600080fd5b5060405161454738038061454783398101604081905261005f916102af565b600384905560048390556005829055600080546001600160a01b0380841661010002610100600160a81b03199092169190911790915587166080526100a485876100b0565b50505050505050610554565b6007546100c19060ff166001610386565b60ff166000036101175760405162461bcd60e51b815260206004820181905260248201527f4e6f207370616365206c65667420666f722061206e65772063617465676f7279604482015260640160405180910390fd5b60075460405160ff909116907f61606860eb6c87306811e2695215385101daab53bd6ab4e9f9049aead9363c7d906101509085906103a5565b60405180910390a2600754819060089060ff1660408110610173576101736103d8565b019061017f9082610477565b506007805460ff1690600061019383610535565b91906101000a81548160ff021916908360ff160217905550505050565b6001600160a01b03811681146101c557600080fd5b50565b634e487b7160e01b600052604160045260246000fd5b60005b838110156101f95781810151838201526020016101e1565b50506000910152565b6000806001600160401b0384111561021c5761021c6101c8565b50604051601f19601f85018116603f011681018181106001600160401b038211171561024a5761024a6101c8565b60405283815290508082840185101561026257600080fd5b6102708460208301856101de565b509392505050565b600082601f83011261028957600080fd5b61029883835160208501610202565b9392505050565b80516102aa816101b0565b919050565b600080600080600080600060e0888a0312156102ca57600080fd5b87516102d5816101b0565b60208901519097506001600160401b038111156102f157600080fd5b8801601f81018a1361030257600080fd5b6103118a825160208401610202565b60408a015190975090506001600160401b0381111561032f57600080fd5b61033b8a828b01610278565b60608a015160808b015160a08c015192985090965094509250610362905060c0890161029f565b905092959891949750929550565b634e487b7160e01b600052601160045260246000fd5b60ff818116838216019081111561039f5761039f610370565b92915050565b60208152600082518060208401526103c48160408501602087016101de565b601f01601f19169190910160400192915050565b634e487b7160e01b600052603260045260246000fd5b600181811c9082168061040257607f821691505b60208210810361042257634e487b7160e01b600052602260045260246000fd5b50919050565b601f82111561047257806000526020600020601f840160051c8101602085101561044f5750805b601f840160051c820191505b8181101561046f576000815560010161045b565b50505b505050565b81516001600160401b03811115610490576104906101c8565b6104a48161049e84546103ee565b84610428565b6020601f8211600181146104d857600083156104c05750848201515b600019600385901b1c1916600184901b17845561046f565b600084815260208120601f198516915b8281101561050857878501518255602094850194600190920191016104e8565b50848210156105265786840151600019600387901b60f8161c191681555b50505050600190811b01905550565b600060ff821660ff810361054b5761054b610370565b60010192915050565b608051613f7d6105ca6000396000818161067001528181610c0501528181610d8301528181610e4101528181610ecf015281816110b4015281816114f10152818161162c015281816117b201528181611a6001528181611e420152818161206b015281816123ba01526124b40152613f7d6000f3fe60806040526004361061031e5760003560e01c8063a509efeb116101a5578063c9330c0f116100ec578063e349ad3011610095578063faa0ba9d1161006f578063faa0ba9d146109c0578063fc0ac672146109d3578063fe6ca782146109e9578063ffa1ad74146109ff57600080fd5b8063e349ad3014610965578063ec4adca91461097b578063f851a4401461099b57600080fd5b8063d970d18c116100c6578063d970d18c14610910578063dc227fc214610925578063e165720c1461094557600080fd5b8063c9330c0f146108ba578063c94828f0146108da578063d3b476b1146108fa57600080fd5b8063b34bfaa81161014e578063ba0ec60b11610128578063ba0ec60b1461086f578063ba4c8f8f14610884578063be467604146108a457600080fd5b8063b34bfaa814610824578063b4c705811461083a578063b7bddc721461085a57600080fd5b8063adc7faba1161017f578063adc7faba146107b6578063af4a9144146107d6578063b14f2a391461080457600080fd5b8063a509efeb14610756578063a6a7f0eb14610776578063a92c47071461079657600080fd5b80634de12db0116102695780637597b3cb116102125780638f283970116101ec5780638f283970146106f657806392239dff1461071657806392e259251461073657600080fd5b80637597b3cb146106925780637f67bd6c146106a75780638a9bb02a146106c757600080fd5b806367284f211161024357806367284f211461061e5780636760aeb01461063e57806368871c9c1461065e57600080fd5b80634de12db014610541578063564a565d1461056e578063638af3da146105e957600080fd5b8063311a6c56116102cb5780633e556162116102a55780633e5561621461046d57806344b9ad061461050e5780634c55c0001461052157600080fd5b8063311a6c5614610417578063313dab2014610437578063376414831461044d57600080fd5b80631e26de34116102fc5780631e26de341461038c57806326804bef146103ba5780632d2c5565146103da57600080fd5b806303624fc01461032357806312a145e11461035457806312b3a2c014610369575b600080fd5b34801561032f57600080fd5b5060075461033d9060ff1681565b60405160ff90911681526020015b60405180910390f35b6103676103623660046134d4565b610a48565b005b61037c6103773660046134fe565b610e1b565b604051901515815260200161034b565b34801561039857600080fd5b506103ac6103a736600461352a565b611617565b60405190815260200161034b565b3480156103c657600080fd5b506103676103d536600461352a565b6116e0565b3480156103e657600080fd5b506000546103ff9061010090046001600160a01b031681565b6040516001600160a01b03909116815260200161034b565b34801561042357600080fd5b50610367610432366004613543565b6117a7565b34801561044357600080fd5b506103ac60015481565b34801561045957600080fd5b506103ac6104683660046134d4565b611a3d565b34801561047957600080fd5b506104ce6104883660046134d4565b6048602052600090815260409020546001600160a01b03811690600160a01b810463ffffffff1690600160c01b810466ffffffffffffff1690600160f81b900460ff1684565b604080516001600160a01b03909516855263ffffffff909316602085015266ffffffffffffff9091169183019190915260ff16606082015260800161034b565b61036761051c3660046134d4565b611b58565b34801561052d57600080fd5b5061036761053c3660046135f5565b611c9e565b34801561054d57600080fd5b5061056161055c36600461352a565b611d9a565b60405161034b91906136cc565b34801561057a57600080fd5b506105d861058936600461352a565b6049602052600090815260409020546001600160a01b0381169060ff600160a01b8204811691600160a81b8104821691600160b01b8204169068ffffffffffffffffff600160b81b9091041685565b60405161034b959493929190613717565b3480156105f557600080fd5b506106096106043660046134fe565b611e3a565b6040805192835260208301919091520161034b565b34801561062a57600080fd5b50610367610639366004613775565b611f67565b34801561064a57600080fd5b50610367610659366004613802565b612017565b34801561066a57600080fd5b506103ff7f000000000000000000000000000000000000000000000000000000000000000081565b34801561069e57600080fd5b506103ac600281565b3480156106b357600080fd5b506103ac6106c236600461352a565b612052565b3480156106d357600080fd5b506106e76106e2366004613543565b6120de565b60405161034b9392919061383e565b34801561070257600080fd5b506103676107113660046138a3565b6121ce565b34801561072257600080fd5b5061036761073136600461352a565b612249565b34801561074257600080fd5b5061036761075136600461352a565b612298565b34801561076257600080fd5b506103ac6107713660046134fe565b6122e7565b34801561078257600080fd5b50610367610791366004613900565b6124a7565b3480156107a257600080fd5b506103676107b13660046134d4565b61251a565b3480156107c257600080fd5b506103676107d136600461352a565b612753565b3480156107e257600080fd5b506107f66107f136600461394c565b6127a2565b60405161034b92919061396f565b34801561081057600080fd5b5061036761081f3660046138a3565b612981565b34801561083057600080fd5b506103ac60055481565b34801561084657600080fd5b506103ac610855366004613a05565b6129fa565b34801561086657600080fd5b50610367612a84565b34801561087b57600080fd5b50610367612ae9565b34801561089057600080fd5b5061036761089f3660046134d4565b612b19565b3480156108b057600080fd5b506103ac60025481565b3480156108c657600080fd5b506103676108d536600461394c565b612c82565b3480156108e657600080fd5b506103676108f536600461352a565b612cdf565b34801561090657600080fd5b506103ac60035481565b34801561091c57600080fd5b506103ac602081565b34801561093157600080fd5b506103ac610940366004613a2f565b612d2e565b34801561095157600080fd5b506103ac6109603660046134d4565b612e92565b34801561097157600080fd5b506103ac60045481565b34801561098757600080fd5b50610367610996366004613a75565b612f11565b3480156109a757600080fd5b506007546103ff9061010090046001600160a01b031681565b6103676109ce366004613a9f565b61300b565b3480156109df57600080fd5b506103ac60065481565b3480156109f557600080fd5b506103ac61040081565b348015610a0b57600080fd5b506105616040518060400160405280600581526020017f312e322e3000000000000000000000000000000000000000000000000000000081525081565b68ffffffffffffffffff811660009081526048602052604090208054600160c01b900466ffffffffffffff16610ac55760405162461bcd60e51b815260206004820152601560248201527f4e6f7468696e6720746f206368616c6c656e67652e000000000000000000000060448201526064015b60405180910390fd5b805463fffffffe19600160a01b90910463ffffffff1601610b285760405162461bcd60e51b815260206004820152601e60248201527f546865726520697320616e206f6e676f696e67206368616c6c656e67652e00006044820152606401610abc565b805463ffffffff60a01b191677ffffffff0000000000000000000000000000000000000000178155610b5982611a3d565b341015610ba85760405162461bcd60e51b815260206004820181905260248201527f496e73756666696369656e742066756e647320746f206368616c6c656e67652e6044820152606401610abc565b600654815460009161040091610bd59190600160c01b900460201b6affffffffffffff0000000016613b16565b610bdf9190613b2d565b90508060016000828254610bf39190613b4f565b90915550600090506001600160a01b037f00000000000000000000000000000000000000000000000000000000000000001663c13517e1610c348434613b62565b8554600290600890600160f81b900460ff1660408110610c5657610c56613b75565b016040518463ffffffff1660e01b8152600401610c74929190613c48565b60206040518083038185885af1158015610c92573d6000803e3d6000fd5b50505050506040513d601f19601f82011682018060405250810190610cb79190613c69565b600081815260496020908152604091829020805460018083018054909101905576ffffff0000000000000000000000000000000000000000163376ffffffffffffffffffffffffffffffffffffffffffffff1617600160b81b68ffffffffffffffffff8a16021780825587547fffffffffffffffffffff00ffffffffffffffffffffffffffffffffffffffffff909116600160f81b9182900460ff908116600160a81b029190911790925587548451919004909116815290810183905291925082916001600160a01b037f000000000000000000000000000000000000000000000000000000000000000016917f74baab670a4015ab2f1b467c5252a96141a2573f2908e58a92081e80d3cfde3d910160405180910390a3604080513381526020810183905268ffffffffffffffffff8616917f1e5338a1fb672aa84963dc9f9e4afd009b4ed726debb09224bf4d02a6c68b4e4910160405180910390a250505050565b6000828152604960205260408082209051631c3db16d60e01b81526004810185905282907f00000000000000000000000000000000000000000000000000000000000000006001600160a01b031690631c3db16d90602401602060405180830381865afa158015610e90573d6000803e3d6000fd5b505050506040513d601f19601f82011682018060405250810190610eb49190613c69565b6002811115610ec557610ec56136df565b90506000806000807f00000000000000000000000000000000000000000000000000000000000000006001600160a01b031663afe15cfb8a6040518263ffffffff1660e01b8152600401610f1b91815260200190565b6040805180830381865afa158015610f37573d6000803e3d6000fd5b505050506040513d601f19601f82011682018060405250810190610f5b9190613c82565b915091506000856002811115610f7357610f736136df565b896002811115610f8557610f856136df565b0361100857814210610fff5760405162461bcd60e51b815260206004820152602e60248201527f46756e64696e67206d757374206265206d6164652077697468696e207468652060448201527f61707065616c20706572696f642e0000000000000000000000000000000000006064820152608401610abc565b506004546110b0565b600254610400906110198585613b62565b6110239190613b16565b61102d9190613b2d565b6110379084613b4f565b42106110ab5760405162461bcd60e51b815260206004820152603960248201527f46756e64696e67206d757374206265206d6164652077697468696e207468652060448201527f66697273742068616c662061707065616c20706572696f642e000000000000006064820152608401610abc565b506005545b86547f00000000000000000000000000000000000000000000000000000000000000006001600160a01b03169063f23f16e6908c90600890600160a81b900460ff166040811061110257611102613b75565b016040518363ffffffff1660e01b8152600401611120929190613c48565b602060405180830381865afa15801561113d573d6000803e3d6000fd5b505050506040513d601f19601f820116820180604052508101906111619190613c69565b94506104006111708287613b16565b61117a9190613b2d565b6111849086613b4f565b6001888101549195508a94506000935061119f925090613b62565b905060008660010182815481106111b8576111b8613b75565b90600052602060002090600602019050806001018360028111156111de576111de6136df565b600381106111ee576111ee613b75565b602081049091015460ff601f9092166101000a900416156112775760405162461bcd60e51b815260206004820152602160248201527f41707065616c206665652068617320616c7265616479206265656e207061696460448201527f2e000000000000000000000000000000000000000000000000000000000000006064820152608401610abc565b60008082600201856002811115611290576112906136df565b600381106112a0576112a0613b75565b015490508581106112b457600091506112d8565b346112bf8288613b62565b116112d3576112ce8187613b62565b6112d5565b345b91505b50336001600160a01b0316838c7f2b4ef80a862edc5616a4e61c11f4a368f33323faca91fa7635d48b85c183e66a8d85604051611316929190613ca6565b60405180910390a43360009081526020839052604090208190856002811115611341576113416136df565b6003811061135157611351613b75565b0160008282546113619190613b4f565b92505081905550808260020185600281111561137f5761137f6136df565b6003811061138f5761138f613b75565b01600082825461139f9190613b4f565b9250508190555084826002018560028111156113bd576113bd6136df565b600381106113cd576113cd613b75565b01541061149b57816002018460028111156113ea576113ea6136df565b600381106113fa576113fa613b75565b015482600501600082825461140f9190613b4f565b909155506001905082810185600281111561142c5761142c6136df565b6003811061143c5761143c613b75565b602091828204019190066101000a81548160ff02191690831515021790555089600281111561146d5761146d6136df565b60405184908d907fb5681f036910f38d8c2fa06f2cbedc227ecf03d7c4a358ee9096197b15ff8fd090600090a45b6001820154610100900460ff1680156114be5750600182015462010000900460ff165b156115925760018089018054909101815560009081526005830180548892906114e8908490613b62565b909155505087547f00000000000000000000000000000000000000000000000000000000000000006001600160a01b0316906349912f889088908e90600890600160a81b900460ff166040811061154157611541613b75565b016040518463ffffffff1660e01b815260040161155f929190613c48565b6000604051808303818588803b15801561157857600080fd5b505af115801561158c573d6000803e3d6000fd5b50505050505b600061159e8234613b62565b11156115ca57336108fc6115b28334613b62565b6040518115909202916000818181858888f150505050505b816001018460028111156115e0576115e06136df565b600381106115f0576115f0613b75565b602081049091015460ff601f9092166101000a900416985050505050505050505b92915050565b600081815260496020526040808220805490917f00000000000000000000000000000000000000000000000000000000000000006001600160a01b03169163f23f16e6918691600891600160a81b90910460ff1690811061167a5761167a613b75565b016040518363ffffffff1660e01b8152600401611698929190613c48565b602060405180830381865afa1580156116b5573d6000803e3d6000fd5b505050506040513d601f19601f820116820180604052508101906116d99190613c69565b9392505050565b60075461010090046001600160a01b031633146116fc57600080fd5b6101008111156117745760405162461bcd60e51b815260206004820152603660248201527f5468652074617820726174652063616e206f6e6c7920626520696e637265617360448201527f65642062792061206d6178696d756d206f6620323525000000000000000000006064820152608401610abc565b600681905560405181907f5100ab374784a62034356f9af3b71ea723c1e89beb5627c6c1dacea1117250b890600090a250565b336001600160a01b037f000000000000000000000000000000000000000000000000000000000000000016146117dc57600080fd5b60008281526049602052604081206001808201805492939290916117ff91613b62565b8154811061180f5761180f613b75565b60009182526020822060016006929092020190810154909250610100900460ff161561183d57506001611853565b6001820154610100900460ff1615611853575060025b600080826002811115611868576118686136df565b036118845784600281111561187f5761187f6136df565b611886565b815b8454909150819085907fffffffffffffffffffffff00ffffffffffffffffffffffffffffffffffffffff16600160a01b8360028111156118c8576118c86136df565b02179055508354600160b81b900468ffffffffffffffffff1660008181526048602052604090206002836002811115611903576119036136df565b036119bb5780547fff00000000000000ffffffffffffffffffffffffffffffffffffffffffffffff8116825560405168ffffffffffffffffff84168152600160c01b909104602090811b6affffffffffffff0000000016917f8271992f9b3a3f30dc2a464982dc4a136e7357403462443a171a0fb0c6ccc265910160405180910390a16000898152604960205260408082205490516001600160a01b039091169183156108fc02918491818181858888f15050505050505b805463ffffffff60a01b1916815585547fffffffffffffffffff00ffffffffffffffffffffffffffffffffffffffffffff16600160b01b178655604051889033907f394027a5fa6e098a1191094d1719d6929b9abc535fcc0c8f448d6a4e7562227690611a2b908b815260200190565b60405180910390a35050505050505050565b68ffffffffffffffffff81166000908152604860205260408082208054909183917f00000000000000000000000000000000000000000000000000000000000000006001600160a01b03169163f7434ea991600891600160f81b90910460ff16908110611aac57611aac613b75565b016040518263ffffffff1660e01b8152600401611ac99190613cc1565b602060405180830381865afa158015611ae6573d6000803e3d6000fd5b505050506040513d601f19601f82011682018060405250810190611b0a9190613c69565b600654835491925060009161040091611b3991600160c01b900460201b6affffffffffffff0000000016613b16565b611b439190613b2d565b9050611b4f8183613b4f565b95945050505050565b68ffffffffffffffffff8116600090815260486020526040902080546001600160a01b03163314611bf15760405162461bcd60e51b815260206004820152602e60248201527f4f6e6c7920617574686f722063616e20696e63726561736520626f756e74792060448201527f6f6620616e2061727469636c652e0000000000000000000000000000000000006064820152608401610abc565b80543460201c908290601890611c18908490600160c01b900466ffffffffffffff16613cd4565b82546101009290920a66ffffffffffffff8181021990931691909216919091021790555080546040805168ffffffffffffffffff85168152600160c01b909204602090811b6affffffffffffff0000000016908301527fdf5fc410d3381cc7f0a7fe3af72f4e3cf53ef5787f20554af69035a950e1b2e391015b60405180910390a15050565b600754611caf9060ff166001613cf3565b60ff16600003611d015760405162461bcd60e51b815260206004820181905260248201527f4e6f207370616365206c65667420666f722061206e65772063617465676f72796044820152606401610abc565b60075460405160ff909116907f61606860eb6c87306811e2695215385101daab53bd6ab4e9f9049aead9363c7d90611d3a9085906136cc565b60405180910390a2600754819060089060ff1660408110611d5d57611d5d613b75565b0190611d699082613d58565b506007805460ff16906000611d7d83613e17565b91906101000a81548160ff021916908360ff160217905550505050565b60088160408110611daa57600080fd5b018054909150611db990613b8b565b80601f0160208091040260200160405190810160405280929190818152602001828054611de590613b8b565b8015611e325780601f10611e0757610100808354040283529160200191611e32565b820191906000526020600020905b815481529060010190602001808311611e1557829003601f168201915b505050505081565b6000806000807f00000000000000000000000000000000000000000000000000000000000000006001600160a01b031663afe15cfb876040518263ffffffff1660e01b8152600401611e8e91815260200190565b6040805180830381865afa158015611eaa573d6000803e3d6000fd5b505050506040513d601f19601f82011682018060405250810190611ece9190613c82565b9150915060006104006002548484611ee69190613b62565b611ef09190613b16565b611efa9190613b2d565b611f049084613b4f565b90506000866002811115611f1a57611f1a6136df565b611f2389612052565b6002811115611f3457611f346136df565b6002811115611f4557611f456136df565b14905080611f54578382611f57565b83835b95509550505050505b9250929050565b60005b818110156120105760005b838383818110611f8757611f87613b75565b9050602002810190611f999190613e36565b9050811015612007576000848484818110611fb657611fb6613b75565b9050602002810190611fc89190613e36565b83818110611fd857611fd8613b75565b905060200201351115611fff57611ffd868684846002811115610940576109406136df565b505b600101611f75565b50600101611f6a565b5050505050565b6000838152604960205260408120600181015490915b8181101561204a5761204186868387612d2e565b5060010161202d565b505050505050565b604051631c3db16d60e01b8152600481018290526000907f00000000000000000000000000000000000000000000000000000000000000006001600160a01b031690631c3db16d90602401602060405180830381865afa1580156120ba573d6000803e3d6000fd5b505050506040513d601f19601f820116820180604052508101906116119190613c69565b6120e6613498565b6120ee613498565b600084815260496020526040812060010180548291908690811061211457612114613b75565b906000526020600020906006020190508060010181600201826005015482600380602002604051908101604052809291908260038015612189576020028201916000905b825461010083900a900460ff1615158152602060019283018181049485019490930390920291018084116121585790505b505060408051606081019182905294975086935060039250905082845b8154815260200190600101908083116121a65750505050509150935093509350509250925092565b60075461010090046001600160a01b031633146121ea57600080fd5b6007805474ffffffffffffffffffffffffffffffffffffffff0019166101006001600160a01b038416908102919091179091556040517f0c2515f25186df02132ad46f01e062c3b8982c8de57fa2b1b0a280d8e810f39b90600090a250565b60075461010090046001600160a01b0316331461226557600080fd5b600581905560405181907f505f3bf1e426c82f14f7c9cfb2d31ef5b7bb76428e16bd90dabec113e3d4a2bc90600090a250565b60075461010090046001600160a01b031633146122b457600080fd5b600381905560405181907f207e19e347becb468ef02d25790188e4d5da0fe37176d3bbb7940168ec5d613690600090a250565b6000828152604960205260408120600180820154839161230691613b62565b9050600082600101828154811061231f5761231f613b75565b906000526020600020906006020190506000856002811115612343576123436136df565b61234c88612052565b600281111561235d5761235d6136df565b600281111561236e5761236e6136df565b14905060008161238057600554612384565b6004545b905060008360020188600281111561239e5761239e6136df565b600381106123ae576123ae613b75565b015486549091506000907f00000000000000000000000000000000000000000000000000000000000000006001600160a01b03169063f23f16e6908c90600890600160a81b900460ff166040811061240857612408613b75565b016040518363ffffffff1660e01b8152600401612426929190613c48565b602060405180830381865afa158015612443573d6000803e3d6000fd5b505050506040513d601f19601f820116820180604052508101906124679190613c69565b905060006104006124788584613b16565b6124829190613b2d565b61248c9083613b4f565b90506124988382613b62565b9b9a5050505050505050505050565b336001600160a01b0316837f00000000000000000000000000000000000000000000000000000000000000006001600160a01b03167fdccf2f8b2cc26eafcd61905cba744cff4b81d14740725f6376390dc6298a6a3c858560405161250d929190613ea9565b60405180910390a4505050565b68ffffffffffffffffff8116600090815260486020526040902080546001600160a01b031633146125995760405162461bcd60e51b8152602060048201526024808201527f4f6e6c7920617574686f722063616e20776974686472617720616e206172746960448201526331b6329760e11b6064820152608401610abc565b8054600160a01b900463ffffffff1660000361261d5760405162461bcd60e51b815260206004820152602660248201527f596f75206e65656420746f20696e697469617465207769746864726177616c2060448201527f66697273742e00000000000000000000000000000000000000000000000000006064820152608401610abc565b805442600160a01b90910463ffffffff1611156126a25760405162461bcd60e51b815260206004820152603f60248201527f596f75206e65656420746f207761697420666f722074696d656c6f636b206f7260448201527f207761697420756e74696c20746865206368616c6c656e676520656e64732e006064820152608401610abc565b80547fff0000000000000000000000ffffffffffffffffffffffffffffffffffffffff81168255604051600160c01b90910460201b6affffffffffffff00000000169033906108fc8315029083906000818181858888f1935050505015801561270f573d6000803e3d6000fd5b5060405168ffffffffffffffffff841681527f70b41d8cca762ceec66d93f536dbb31f5cabbf1901f862508b9438de54fce4eb9060200160405180910390a1505050565b60075461010090046001600160a01b0316331461276f57600080fd5b600481905560405181907f8df75282265171690a1298cf028f5e3c7d8d42313394a4f25d4aeea6c1ea62cf90600090a250565b6000828152604960205260408120805460609190600160b01b900460ff166127ce576000925050611f60565b60018101548154600160a01b900460ff168167ffffffffffffffff8111156127f8576127f8613565565b60405190808252806020026020018201604052801561282b57816020015b60608152602001906001900390816128165790505b50935060005b828110156129765761284560026001613b4f565b67ffffffffffffffff81111561285d5761285d613565565b604051908082528060200260200182016040528015612886578160200160208202803683370190505b5085828151811061289957612899613b75565b602002602001018190525060008460010182815481106128bb576128bb613b75565b9060005260206000209060060201905060005b6002811161296c5760006128f5838b8460028111156128ef576128ef6136df565b8861327a565b9050801561295957612914838b8460028111156128ef576128ef6136df565b61291e908a613b4f565b98508088858151811061293357612933613b75565b6020026020010151838151811061294c5761294c613b75565b6020026020010181815250505b508061296481613ebd565b9150506128ce565b5050600101612831565b505050509250929050565b60075461010090046001600160a01b0316331461299d57600080fd5b6000805474ffffffffffffffffffffffffffffffffffffffff0019166101006001600160a01b03841690810291909117825560405190917f8a3509a4057c89a5993a4a3140c2ebf7e829d325d8998eaa6c48adcff98b2cef91a250565b600080836002811115612a0f57612a0f6136df565b836002811115612a2157612a216136df565b1490506103e8600082612a3657600554612a3a565b6004545b9050612a4861040082613b4f565b82610400600554600454612a5c9190613b4f565b612a669190613b4f565b612a709190613b16565b612a7a9190613b2d565b9695505050505050565b60018054600091829055815460405191926101009091046001600160a01b0316916108fc84150291849190818181858888f150506040518493507fb315332b30dc40d1e51def214ce42d93a73bd0c17b08db04b34f10736bb2f06f925060009150a250565b60075461010090046001600160a01b03163314612b0557600080fd5b6000805460ff19811660ff90911615179055565b68ffffffffffffffffff8116600090815260486020526040902080546001600160a01b03163314612b985760405162461bcd60e51b8152602060048201526024808201527f4f6e6c7920617574686f722063616e20776974686472617720616e206172746960448201526331b6329760e11b6064820152608401610abc565b8054600160a01b900463ffffffff1615612c1a5760405162461bcd60e51b815260206004820152603560248201527f5769746864726177616c20616c726561647920696e69746961746564206f722060448201527f74686572652069732061206368616c6c656e67652e00000000000000000000006064820152608401610abc565b600354612c279042613b4f565b815463ffffffff91909116600160a01b0263ffffffff60a01b1990911617815560405168ffffffffffffffffff831681527f416c1ad2b96c356f3bbd35431f86cce449ddbb4f8c3755ea9d2776b04c2e9c8f90602001611c92565b6000828152604960205260408120600181015490915b818110156120105760005b60028111612cd657612cc3868684846002811115610940576109406136df565b5080612cce81613ebd565b915050612ca3565b50600101612c98565b60075461010090046001600160a01b03163314612cfb57600080fd5b600281905560405181907fbf39faa024d2f97599a0095e84098ee2171b6681738416c0030f442ba956d52b90600090a250565b60008481526049602052604081208054600160b01b900460ff16612d945760405162461bcd60e51b815260206004820152601760248201527f5468657265206973206e6f2072756c696e67207965742e0000000000000000006044820152606401610abc565b6000816001018581548110612dab57612dab613b75565b90600052602060002090600602019050612dd88187868560000160149054906101000a900460ff1661327a565b92508215612e88576001600160a01b0386166000908152602082905260408120856002811115612e0a57612e0a6136df565b60038110612e1a57612e1a613b75565b01556040516001600160a01b0387169084156108fc029085906000818181858888f1935050505050856001600160a01b031685887fff2b7c936d6023fea901b3455cefc23b124c1ca5997dc5b48c461fd20984289d8787604051612e7f929190613ca6565b60405180910390a45b5050949350505050565b6000805b6048600084612ea481613ed6565b955068ffffffffffffffffff1668ffffffffffffffffff16815260200190815260200160002090508060000160189054906101000a900466ffffffffffffff1666ffffffffffffff16600003612e9657612eff600184613efc565b68ffffffffffffffffff169392505050565b68ffffffffffffffffff8216600090815260486020526040902080546001600160a01b03163314612faa5760405162461bcd60e51b815260206004820152602360248201527f4f6e6c7920617574686f722063616e207472616e73666572206f776e6572736860448201527f69702e00000000000000000000000000000000000000000000000000000000006064820152608401610abc565b80547fffffffffffffffffffffffff0000000000000000000000000000000000000000166001600160a01b03831690811782556040517fdfc39691aec87dc6aa51ff70c0e592f260c54d2ed6c64e8c4c2306da0eec872b90600090a2505050565b60075460ff908116908316106130635760405162461bcd60e51b815260206004820152601c60248201527f546869732063617465676f727920646f6573206e6f74206578697374000000006044820152606401610abc565b60005b604860008361307481613ed6565b945068ffffffffffffffffff1668ffffffffffffffffff16815260200190815260200160002090508060000160189054906101000a900466ffffffffffffff1666ffffffffffffff166000036130665780547fff00000000000000ffffffff000000000000000000000000000000000000000016337fff00000000000000ffffffffffffffffffffffffffffffffffffffffffffffff1617600160c01b3460201c66ffffffffffffff9081168202929092177effffffffffffffffffffffffffffffffffffffffffffffffffffffffffffff16600160f81b60ff8716021780845504166131c95760405162461bcd60e51b815260206004820152603960248201527f596f752063616e277420696e697469616c697a6520616e2061727469636c652060448201527f776974686f75742070757474696e67206120626f756e74792e000000000000006064820152608401610abc565b60006131d6600184613efc565b68ffffffffffffffffff1690507f4f9a2b734331c583faf3f19d1feb5f08b742e016a56fb61379950beaf3e22341868686846040516132189493929190613f1d565b60405180910390a1815460408051838152600160c01b909204602090811b6affffffffffffff0000000016908301527fdf5fc410d3381cc7f0a7fe3af72f4e3cf53ef5787f20554af69035a950e1b2e3910160405180910390a1505050505050565b60008260018601816002811115613293576132936136df565b600381106132a3576132a3613b75565b602081049091015460ff601f9092166101000a900416613300576001600160a01b03851660009081526020879052604090208160028111156132e7576132e76136df565b600381106132f7576132f7613b75565b0154915061348f565b826002811115613312576133126136df565b846002811115613324576133246136df565b036133e357600086600201826002811115613341576133416136df565b6003811061335157613351613b75565b01541161335f5760006133dc565b85600201816002811115613375576133756136df565b6003811061338557613385613b75565b015460058701546001600160a01b03871660009081526020899052604090208360028111156133b6576133b66136df565b600381106133c6576133c6613b75565b01546133d29190613b16565b6133dc9190613b2d565b915061348f565b856001018360028111156133f9576133f96136df565b6003811061340957613409613b75565b602081049091015460ff601f9092166101000a90041661348f57600486015460038701546134379190613b4f565b60058701546001600160a01b0387166000908152602089905260409020836002811115613466576134666136df565b6003811061347657613476613b75565b01546134829190613b16565b61348c9190613b2d565b91505b50949350505050565b60405180606001604052806003906020820280368337509192915050565b803568ffffffffffffffffff811681146134cf57600080fd5b919050565b6000602082840312156134e657600080fd5b6116d9826134b6565b8035600381106134cf57600080fd5b6000806040838503121561351157600080fd5b82359150613521602084016134ef565b90509250929050565b60006020828403121561353c57600080fd5b5035919050565b6000806040838503121561355657600080fd5b50508035926020909101359150565b634e487b7160e01b600052604160045260246000fd5b60008067ffffffffffffffff84111561359657613596613565565b50604051601f19601f85018116603f0116810181811067ffffffffffffffff821117156135c5576135c5613565565b6040528381529050808284018510156135dd57600080fd5b83836020830137600060208583010152509392505050565b6000806040838503121561360857600080fd5b823567ffffffffffffffff81111561361f57600080fd5b8301601f8101851361363057600080fd5b61363f8582356020840161357b565b925050602083013567ffffffffffffffff81111561365c57600080fd5b8301601f8101851361366d57600080fd5b61367c8582356020840161357b565b9150509250929050565b6000815180845260005b818110156136ac57602081850181015186830182015201613690565b506000602082860101526020601f19601f83011685010191505092915050565b6020815260006116d96020830184613686565b634e487b7160e01b600052602160045260246000fd5b6003811061371357634e487b7160e01b600052602160045260246000fd5b9052565b6001600160a01b038616815260a0810161373460208301876136f5565b60ff949094166040820152911515606083015268ffffffffffffffffff1660809091015292915050565b80356001600160a01b03811681146134cf57600080fd5b6000806000806060858703121561378b57600080fd5b8435935061379b6020860161375e565b9250604085013567ffffffffffffffff8111156137b757600080fd5b8501601f810187136137c857600080fd5b803567ffffffffffffffff8111156137df57600080fd5b8760208260051b84010111156137f457600080fd5b949793965060200194505050565b60008060006060848603121561381757600080fd5b833592506138276020850161375e565b9150613835604085016134ef565b90509250925092565b60e08101818560005b60038110156138685781511515835260209283019290910190600101613847565b505050606082018460005b6003811015613892578151835260209283019290910190600101613873565b5050508260c0830152949350505050565b6000602082840312156138b557600080fd5b6116d98261375e565b60008083601f8401126138d057600080fd5b50813567ffffffffffffffff8111156138e857600080fd5b602083019150836020828501011115611f6057600080fd5b60008060006040848603121561391557600080fd5b83359250602084013567ffffffffffffffff81111561393357600080fd5b61393f868287016138be565b9497909650939450505050565b6000806040838503121561395f57600080fd5b823591506135216020840161375e565b6000604082018483526040602084015280845180835260608501915060608160051b86010192506020860160005b828110156139f857868503605f190184528151805180875260209182019187019060005b818110156139df5783518352602093840193909201916001016139c1565b509096505050602093840193919091019060010161399d565b5092979650505050505050565b60008060408385031215613a1857600080fd5b613a21836134ef565b9150613521602084016134ef565b60008060008060808587031215613a4557600080fd5b84359350613a556020860161375e565b925060408501359150613a6a606086016134ef565b905092959194509250565b60008060408385031215613a8857600080fd5b613a91836134b6565b91506135216020840161375e565b60008060008060608587031215613ab557600080fd5b843567ffffffffffffffff811115613acc57600080fd5b613ad8878288016138be565b909550935050602085013560ff81168114613af257600080fd5b9150613a6a604086016134b6565b634e487b7160e01b600052601160045260246000fd5b808202811582820484141761161157611611613b00565b600082613b4a57634e487b7160e01b600052601260045260246000fd5b500490565b8082018082111561161157611611613b00565b8181038181111561161157611611613b00565b634e487b7160e01b600052603260045260246000fd5b600181811c90821680613b9f57607f821691505b602082108103613bbf57634e487b7160e01b600052602260045260246000fd5b50919050565b60008154613bd281613b8b565b808552600182168015613bec5760018114613c0857613c3f565b60ff1983166020870152602082151560051b8701019350613c3f565b84600052602060002060005b83811015613c365781546020828a010152600182019150602081019050613c14565b87016020019450505b50505092915050565b828152604060208201526000613c616040830184613bc5565b949350505050565b600060208284031215613c7b57600080fd5b5051919050565b60008060408385031215613c9557600080fd5b505080516020909101519092909150565b60408101613cb482856136f5565b8260208301529392505050565b6020815260006116d96020830184613bc5565b66ffffffffffffff818116838216019081111561161157611611613b00565b60ff818116838216019081111561161157611611613b00565b601f821115613d5357806000526020600020601f840160051c81016020851015613d335750805b601f840160051c820191505b818110156120105760008155600101613d3f565b505050565b815167ffffffffffffffff811115613d7257613d72613565565b613d8681613d808454613b8b565b84613d0c565b6020601f821160018114613dba5760008315613da25750848201515b600019600385901b1c1916600184901b178455612010565b600084815260208120601f198516915b82811015613dea5787850151825560209485019460019092019101613dca565b5084821015613e085786840151600019600387901b60f8161c191681555b50505050600190811b01905550565b600060ff821660ff8103613e2d57613e2d613b00565b60010192915050565b6000808335601e19843603018112613e4d57600080fd5b83018035915067ffffffffffffffff821115613e6857600080fd5b6020019150600581901b3603821315611f6057600080fd5b81835281816020850137506000828201602090810191909152601f909101601f19169091010190565b602081526000613c61602083018486613e80565b600060018201613ecf57613ecf613b00565b5060010190565b600068ffffffffffffffffff821668ffffffffffffffffff8103613e2d57613e2d613b00565b68ffffffffffffffffff828116828216039081111561161157611611613b00565b606081526000613f31606083018688613e80565b60ff94909416602083015250604001529291505056fea264697066735822122033ebebbc41f48fc1789af0980443b9fc46e3f37029fbccd21e86aef900428e3664736f6c634300081a0033","opcodes":"PUSH1 0xA0 PUSH1 0x40 MSTORE PUSH1 0x0 DUP1 SLOAD PUSH1 0xFF NOT AND PUSH1 0x1 OR SWAP1 SSTORE PUSH2 0x200 PUSH1 0x2 SSTORE PUSH1 0x10 PUSH1 0x6 SSTORE PUSH1 0x7 DUP1 SLOAD CALLER PUSH2 0x100 MUL PUSH1 0x1 PUSH1 0x1 PUSH1 0xA8 SHL SUB NOT SWAP1 SWAP2 AND OR SWAP1 SSTORE CALLVALUE DUP1 ISZERO PUSH2 0x40 JUMPI PUSH1 0x0 DUP1 REVERT JUMPDEST POP PUSH1 0x40 MLOAD PUSH2 0x4547 CODESIZE SUB DUP1 PUSH2 0x4547 DUP4 CODECOPY DUP2 ADD PUSH1 0x40 DUP2 SWAP1 MSTORE PUSH2 0x5F SWAP2 PUSH2 0x2AF JUMP JUMPDEST PUSH1 0x3 DUP5 SWAP1 SSTORE PUSH1 0x4 DUP4 SWAP1 SSTORE PUSH1 0x5 DUP3 SWAP1 SSTORE PUSH1 0x0 DUP1 SLOAD PUSH1 0x1 PUSH1 0x1 PUSH1 0xA0 SHL SUB DUP1 DUP5 AND PUSH2 0x100 MUL PUSH2 0x100 PUSH1 0x1 PUSH1 0xA8 SHL SUB NOT SWAP1 SWAP3 AND SWAP2 SWAP1 SWAP2 OR SWAP1 SWAP2 SSTORE DUP8 AND PUSH1 0x80 MSTORE PUSH2 0xA4 DUP6 DUP8 PUSH2 0xB0 JUMP JUMPDEST POP POP POP POP POP POP POP PUSH2 0x554 JUMP JUMPDEST PUSH1 0x7 SLOAD PUSH2 0xC1 SWAP1 PUSH1 0xFF AND PUSH1 0x1 PUSH2 0x386 JUMP JUMPDEST PUSH1 0xFF AND PUSH1 0x0 SUB PUSH2 0x117 JUMPI PUSH1 0x40 MLOAD PUSH3 0x461BCD PUSH1 0xE5 SHL DUP2 MSTORE PUSH1 0x20 PUSH1 0x4 DUP3 ADD DUP2 SWAP1 MSTORE PUSH1 0x24 DUP3 ADD MSTORE PUSH32 0x4E6F207370616365206C65667420666F722061206E65772063617465676F7279 PUSH1 0x44 DUP3 ADD MSTORE PUSH1 0x64 ADD PUSH1 0x40 MLOAD DUP1 SWAP2 SUB SWAP1 REVERT JUMPDEST PUSH1 0x7 SLOAD PUSH1 0x40 MLOAD PUSH1 0xFF SWAP1 SWAP2 AND SWAP1 PUSH32 0x61606860EB6C87306811E2695215385101DAAB53BD6AB4E9F9049AEAD9363C7D SWAP1 PUSH2 0x150 SWAP1 DUP6 SWAP1 PUSH2 0x3A5 JUMP JUMPDEST PUSH1 0x40 MLOAD DUP1 SWAP2 SUB SWAP1 LOG2 PUSH1 0x7 SLOAD DUP2 SWAP1 PUSH1 0x8 SWAP1 PUSH1 0xFF AND PUSH1 0x40 DUP2 LT PUSH2 0x173 JUMPI PUSH2 0x173 PUSH2 0x3D8 JUMP JUMPDEST ADD SWAP1 PUSH2 0x17F SWAP1 DUP3 PUSH2 0x477 JUMP JUMPDEST POP PUSH1 0x7 DUP1 SLOAD PUSH1 0xFF AND SWAP1 PUSH1 0x0 PUSH2 0x193 DUP4 PUSH2 0x535 JUMP JUMPDEST SWAP2 SWAP1 PUSH2 0x100 EXP DUP2 SLOAD DUP2 PUSH1 0xFF MUL NOT AND SWAP1 DUP4 PUSH1 0xFF AND MUL OR SWAP1 SSTORE POP POP POP POP JUMP JUMPDEST PUSH1 0x1 PUSH1 0x1 PUSH1 0xA0 SHL SUB DUP2 AND DUP2 EQ PUSH2 0x1C5 JUMPI PUSH1 0x0 DUP1 REVERT JUMPDEST POP JUMP JUMPDEST PUSH4 0x4E487B71 PUSH1 0xE0 SHL PUSH1 0x0 MSTORE PUSH1 0x41 PUSH1 0x4 MSTORE PUSH1 0x24 PUSH1 0x0 REVERT JUMPDEST PUSH1 0x0 JUMPDEST DUP4 DUP2 LT ISZERO PUSH2 0x1F9 JUMPI DUP2 DUP2 ADD MLOAD DUP4 DUP3 ADD MSTORE PUSH1 0x20 ADD PUSH2 0x1E1 JUMP JUMPDEST POP POP PUSH1 0x0 SWAP2 ADD MSTORE JUMP JUMPDEST PUSH1 0x0 DUP1 PUSH1 0x1 PUSH1 0x1 PUSH1 0x40 SHL SUB DUP5 GT ISZERO PUSH2 0x21C JUMPI PUSH2 0x21C PUSH2 0x1C8 JUMP JUMPDEST POP PUSH1 0x40 MLOAD PUSH1 0x1F NOT PUSH1 0x1F DUP6 ADD DUP2 AND PUSH1 0x3F ADD AND DUP2 ADD DUP2 DUP2 LT PUSH1 0x1 PUSH1 0x1 PUSH1 0x40 SHL SUB DUP3 GT OR ISZERO PUSH2 0x24A JUMPI PUSH2 0x24A PUSH2 0x1C8 JUMP JUMPDEST PUSH1 0x40 MSTORE DUP4 DUP2 MSTORE SWAP1 POP DUP1 DUP3 DUP5 ADD DUP6 LT ISZERO PUSH2 0x262 JUMPI PUSH1 0x0 DUP1 REVERT JUMPDEST PUSH2 0x270 DUP5 PUSH1 0x20 DUP4 ADD DUP6 PUSH2 0x1DE JUMP JUMPDEST POP SWAP4 SWAP3 POP POP POP JUMP JUMPDEST PUSH1 0x0 DUP3 PUSH1 0x1F DUP4 ADD SLT PUSH2 0x289 JUMPI PUSH1 0x0 DUP1 REVERT JUMPDEST PUSH2 0x298 DUP4 DUP4 MLOAD PUSH1 0x20 DUP6 ADD PUSH2 0x202 JUMP JUMPDEST SWAP4 SWAP3 POP POP POP JUMP JUMPDEST DUP1 MLOAD PUSH2 0x2AA DUP2 PUSH2 0x1B0 JUMP JUMPDEST SWAP2 SWAP1 POP JUMP JUMPDEST PUSH1 0x0 DUP1 PUSH1 0x0 DUP1 PUSH1 0x0 DUP1 PUSH1 0x0 PUSH1 0xE0 DUP9 DUP11 SUB SLT ISZERO PUSH2 0x2CA JUMPI PUSH1 0x0 DUP1 REVERT JUMPDEST DUP8 MLOAD PUSH2 0x2D5 DUP2 PUSH2 0x1B0 JUMP JUMPDEST PUSH1 0x20 DUP10 ADD MLOAD SWAP1 SWAP8 POP PUSH1 0x1 PUSH1 0x1 PUSH1 0x40 SHL SUB DUP2 GT ISZERO PUSH2 0x2F1 JUMPI PUSH1 0x0 DUP1 REVERT JUMPDEST DUP9 ADD PUSH1 0x1F DUP2 ADD DUP11 SGT PUSH2 0x302 JUMPI PUSH1 0x0 DUP1 REVERT JUMPDEST PUSH2 0x311 DUP11 DUP3 MLOAD PUSH1 0x20 DUP5 ADD PUSH2 0x202 JUMP JUMPDEST PUSH1 0x40 DUP11 ADD MLOAD SWAP1 SWAP8 POP SWAP1 POP PUSH1 0x1 PUSH1 0x1 PUSH1 0x40 SHL SUB DUP2 GT ISZERO PUSH2 0x32F JUMPI PUSH1 0x0 DUP1 REVERT JUMPDEST PUSH2 0x33B DUP11 DUP3 DUP12 ADD PUSH2 0x278 JUMP JUMPDEST PUSH1 0x60 DUP11 ADD MLOAD PUSH1 0x80 DUP12 ADD MLOAD PUSH1 0xA0 DUP13 ADD MLOAD SWAP3 SWAP9 POP SWAP1 SWAP7 POP SWAP5 POP SWAP3 POP PUSH2 0x362 SWAP1 POP PUSH1 0xC0 DUP10 ADD PUSH2 0x29F JUMP JUMPDEST SWAP1 POP SWAP3 SWAP6 SWAP9 SWAP2 SWAP5 SWAP8 POP SWAP3 SWAP6 POP JUMP JUMPDEST PUSH4 0x4E487B71 PUSH1 0xE0 SHL PUSH1 0x0 MSTORE PUSH1 0x11 PUSH1 0x4 MSTORE PUSH1 0x24 PUSH1 0x0 REVERT JUMPDEST PUSH1 0xFF DUP2 DUP2 AND DUP4 DUP3 AND ADD SWAP1 DUP2 GT ISZERO PUSH2 0x39F JUMPI PUSH2 0x39F PUSH2 0x370 JUMP JUMPDEST SWAP3 SWAP2 POP POP JUMP JUMPDEST PUSH1 0x20 DUP2 MSTORE PUSH1 0x0 DUP3 MLOAD DUP1 PUSH1 0x20 DUP5 ADD MSTORE PUSH2 0x3C4 DUP2 PUSH1 0x40 DUP6 ADD PUSH1 0x20 DUP8 ADD PUSH2 0x1DE JUMP JUMPDEST PUSH1 0x1F ADD PUSH1 0x1F NOT AND SWAP2 SWAP1 SWAP2 ADD PUSH1 0x40 ADD SWAP3 SWAP2 POP POP JUMP JUMPDEST PUSH4 0x4E487B71 PUSH1 0xE0 SHL PUSH1 0x0 MSTORE PUSH1 0x32 PUSH1 0x4 MSTORE PUSH1 0x24 PUSH1 0x0 REVERT JUMPDEST PUSH1 0x1 DUP2 DUP2 SHR SWAP1 DUP3 AND DUP1 PUSH2 0x402 JUMPI PUSH1 0x7F DUP3 AND SWAP2 POP JUMPDEST PUSH1 0x20 DUP3 LT DUP2 SUB PUSH2 0x422 JUMPI PUSH4 0x4E487B71 PUSH1 0xE0 SHL PUSH1 0x0 MSTORE PUSH1 0x22 PUSH1 0x4 MSTORE PUSH1 0x24 PUSH1 0x0 REVERT JUMPDEST POP SWAP2 SWAP1 POP JUMP JUMPDEST PUSH1 0x1F DUP3 GT ISZERO PUSH2 0x472 JUMPI DUP1 PUSH1 0x0 MSTORE PUSH1 0x20 PUSH1 0x0 KECCAK256 PUSH1 0x1F DUP5 ADD PUSH1 0x5 SHR DUP2 ADD PUSH1 0x20 DUP6 LT ISZERO PUSH2 0x44F JUMPI POP DUP1 JUMPDEST PUSH1 0x1F DUP5 ADD PUSH1 0x5 SHR DUP3 ADD SWAP2 POP JUMPDEST DUP2 DUP2 LT ISZERO PUSH2 0x46F JUMPI PUSH1 0x0 DUP2 SSTORE PUSH1 0x1 ADD PUSH2 0x45B JUMP JUMPDEST POP POP JUMPDEST POP POP POP JUMP JUMPDEST DUP2 MLOAD PUSH1 0x1 PUSH1 0x1 PUSH1 0x40 SHL SUB DUP2 GT ISZERO PUSH2 0x490 JUMPI PUSH2 0x490 PUSH2 0x1C8 JUMP JUMPDEST PUSH2 0x4A4 DUP2 PUSH2 0x49E DUP5 SLOAD PUSH2 0x3EE JUMP JUMPDEST DUP5 PUSH2 0x428 JUMP JUMPDEST PUSH1 0x20 PUSH1 0x1F DUP3 GT PUSH1 0x1 DUP2 EQ PUSH2 0x4D8 JUMPI PUSH1 0x0 DUP4 ISZERO PUSH2 0x4C0 JUMPI POP DUP5 DUP3 ADD MLOAD JUMPDEST PUSH1 0x0 NOT PUSH1 0x3 DUP6 SWAP1 SHL SHR NOT AND PUSH1 0x1 DUP5 SWAP1 SHL OR DUP5 SSTORE PUSH2 0x46F JUMP JUMPDEST PUSH1 0x0 DUP5 DUP2 MSTORE PUSH1 0x20 DUP2 KECCAK256 PUSH1 0x1F NOT DUP6 AND SWAP2 JUMPDEST DUP3 DUP2 LT ISZERO PUSH2 0x508 JUMPI DUP8 DUP6 ADD MLOAD DUP3 SSTORE PUSH1 0x20 SWAP5 DUP6 ADD SWAP5 PUSH1 0x1 SWAP1 SWAP3 ADD SWAP2 ADD PUSH2 0x4E8 JUMP JUMPDEST POP DUP5 DUP3 LT ISZERO PUSH2 0x526 JUMPI DUP7 DUP5 ADD MLOAD PUSH1 0x0 NOT PUSH1 0x3 DUP8 SWAP1 SHL PUSH1 0xF8 AND SHR NOT AND DUP2 SSTORE JUMPDEST POP POP POP POP PUSH1 0x1 SWAP1 DUP2 SHL ADD SWAP1 SSTORE POP JUMP JUMPDEST PUSH1 0x0 PUSH1 0xFF DUP3 AND PUSH1 0xFF DUP2 SUB PUSH2 0x54B JUMPI PUSH2 0x54B PUSH2 0x370 JUMP JUMPDEST PUSH1 0x1 ADD SWAP3 SWAP2 POP POP JUMP JUMPDEST PUSH1 0x80 MLOAD PUSH2 0x3F7D PUSH2 0x5CA PUSH1 0x0 CODECOPY PUSH1 0x0 DUP2 DUP2 PUSH2 0x670 ADD MSTORE DUP2 DUP2 PUSH2 0xC05 ADD MSTORE DUP2 DUP2 PUSH2 0xD83 ADD MSTORE DUP2 DUP2 PUSH2 0xE41 ADD MSTORE DUP2 DUP2 PUSH2 0xECF ADD MSTORE DUP2 DUP2 PUSH2 0x10B4 ADD MSTORE DUP2 DUP2 PUSH2 0x14F1 ADD MSTORE DUP2 DUP2 PUSH2 0x162C ADD MSTORE DUP2 DUP2 PUSH2 0x17B2 ADD MSTORE DUP2 DUP2 PUSH2 0x1A60 ADD MSTORE DUP2 DUP2 PUSH2 0x1E42 ADD MSTORE DUP2 DUP2 PUSH2 0x206B ADD MSTORE DUP2 DUP2 PUSH2 0x23BA ADD MSTORE PUSH2 0x24B4 ADD MSTORE PUSH2 0x3F7D PUSH1 0x0 RETURN INVALID PUSH1 0x80 PUSH1 0x40 MSTORE PUSH1 0x4 CALLDATASIZE LT PUSH2 0x31E JUMPI PUSH1 0x0 CALLDATALOAD PUSH1 0xE0 SHR DUP1 PUSH4 0xA509EFEB GT PUSH2 0x1A5 JUMPI DUP1 PUSH4 0xC9330C0F GT PUSH2 0xEC JUMPI DUP1 PUSH4 0xE349AD30 GT PUSH2 0x95 JUMPI DUP1 PUSH4 0xFAA0BA9D GT PUSH2 0x6F JUMPI DUP1 PUSH4 0xFAA0BA9D EQ PUSH2 0x9C0 JUMPI DUP1 PUSH4 0xFC0AC672 EQ PUSH2 0x9D3 JUMPI DUP1 PUSH4 0xFE6CA782 EQ PUSH2 0x9E9 JUMPI DUP1 PUSH4 0xFFA1AD74 EQ PUSH2 0x9FF JUMPI PUSH1 0x0 DUP1 REVERT JUMPDEST DUP1 PUSH4 0xE349AD30 EQ PUSH2 0x965 JUMPI DUP1 PUSH4 0xEC4ADCA9 EQ PUSH2 0x97B JUMPI DUP1 PUSH4 0xF851A440 EQ PUSH2 0x99B JUMPI PUSH1 0x0 DUP1 REVERT JUMPDEST DUP1 PUSH4 0xD970D18C GT PUSH2 0xC6 JUMPI DUP1 PUSH4 0xD970D18C EQ PUSH2 0x910 JUMPI DUP1 PUSH4 0xDC227FC2 EQ PUSH2 0x925 JUMPI DUP1 PUSH4 0xE165720C EQ PUSH2 0x945 JUMPI PUSH1 0x0 DUP1 REVERT JUMPDEST DUP1 PUSH4 0xC9330C0F EQ PUSH2 0x8BA JUMPI DUP1 PUSH4 0xC94828F0 EQ PUSH2 0x8DA JUMPI DUP1 PUSH4 0xD3B476B1 EQ PUSH2 0x8FA JUMPI PUSH1 0x0 DUP1 REVERT JUMPDEST DUP1 PUSH4 0xB34BFAA8 GT PUSH2 0x14E JUMPI DUP1 PUSH4 0xBA0EC60B GT PUSH2 0x128 JUMPI DUP1 PUSH4 0xBA0EC60B EQ PUSH2 0x86F JUMPI DUP1 PUSH4 0xBA4C8F8F EQ PUSH2 0x884 JUMPI DUP1 PUSH4 0xBE467604 EQ PUSH2 0x8A4 JUMPI PUSH1 0x0 DUP1 REVERT JUMPDEST DUP1 PUSH4 0xB34BFAA8 EQ PUSH2 0x824 JUMPI DUP1 PUSH4 0xB4C70581 EQ PUSH2 0x83A JUMPI DUP1 PUSH4 0xB7BDDC72 EQ PUSH2 0x85A JUMPI PUSH1 0x0 DUP1 REVERT JUMPDEST DUP1 PUSH4 0xADC7FABA GT PUSH2 0x17F JUMPI DUP1 PUSH4 0xADC7FABA EQ PUSH2 0x7B6 JUMPI DUP1 PUSH4 0xAF4A9144 EQ PUSH2 0x7D6 JUMPI DUP1 PUSH4 0xB14F2A39 EQ PUSH2 0x804 JUMPI PUSH1 0x0 DUP1 REVERT JUMPDEST DUP1 PUSH4 0xA509EFEB EQ PUSH2 0x756 JUMPI DUP1 PUSH4 0xA6A7F0EB EQ PUSH2 0x776 JUMPI DUP1 PUSH4 0xA92C4707 EQ PUSH2 0x796 JUMPI PUSH1 0x0 DUP1 REVERT JUMPDEST DUP1 PUSH4 0x4DE12DB0 GT PUSH2 0x269 JUMPI DUP1 PUSH4 0x7597B3CB GT PUSH2 0x212 JUMPI DUP1 PUSH4 0x8F283970 GT PUSH2 0x1EC JUMPI DUP1 PUSH4 0x8F283970 EQ PUSH2 0x6F6 JUMPI DUP1 PUSH4 0x92239DFF EQ PUSH2 0x716 JUMPI DUP1 PUSH4 0x92E25925 EQ PUSH2 0x736 JUMPI PUSH1 0x0 DUP1 REVERT JUMPDEST DUP1 PUSH4 0x7597B3CB EQ PUSH2 0x692 JUMPI DUP1 PUSH4 0x7F67BD6C EQ PUSH2 0x6A7 JUMPI DUP1 PUSH4 0x8A9BB02A EQ PUSH2 0x6C7 JUMPI PUSH1 0x0 DUP1 REVERT JUMPDEST DUP1 PUSH4 0x67284F21 GT PUSH2 0x243 JUMPI DUP1 PUSH4 0x67284F21 EQ PUSH2 0x61E JUMPI DUP1 PUSH4 0x6760AEB0 EQ PUSH2 0x63E JUMPI DUP1 PUSH4 0x68871C9C EQ PUSH2 0x65E JUMPI PUSH1 0x0 DUP1 REVERT JUMPDEST DUP1 PUSH4 0x4DE12DB0 EQ PUSH2 0x541 JUMPI DUP1 PUSH4 0x564A565D EQ PUSH2 0x56E JUMPI DUP1 PUSH4 0x638AF3DA EQ PUSH2 0x5E9 JUMPI PUSH1 0x0 DUP1 REVERT JUMPDEST DUP1 PUSH4 0x311A6C56 GT PUSH2 0x2CB JUMPI DUP1 PUSH4 0x3E556162 GT PUSH2 0x2A5 JUMPI DUP1 PUSH4 0x3E556162 EQ PUSH2 0x46D JUMPI DUP1 PUSH4 0x44B9AD06 EQ PUSH2 0x50E JUMPI DUP1 PUSH4 0x4C55C000 EQ PUSH2 0x521 JUMPI PUSH1 0x0 DUP1 REVERT JUMPDEST DUP1 PUSH4 0x311A6C56 EQ PUSH2 0x417 JUMPI DUP1 PUSH4 0x313DAB20 EQ PUSH2 0x437 JUMPI DUP1 PUSH4 0x37641483 EQ PUSH2 0x44D JUMPI PUSH1 0x0 DUP1 REVERT JUMPDEST DUP1 PUSH4 0x1E26DE34 GT PUSH2 0x2FC JUMPI DUP1 PUSH4 0x1E26DE34 EQ PUSH2 0x38C JUMPI DUP1 PUSH4 0x26804BEF EQ PUSH2 0x3BA JUMPI DUP1 PUSH4 0x2D2C5565 EQ PUSH2 0x3DA JUMPI PUSH1 0x0 DUP1 REVERT JUMPDEST DUP1 PUSH4 0x3624FC0 EQ PUSH2 0x323 JUMPI DUP1 PUSH4 0x12A145E1 EQ PUSH2 0x354 JUMPI DUP1 PUSH4 0x12B3A2C0 EQ PUSH2 0x369 JUMPI JUMPDEST PUSH1 0x0 DUP1 REVERT JUMPDEST CALLVALUE DUP1 ISZERO PUSH2 0x32F JUMPI PUSH1 0x0 DUP1 REVERT JUMPDEST POP PUSH1 0x7 SLOAD PUSH2 0x33D SWAP1 PUSH1 0xFF AND DUP2 JUMP JUMPDEST PUSH1 0x40 MLOAD PUSH1 0xFF SWAP1 SWAP2 AND DUP2 MSTORE PUSH1 0x20 ADD JUMPDEST PUSH1 0x40 MLOAD DUP1 SWAP2 SUB SWAP1 RETURN JUMPDEST PUSH2 0x367 PUSH2 0x362 CALLDATASIZE PUSH1 0x4 PUSH2 0x34D4 JUMP JUMPDEST PUSH2 0xA48 JUMP JUMPDEST STOP JUMPDEST PUSH2 0x37C PUSH2 0x377 CALLDATASIZE PUSH1 0x4 PUSH2 0x34FE JUMP JUMPDEST PUSH2 0xE1B JUMP JUMPDEST PUSH1 0x40 MLOAD SWAP1 ISZERO ISZERO DUP2 MSTORE PUSH1 0x20 ADD PUSH2 0x34B JUMP JUMPDEST CALLVALUE DUP1 ISZERO PUSH2 0x398 JUMPI PUSH1 0x0 DUP1 REVERT JUMPDEST POP PUSH2 0x3AC PUSH2 0x3A7 CALLDATASIZE PUSH1 0x4 PUSH2 0x352A JUMP JUMPDEST PUSH2 0x1617 JUMP JUMPDEST PUSH1 0x40 MLOAD SWAP1 DUP2 MSTORE PUSH1 0x20 ADD PUSH2 0x34B JUMP JUMPDEST CALLVALUE DUP1 ISZERO PUSH2 0x3C6 JUMPI PUSH1 0x0 DUP1 REVERT JUMPDEST POP PUSH2 0x367 PUSH2 0x3D5 CALLDATASIZE PUSH1 0x4 PUSH2 0x352A JUMP JUMPDEST PUSH2 0x16E0 JUMP JUMPDEST CALLVALUE DUP1 ISZERO PUSH2 0x3E6 JUMPI PUSH1 0x0 DUP1 REVERT JUMPDEST POP PUSH1 0x0 SLOAD PUSH2 0x3FF SWAP1 PUSH2 0x100 SWAP1 DIV PUSH1 0x1 PUSH1 0x1 PUSH1 0xA0 SHL SUB AND DUP2 JUMP JUMPDEST PUSH1 0x40 MLOAD PUSH1 0x1 PUSH1 0x1 PUSH1 0xA0 SHL SUB SWAP1 SWAP2 AND DUP2 MSTORE PUSH1 0x20 ADD PUSH2 0x34B JUMP JUMPDEST CALLVALUE DUP1 ISZERO PUSH2 0x423 JUMPI PUSH1 0x0 DUP1 REVERT JUMPDEST POP PUSH2 0x367 PUSH2 0x432 CALLDATASIZE PUSH1 0x4 PUSH2 0x3543 JUMP JUMPDEST PUSH2 0x17A7 JUMP JUMPDEST CALLVALUE DUP1 ISZERO PUSH2 0x443 JUMPI PUSH1 0x0 DUP1 REVERT JUMPDEST POP PUSH2 0x3AC PUSH1 0x1 SLOAD DUP2 JUMP JUMPDEST CALLVALUE DUP1 ISZERO PUSH2 0x459 JUMPI PUSH1 0x0 DUP1 REVERT JUMPDEST POP PUSH2 0x3AC PUSH2 0x468 CALLDATASIZE PUSH1 0x4 PUSH2 0x34D4 JUMP JUMPDEST PUSH2 0x1A3D JUMP JUMPDEST CALLVALUE DUP1 ISZERO PUSH2 0x479 JUMPI PUSH1 0x0 DUP1 REVERT JUMPDEST POP PUSH2 0x4CE PUSH2 0x488 CALLDATASIZE PUSH1 0x4 PUSH2 0x34D4 JUMP JUMPDEST PUSH1 0x48 PUSH1 0x20 MSTORE PUSH1 0x0 SWAP1 DUP2 MSTORE PUSH1 0x40 SWAP1 KECCAK256 SLOAD PUSH1 0x1 PUSH1 0x1 PUSH1 0xA0 SHL SUB DUP2 AND SWAP1 PUSH1 0x1 PUSH1 0xA0 SHL DUP2 DIV PUSH4 0xFFFFFFFF AND SWAP1 PUSH1 0x1 PUSH1 0xC0 SHL DUP2 DIV PUSH7 0xFFFFFFFFFFFFFF AND SWAP1 PUSH1 0x1 PUSH1 0xF8 SHL SWAP1 DIV PUSH1 0xFF AND DUP5 JUMP JUMPDEST PUSH1 0x40 DUP1 MLOAD PUSH1 0x1 PUSH1 0x1 PUSH1 0xA0 SHL SUB SWAP1 SWAP6 AND DUP6 MSTORE PUSH4 0xFFFFFFFF SWAP1 SWAP4 AND PUSH1 0x20 DUP6 ADD MSTORE PUSH7 0xFFFFFFFFFFFFFF SWAP1 SWAP2 AND SWAP2 DUP4 ADD SWAP2 SWAP1 SWAP2 MSTORE PUSH1 0xFF AND PUSH1 0x60 DUP3 ADD MSTORE PUSH1 0x80 ADD PUSH2 0x34B JUMP JUMPDEST PUSH2 0x367 PUSH2 0x51C CALLDATASIZE PUSH1 0x4 PUSH2 0x34D4 JUMP JUMPDEST PUSH2 0x1B58 JUMP JUMPDEST CALLVALUE DUP1 ISZERO PUSH2 0x52D JUMPI PUSH1 0x0 DUP1 REVERT JUMPDEST POP PUSH2 0x367 PUSH2 0x53C CALLDATASIZE PUSH1 0x4 PUSH2 0x35F5 JUMP JUMPDEST PUSH2 0x1C9E JUMP JUMPDEST CALLVALUE DUP1 ISZERO PUSH2 0x54D JUMPI PUSH1 0x0 DUP1 REVERT JUMPDEST POP PUSH2 0x561 PUSH2 0x55C CALLDATASIZE PUSH1 0x4 PUSH2 0x352A JUMP JUMPDEST PUSH2 0x1D9A JUMP JUMPDEST PUSH1 0x40 MLOAD PUSH2 0x34B SWAP2 SWAP1 PUSH2 0x36CC JUMP JUMPDEST CALLVALUE DUP1 ISZERO PUSH2 0x57A JUMPI PUSH1 0x0 DUP1 REVERT JUMPDEST POP PUSH2 0x5D8 PUSH2 0x589 CALLDATASIZE PUSH1 0x4 PUSH2 0x352A JUMP JUMPDEST PUSH1 0x49 PUSH1 0x20 MSTORE PUSH1 0x0 SWAP1 DUP2 MSTORE PUSH1 0x40 SWAP1 KECCAK256 SLOAD PUSH1 0x1 PUSH1 0x1 PUSH1 0xA0 SHL SUB DUP2 AND SWAP1 PUSH1 0xFF PUSH1 0x1 PUSH1 0xA0 SHL DUP3 DIV DUP2 AND SWAP2 PUSH1 0x1 PUSH1 0xA8 SHL DUP2 DIV DUP3 AND SWAP2 PUSH1 0x1 PUSH1 0xB0 SHL DUP3 DIV AND SWAP1 PUSH9 0xFFFFFFFFFFFFFFFFFF PUSH1 0x1 PUSH1 0xB8 SHL SWAP1 SWAP2 DIV AND DUP6 JUMP JUMPDEST PUSH1 0x40 MLOAD PUSH2 0x34B SWAP6 SWAP5 SWAP4 SWAP3 SWAP2 SWAP1 PUSH2 0x3717 JUMP JUMPDEST CALLVALUE DUP1 ISZERO PUSH2 0x5F5 JUMPI PUSH1 0x0 DUP1 REVERT JUMPDEST POP PUSH2 0x609 PUSH2 0x604 CALLDATASIZE PUSH1 0x4 PUSH2 0x34FE JUMP JUMPDEST PUSH2 0x1E3A JUMP JUMPDEST PUSH1 0x40 DUP1 MLOAD SWAP3 DUP4 MSTORE PUSH1 0x20 DUP4 ADD SWAP2 SWAP1 SWAP2 MSTORE ADD PUSH2 0x34B JUMP JUMPDEST CALLVALUE DUP1 ISZERO PUSH2 0x62A JUMPI PUSH1 0x0 DUP1 REVERT JUMPDEST POP PUSH2 0x367 PUSH2 0x639 CALLDATASIZE PUSH1 0x4 PUSH2 0x3775 JUMP JUMPDEST PUSH2 0x1F67 JUMP JUMPDEST CALLVALUE DUP1 ISZERO PUSH2 0x64A JUMPI PUSH1 0x0 DUP1 REVERT JUMPDEST POP PUSH2 0x367 PUSH2 0x659 CALLDATASIZE PUSH1 0x4 PUSH2 0x3802 JUMP JUMPDEST PUSH2 0x2017 JUMP JUMPDEST CALLVALUE DUP1 ISZERO PUSH2 0x66A JUMPI PUSH1 0x0 DUP1 REVERT JUMPDEST POP PUSH2 0x3FF PUSH32 0x0 DUP2 JUMP JUMPDEST CALLVALUE DUP1 ISZERO PUSH2 0x69E JUMPI PUSH1 0x0 DUP1 REVERT JUMPDEST POP PUSH2 0x3AC PUSH1 0x2 DUP2 JUMP JUMPDEST CALLVALUE DUP1 ISZERO PUSH2 0x6B3 JUMPI PUSH1 0x0 DUP1 REVERT JUMPDEST POP PUSH2 0x3AC PUSH2 0x6C2 CALLDATASIZE PUSH1 0x4 PUSH2 0x352A JUMP JUMPDEST PUSH2 0x2052 JUMP JUMPDEST CALLVALUE DUP1 ISZERO PUSH2 0x6D3 JUMPI PUSH1 0x0 DUP1 REVERT JUMPDEST POP PUSH2 0x6E7 PUSH2 0x6E2 CALLDATASIZE PUSH1 0x4 PUSH2 0x3543 JUMP JUMPDEST PUSH2 0x20DE JUMP JUMPDEST PUSH1 0x40 MLOAD PUSH2 0x34B SWAP4 SWAP3 SWAP2 SWAP1 PUSH2 0x383E JUMP JUMPDEST CALLVALUE DUP1 ISZERO PUSH2 0x702 JUMPI PUSH1 0x0 DUP1 REVERT JUMPDEST POP PUSH2 0x367 PUSH2 0x711 CALLDATASIZE PUSH1 0x4 PUSH2 0x38A3 JUMP JUMPDEST PUSH2 0x21CE JUMP JUMPDEST CALLVALUE DUP1 ISZERO PUSH2 0x722 JUMPI PUSH1 0x0 DUP1 REVERT JUMPDEST POP PUSH2 0x367 PUSH2 0x731 CALLDATASIZE PUSH1 0x4 PUSH2 0x352A JUMP JUMPDEST PUSH2 0x2249 JUMP JUMPDEST CALLVALUE DUP1 ISZERO PUSH2 0x742 JUMPI PUSH1 0x0 DUP1 REVERT JUMPDEST POP PUSH2 0x367 PUSH2 0x751 CALLDATASIZE PUSH1 0x4 PUSH2 0x352A JUMP JUMPDEST PUSH2 0x2298 JUMP JUMPDEST CALLVALUE DUP1 ISZERO PUSH2 0x762 JUMPI PUSH1 0x0 DUP1 REVERT JUMPDEST POP PUSH2 0x3AC PUSH2 0x771 CALLDATASIZE PUSH1 0x4 PUSH2 0x34FE JUMP JUMPDEST PUSH2 0x22E7 JUMP JUMPDEST CALLVALUE DUP1 ISZERO PUSH2 0x782 JUMPI PUSH1 0x0 DUP1 REVERT JUMPDEST POP PUSH2 0x367 PUSH2 0x791 CALLDATASIZE PUSH1 0x4 PUSH2 0x3900 JUMP JUMPDEST PUSH2 0x24A7 JUMP JUMPDEST CALLVALUE DUP1 ISZERO PUSH2 0x7A2 JUMPI PUSH1 0x0 DUP1 REVERT JUMPDEST POP PUSH2 0x367 PUSH2 0x7B1 CALLDATASIZE PUSH1 0x4 PUSH2 0x34D4 JUMP JUMPDEST PUSH2 0x251A JUMP JUMPDEST CALLVALUE DUP1 ISZERO PUSH2 0x7C2 JUMPI PUSH1 0x0 DUP1 REVERT JUMPDEST POP PUSH2 0x367 PUSH2 0x7D1 CALLDATASIZE PUSH1 0x4 PUSH2 0x352A JUMP JUMPDEST PUSH2 0x2753 JUMP JUMPDEST CALLVALUE DUP1 ISZERO PUSH2 0x7E2 JUMPI PUSH1 0x0 DUP1 REVERT JUMPDEST POP PUSH2 0x7F6 PUSH2 0x7F1 CALLDATASIZE PUSH1 0x4 PUSH2 0x394C JUMP JUMPDEST PUSH2 0x27A2 JUMP JUMPDEST PUSH1 0x40 MLOAD PUSH2 0x34B SWAP3 SWAP2 SWAP1 PUSH2 0x396F JUMP JUMPDEST CALLVALUE DUP1 ISZERO PUSH2 0x810 JUMPI PUSH1 0x0 DUP1 REVERT JUMPDEST POP PUSH2 0x367 PUSH2 0x81F CALLDATASIZE PUSH1 0x4 PUSH2 0x38A3 JUMP JUMPDEST PUSH2 0x2981 JUMP JUMPDEST CALLVALUE DUP1 ISZERO PUSH2 0x830 JUMPI PUSH1 0x0 DUP1 REVERT JUMPDEST POP PUSH2 0x3AC PUSH1 0x5 SLOAD DUP2 JUMP JUMPDEST CALLVALUE DUP1 ISZERO PUSH2 0x846 JUMPI PUSH1 0x0 DUP1 REVERT JUMPDEST POP PUSH2 0x3AC PUSH2 0x855 CALLDATASIZE PUSH1 0x4 PUSH2 0x3A05 JUMP JUMPDEST PUSH2 0x29FA JUMP JUMPDEST CALLVALUE DUP1 ISZERO PUSH2 0x866 JUMPI PUSH1 0x0 DUP1 REVERT JUMPDEST POP PUSH2 0x367 PUSH2 0x2A84 JUMP JUMPDEST CALLVALUE DUP1 ISZERO PUSH2 0x87B JUMPI PUSH1 0x0 DUP1 REVERT JUMPDEST POP PUSH2 0x367 PUSH2 0x2AE9 JUMP JUMPDEST CALLVALUE DUP1 ISZERO PUSH2 0x890 JUMPI PUSH1 0x0 DUP1 REVERT JUMPDEST POP PUSH2 0x367 PUSH2 0x89F CALLDATASIZE PUSH1 0x4 PUSH2 0x34D4 JUMP JUMPDEST PUSH2 0x2B19 JUMP JUMPDEST CALLVALUE DUP1 ISZERO PUSH2 0x8B0 JUMPI PUSH1 0x0 DUP1 REVERT JUMPDEST POP PUSH2 0x3AC PUSH1 0x2 SLOAD DUP2 JUMP JUMPDEST CALLVALUE DUP1 ISZERO PUSH2 0x8C6 JUMPI PUSH1 0x0 DUP1 REVERT JUMPDEST POP PUSH2 0x367 PUSH2 0x8D5 CALLDATASIZE PUSH1 0x4 PUSH2 0x394C JUMP JUMPDEST PUSH2 0x2C82 JUMP JUMPDEST CALLVALUE DUP1 ISZERO PUSH2 0x8E6 JUMPI PUSH1 0x0 DUP1 REVERT JUMPDEST POP PUSH2 0x367 PUSH2 0x8F5 CALLDATASIZE PUSH1 0x4 PUSH2 0x352A JUMP JUMPDEST PUSH2 0x2CDF JUMP JUMPDEST CALLVALUE DUP1 ISZERO PUSH2 0x906 JUMPI PUSH1 0x0 DUP1 REVERT JUMPDEST POP PUSH2 0x3AC PUSH1 0x3 SLOAD DUP2 JUMP JUMPDEST CALLVALUE DUP1 ISZERO PUSH2 0x91C JUMPI PUSH1 0x0 DUP1 REVERT JUMPDEST POP PUSH2 0x3AC PUSH1 0x20 DUP2 JUMP JUMPDEST CALLVALUE DUP1 ISZERO PUSH2 0x931 JUMPI PUSH1 0x0 DUP1 REVERT JUMPDEST POP PUSH2 0x3AC PUSH2 0x940 CALLDATASIZE PUSH1 0x4 PUSH2 0x3A2F JUMP JUMPDEST PUSH2 0x2D2E JUMP JUMPDEST CALLVALUE DUP1 ISZERO PUSH2 0x951 JUMPI PUSH1 0x0 DUP1 REVERT JUMPDEST POP PUSH2 0x3AC PUSH2 0x960 CALLDATASIZE PUSH1 0x4 PUSH2 0x34D4 JUMP JUMPDEST PUSH2 0x2E92 JUMP JUMPDEST CALLVALUE DUP1 ISZERO PUSH2 0x971 JUMPI PUSH1 0x0 DUP1 REVERT JUMPDEST POP PUSH2 0x3AC PUSH1 0x4 SLOAD DUP2 JUMP JUMPDEST CALLVALUE DUP1 ISZERO PUSH2 0x987 JUMPI PUSH1 0x0 DUP1 REVERT JUMPDEST POP PUSH2 0x367 PUSH2 0x996 CALLDATASIZE PUSH1 0x4 PUSH2 0x3A75 JUMP JUMPDEST PUSH2 0x2F11 JUMP JUMPDEST CALLVALUE DUP1 ISZERO PUSH2 0x9A7 JUMPI PUSH1 0x0 DUP1 REVERT JUMPDEST POP PUSH1 0x7 SLOAD PUSH2 0x3FF SWAP1 PUSH2 0x100 SWAP1 DIV PUSH1 0x1 PUSH1 0x1 PUSH1 0xA0 SHL SUB AND DUP2 JUMP JUMPDEST PUSH2 0x367 PUSH2 0x9CE CALLDATASIZE PUSH1 0x4 PUSH2 0x3A9F JUMP JUMPDEST PUSH2 0x300B JUMP JUMPDEST CALLVALUE DUP1 ISZERO PUSH2 0x9DF JUMPI PUSH1 0x0 DUP1 REVERT JUMPDEST POP PUSH2 0x3AC PUSH1 0x6 SLOAD DUP2 JUMP JUMPDEST CALLVALUE DUP1 ISZERO PUSH2 0x9F5 JUMPI PUSH1 0x0 DUP1 REVERT JUMPDEST POP PUSH2 0x3AC PUSH2 0x400 DUP2 JUMP JUMPDEST CALLVALUE DUP1 ISZERO PUSH2 0xA0B JUMPI PUSH1 0x0 DUP1 REVERT JUMPDEST POP PUSH2 0x561 PUSH1 0x40 MLOAD DUP1 PUSH1 0x40 ADD PUSH1 0x40 MSTORE DUP1 PUSH1 0x5 DUP2 MSTORE PUSH1 0x20 ADD PUSH32 0x312E322E30000000000000000000000000000000000000000000000000000000 DUP2 MSTORE POP DUP2 JUMP JUMPDEST PUSH9 0xFFFFFFFFFFFFFFFFFF DUP2 AND PUSH1 0x0 SWAP1 DUP2 MSTORE PUSH1 0x48 PUSH1 0x20 MSTORE PUSH1 0x40 SWAP1 KECCAK256 DUP1 SLOAD PUSH1 0x1 PUSH1 0xC0 SHL SWAP1 DIV PUSH7 0xFFFFFFFFFFFFFF AND PUSH2 0xAC5 JUMPI PUSH1 0x40 MLOAD PUSH3 0x461BCD PUSH1 0xE5 SHL DUP2 MSTORE PUSH1 0x20 PUSH1 0x4 DUP3 ADD MSTORE PUSH1 0x15 PUSH1 0x24 DUP3 ADD MSTORE PUSH32 0x4E6F7468696E6720746F206368616C6C656E67652E0000000000000000000000 PUSH1 0x44 DUP3 ADD MSTORE PUSH1 0x64 ADD JUMPDEST PUSH1 0x40 MLOAD DUP1 SWAP2 SUB SWAP1 REVERT JUMPDEST DUP1 SLOAD PUSH4 0xFFFFFFFE NOT PUSH1 0x1 PUSH1 0xA0 SHL SWAP1 SWAP2 DIV PUSH4 0xFFFFFFFF AND ADD PUSH2 0xB28 JUMPI PUSH1 0x40 MLOAD PUSH3 0x461BCD PUSH1 0xE5 SHL DUP2 MSTORE PUSH1 0x20 PUSH1 0x4 DUP3 ADD MSTORE PUSH1 0x1E PUSH1 0x24 DUP3 ADD MSTORE PUSH32 0x546865726520697320616E206F6E676F696E67206368616C6C656E67652E0000 PUSH1 0x44 DUP3 ADD MSTORE PUSH1 0x64 ADD PUSH2 0xABC JUMP JUMPDEST DUP1 SLOAD PUSH4 0xFFFFFFFF PUSH1 0xA0 SHL NOT AND PUSH24 0xFFFFFFFF0000000000000000000000000000000000000000 OR DUP2 SSTORE PUSH2 0xB59 DUP3 PUSH2 0x1A3D JUMP JUMPDEST CALLVALUE LT ISZERO PUSH2 0xBA8 JUMPI PUSH1 0x40 MLOAD PUSH3 0x461BCD PUSH1 0xE5 SHL DUP2 MSTORE PUSH1 0x20 PUSH1 0x4 DUP3 ADD DUP2 SWAP1 MSTORE PUSH1 0x24 DUP3 ADD MSTORE PUSH32 0x496E73756666696369656E742066756E647320746F206368616C6C656E67652E PUSH1 0x44 DUP3 ADD MSTORE PUSH1 0x64 ADD PUSH2 0xABC JUMP JUMPDEST PUSH1 0x6 SLOAD DUP2 SLOAD PUSH1 0x0 SWAP2 PUSH2 0x400 SWAP2 PUSH2 0xBD5 SWAP2 SWAP1 PUSH1 0x1 PUSH1 0xC0 SHL SWAP1 DIV PUSH1 0x20 SHL PUSH11 0xFFFFFFFFFFFFFF00000000 AND PUSH2 0x3B16 JUMP JUMPDEST PUSH2 0xBDF SWAP2 SWAP1 PUSH2 0x3B2D JUMP JUMPDEST SWAP1 POP DUP1 PUSH1 0x1 PUSH1 0x0 DUP3 DUP3 SLOAD PUSH2 0xBF3 SWAP2 SWAP1 PUSH2 0x3B4F JUMP JUMPDEST SWAP1 SWAP2 SSTORE POP PUSH1 0x0 SWAP1 POP PUSH1 0x1 PUSH1 0x1 PUSH1 0xA0 SHL SUB PUSH32 0x0 AND PUSH4 0xC13517E1 PUSH2 0xC34 DUP5 CALLVALUE PUSH2 0x3B62 JUMP JUMPDEST DUP6 SLOAD PUSH1 0x2 SWAP1 PUSH1 0x8 SWAP1 PUSH1 0x1 PUSH1 0xF8 SHL SWAP1 DIV PUSH1 0xFF AND PUSH1 0x40 DUP2 LT PUSH2 0xC56 JUMPI PUSH2 0xC56 PUSH2 0x3B75 JUMP JUMPDEST ADD PUSH1 0x40 MLOAD DUP5 PUSH4 0xFFFFFFFF AND PUSH1 0xE0 SHL DUP2 MSTORE PUSH1 0x4 ADD PUSH2 0xC74 SWAP3 SWAP2 SWAP1 PUSH2 0x3C48 JUMP JUMPDEST PUSH1 0x20 PUSH1 0x40 MLOAD DUP1 DUP4 SUB DUP2 DUP6 DUP9 GAS CALL ISZERO DUP1 ISZERO PUSH2 0xC92 JUMPI RETURNDATASIZE PUSH1 0x0 DUP1 RETURNDATACOPY RETURNDATASIZE PUSH1 0x0 REVERT JUMPDEST POP POP POP POP POP PUSH1 0x40 MLOAD RETURNDATASIZE PUSH1 0x1F NOT PUSH1 0x1F DUP3 ADD AND DUP3 ADD DUP1 PUSH1 0x40 MSTORE POP DUP2 ADD SWAP1 PUSH2 0xCB7 SWAP2 SWAP1 PUSH2 0x3C69 JUMP JUMPDEST PUSH1 0x0 DUP2 DUP2 MSTORE PUSH1 0x49 PUSH1 0x20 SWAP1 DUP2 MSTORE PUSH1 0x40 SWAP2 DUP3 SWAP1 KECCAK256 DUP1 SLOAD PUSH1 0x1 DUP1 DUP4 ADD DUP1 SLOAD SWAP1 SWAP2 ADD SWAP1 SSTORE PUSH23 0xFFFFFF0000000000000000000000000000000000000000 AND CALLER PUSH23 0xFFFFFFFFFFFFFFFFFFFFFFFFFFFFFFFFFFFFFFFFFFFFFF AND OR PUSH1 0x1 PUSH1 0xB8 SHL PUSH9 0xFFFFFFFFFFFFFFFFFF DUP11 AND MUL OR DUP1 DUP3 SSTORE DUP8 SLOAD PUSH32 0xFFFFFFFFFFFFFFFFFFFF00FFFFFFFFFFFFFFFFFFFFFFFFFFFFFFFFFFFFFFFFFF SWAP1 SWAP2 AND PUSH1 0x1 PUSH1 0xF8 SHL SWAP2 DUP3 SWAP1 DIV PUSH1 0xFF SWAP1 DUP2 AND PUSH1 0x1 PUSH1 0xA8 SHL MUL SWAP2 SWAP1 SWAP2 OR SWAP1 SWAP3 SSTORE DUP8 SLOAD DUP5 MLOAD SWAP2 SWAP1 DIV SWAP1 SWAP2 AND DUP2 MSTORE SWAP1 DUP2 ADD DUP4 SWAP1 MSTORE SWAP2 SWAP3 POP DUP3 SWAP2 PUSH1 0x1 PUSH1 0x1 PUSH1 0xA0 SHL SUB PUSH32 0x0 AND SWAP2 PUSH32 0x74BAAB670A4015AB2F1B467C5252A96141A2573F2908E58A92081E80D3CFDE3D SWAP2 ADD PUSH1 0x40 MLOAD DUP1 SWAP2 SUB SWAP1 LOG3 PUSH1 0x40 DUP1 MLOAD CALLER DUP2 MSTORE PUSH1 0x20 DUP2 ADD DUP4 SWAP1 MSTORE PUSH9 0xFFFFFFFFFFFFFFFFFF DUP7 AND SWAP2 PUSH32 0x1E5338A1FB672AA84963DC9F9E4AFD009B4ED726DEBB09224BF4D02A6C68B4E4 SWAP2 ADD PUSH1 0x40 MLOAD DUP1 SWAP2 SUB SWAP1 LOG2 POP POP POP POP JUMP JUMPDEST PUSH1 0x0 DUP3 DUP2 MSTORE PUSH1 0x49 PUSH1 0x20 MSTORE PUSH1 0x40 DUP1 DUP3 KECCAK256 SWAP1 MLOAD PUSH4 0x1C3DB16D PUSH1 0xE0 SHL DUP2 MSTORE PUSH1 0x4 DUP2 ADD DUP6 SWAP1 MSTORE DUP3 SWAP1 PUSH32 0x0 PUSH1 0x1 PUSH1 0x1 PUSH1 0xA0 SHL SUB AND SWAP1 PUSH4 0x1C3DB16D SWAP1 PUSH1 0x24 ADD PUSH1 0x20 PUSH1 0x40 MLOAD DUP1 DUP4 SUB DUP2 DUP7 GAS STATICCALL ISZERO DUP1 ISZERO PUSH2 0xE90 JUMPI RETURNDATASIZE PUSH1 0x0 DUP1 RETURNDATACOPY RETURNDATASIZE PUSH1 0x0 REVERT JUMPDEST POP POP POP POP PUSH1 0x40 MLOAD RETURNDATASIZE PUSH1 0x1F NOT PUSH1 0x1F DUP3 ADD AND DUP3 ADD DUP1 PUSH1 0x40 MSTORE POP DUP2 ADD SWAP1 PUSH2 0xEB4 SWAP2 SWAP1 PUSH2 0x3C69 JUMP JUMPDEST PUSH1 0x2 DUP2 GT ISZERO PUSH2 0xEC5 JUMPI PUSH2 0xEC5 PUSH2 0x36DF JUMP JUMPDEST SWAP1 POP PUSH1 0x0 DUP1 PUSH1 0x0 DUP1 PUSH32 0x0 PUSH1 0x1 PUSH1 0x1 PUSH1 0xA0 SHL SUB AND PUSH4 0xAFE15CFB DUP11 PUSH1 0x40 MLOAD DUP3 PUSH4 0xFFFFFFFF AND PUSH1 0xE0 SHL DUP2 MSTORE PUSH1 0x4 ADD PUSH2 0xF1B SWAP2 DUP2 MSTORE PUSH1 0x20 ADD SWAP1 JUMP JUMPDEST PUSH1 0x40 DUP1 MLOAD DUP1 DUP4 SUB DUP2 DUP7 GAS STATICCALL ISZERO DUP1 ISZERO PUSH2 0xF37 JUMPI RETURNDATASIZE PUSH1 0x0 DUP1 RETURNDATACOPY RETURNDATASIZE PUSH1 0x0 REVERT JUMPDEST POP POP POP POP PUSH1 0x40 MLOAD RETURNDATASIZE PUSH1 0x1F NOT PUSH1 0x1F DUP3 ADD AND DUP3 ADD DUP1 PUSH1 0x40 MSTORE POP DUP2 ADD SWAP1 PUSH2 0xF5B SWAP2 SWAP1 PUSH2 0x3C82 JUMP JUMPDEST SWAP2 POP SWAP2 POP PUSH1 0x0 DUP6 PUSH1 0x2 DUP2 GT ISZERO PUSH2 0xF73 JUMPI PUSH2 0xF73 PUSH2 0x36DF JUMP JUMPDEST DUP10 PUSH1 0x2 DUP2 GT ISZERO PUSH2 0xF85 JUMPI PUSH2 0xF85 PUSH2 0x36DF JUMP JUMPDEST SUB PUSH2 0x1008 JUMPI DUP2 TIMESTAMP LT PUSH2 0xFFF JUMPI PUSH1 0x40 MLOAD PUSH3 0x461BCD PUSH1 0xE5 SHL DUP2 MSTORE PUSH1 0x20 PUSH1 0x4 DUP3 ADD MSTORE PUSH1 0x2E PUSH1 0x24 DUP3 ADD MSTORE PUSH32 0x46756E64696E67206D757374206265206D6164652077697468696E2074686520 PUSH1 0x44 DUP3 ADD MSTORE PUSH32 0x61707065616C20706572696F642E000000000000000000000000000000000000 PUSH1 0x64 DUP3 ADD MSTORE PUSH1 0x84 ADD PUSH2 0xABC JUMP JUMPDEST POP PUSH1 0x4 SLOAD PUSH2 0x10B0 JUMP JUMPDEST PUSH1 0x2 SLOAD PUSH2 0x400 SWAP1 PUSH2 0x1019 DUP6 DUP6 PUSH2 0x3B62 JUMP JUMPDEST PUSH2 0x1023 SWAP2 SWAP1 PUSH2 0x3B16 JUMP JUMPDEST PUSH2 0x102D SWAP2 SWAP1 PUSH2 0x3B2D JUMP JUMPDEST PUSH2 0x1037 SWAP1 DUP5 PUSH2 0x3B4F JUMP JUMPDEST TIMESTAMP LT PUSH2 0x10AB JUMPI PUSH1 0x40 MLOAD PUSH3 0x461BCD PUSH1 0xE5 SHL DUP2 MSTORE PUSH1 0x20 PUSH1 0x4 DUP3 ADD MSTORE PUSH1 0x39 PUSH1 0x24 DUP3 ADD MSTORE PUSH32 0x46756E64696E67206D757374206265206D6164652077697468696E2074686520 PUSH1 0x44 DUP3 ADD MSTORE PUSH32 0x66697273742068616C662061707065616C20706572696F642E00000000000000 PUSH1 0x64 DUP3 ADD MSTORE PUSH1 0x84 ADD PUSH2 0xABC JUMP JUMPDEST POP PUSH1 0x5 SLOAD JUMPDEST DUP7 SLOAD PUSH32 0x0 PUSH1 0x1 PUSH1 0x1 PUSH1 0xA0 SHL SUB AND SWAP1 PUSH4 0xF23F16E6 SWAP1 DUP13 SWAP1 PUSH1 0x8 SWAP1 PUSH1 0x1 PUSH1 0xA8 SHL SWAP1 DIV PUSH1 0xFF AND PUSH1 0x40 DUP2 LT PUSH2 0x1102 JUMPI PUSH2 0x1102 PUSH2 0x3B75 JUMP JUMPDEST ADD PUSH1 0x40 MLOAD DUP4 PUSH4 0xFFFFFFFF AND PUSH1 0xE0 SHL DUP2 MSTORE PUSH1 0x4 ADD PUSH2 0x1120 SWAP3 SWAP2 SWAP1 PUSH2 0x3C48 JUMP JUMPDEST PUSH1 0x20 PUSH1 0x40 MLOAD DUP1 DUP4 SUB DUP2 DUP7 GAS STATICCALL ISZERO DUP1 ISZERO PUSH2 0x113D JUMPI RETURNDATASIZE PUSH1 0x0 DUP1 RETURNDATACOPY RETURNDATASIZE PUSH1 0x0 REVERT JUMPDEST POP POP POP POP PUSH1 0x40 MLOAD RETURNDATASIZE PUSH1 0x1F NOT PUSH1 0x1F DUP3 ADD AND DUP3 ADD DUP1 PUSH1 0x40 MSTORE POP DUP2 ADD SWAP1 PUSH2 0x1161 SWAP2 SWAP1 PUSH2 0x3C69 JUMP JUMPDEST SWAP5 POP PUSH2 0x400 PUSH2 0x1170 DUP3 DUP8 PUSH2 0x3B16 JUMP JUMPDEST PUSH2 0x117A SWAP2 SWAP1 PUSH2 0x3B2D JUMP JUMPDEST PUSH2 0x1184 SWAP1 DUP7 PUSH2 0x3B4F JUMP JUMPDEST PUSH1 0x1 DUP9 DUP2 ADD SLOAD SWAP2 SWAP6 POP DUP11 SWAP5 POP PUSH1 0x0 SWAP4 POP PUSH2 0x119F SWAP3 POP SWAP1 PUSH2 0x3B62 JUMP JUMPDEST SWAP1 POP PUSH1 0x0 DUP7 PUSH1 0x1 ADD DUP3 DUP2 SLOAD DUP2 LT PUSH2 0x11B8 JUMPI PUSH2 0x11B8 PUSH2 0x3B75 JUMP JUMPDEST SWAP1 PUSH1 0x0 MSTORE PUSH1 0x20 PUSH1 0x0 KECCAK256 SWAP1 PUSH1 0x6 MUL ADD SWAP1 POP DUP1 PUSH1 0x1 ADD DUP4 PUSH1 0x2 DUP2 GT ISZERO PUSH2 0x11DE JUMPI PUSH2 0x11DE PUSH2 0x36DF JUMP JUMPDEST PUSH1 0x3 DUP2 LT PUSH2 0x11EE JUMPI PUSH2 0x11EE PUSH2 0x3B75 JUMP JUMPDEST PUSH1 0x20 DUP2 DIV SWAP1 SWAP2 ADD SLOAD PUSH1 0xFF PUSH1 0x1F SWAP1 SWAP3 AND PUSH2 0x100 EXP SWAP1 DIV AND ISZERO PUSH2 0x1277 JUMPI PUSH1 0x40 MLOAD PUSH3 0x461BCD PUSH1 0xE5 SHL DUP2 MSTORE PUSH1 0x20 PUSH1 0x4 DUP3 ADD MSTORE PUSH1 0x21 PUSH1 0x24 DUP3 ADD MSTORE PUSH32 0x41707065616C206665652068617320616C7265616479206265656E2070616964 PUSH1 0x44 DUP3 ADD MSTORE PUSH32 0x2E00000000000000000000000000000000000000000000000000000000000000 PUSH1 0x64 DUP3 ADD MSTORE PUSH1 0x84 ADD PUSH2 0xABC JUMP JUMPDEST PUSH1 0x0 DUP1 DUP3 PUSH1 0x2 ADD DUP6 PUSH1 0x2 DUP2 GT ISZERO PUSH2 0x1290 JUMPI PUSH2 0x1290 PUSH2 0x36DF JUMP JUMPDEST PUSH1 0x3 DUP2 LT PUSH2 0x12A0 JUMPI PUSH2 0x12A0 PUSH2 0x3B75 JUMP JUMPDEST ADD SLOAD SWAP1 POP DUP6 DUP2 LT PUSH2 0x12B4 JUMPI PUSH1 0x0 SWAP2 POP PUSH2 0x12D8 JUMP JUMPDEST CALLVALUE PUSH2 0x12BF DUP3 DUP9 PUSH2 0x3B62 JUMP JUMPDEST GT PUSH2 0x12D3 JUMPI PUSH2 0x12CE DUP2 DUP8 PUSH2 0x3B62 JUMP JUMPDEST PUSH2 0x12D5 JUMP JUMPDEST CALLVALUE JUMPDEST SWAP2 POP JUMPDEST POP CALLER PUSH1 0x1 PUSH1 0x1 PUSH1 0xA0 SHL SUB AND DUP4 DUP13 PUSH32 0x2B4EF80A862EDC5616A4E61C11F4A368F33323FACA91FA7635D48B85C183E66A DUP14 DUP6 PUSH1 0x40 MLOAD PUSH2 0x1316 SWAP3 SWAP2 SWAP1 PUSH2 0x3CA6 JUMP JUMPDEST PUSH1 0x40 MLOAD DUP1 SWAP2 SUB SWAP1 LOG4 CALLER PUSH1 0x0 SWAP1 DUP2 MSTORE PUSH1 0x20 DUP4 SWAP1 MSTORE PUSH1 0x40 SWAP1 KECCAK256 DUP2 SWAP1 DUP6 PUSH1 0x2 DUP2 GT ISZERO PUSH2 0x1341 JUMPI PUSH2 0x1341 PUSH2 0x36DF JUMP JUMPDEST PUSH1 0x3 DUP2 LT PUSH2 0x1351 JUMPI PUSH2 0x1351 PUSH2 0x3B75 JUMP JUMPDEST ADD PUSH1 0x0 DUP3 DUP3 SLOAD PUSH2 0x1361 SWAP2 SWAP1 PUSH2 0x3B4F JUMP JUMPDEST SWAP3 POP POP DUP2 SWAP1 SSTORE POP DUP1 DUP3 PUSH1 0x2 ADD DUP6 PUSH1 0x2 DUP2 GT ISZERO PUSH2 0x137F JUMPI PUSH2 0x137F PUSH2 0x36DF JUMP JUMPDEST PUSH1 0x3 DUP2 LT PUSH2 0x138F JUMPI PUSH2 0x138F PUSH2 0x3B75 JUMP JUMPDEST ADD PUSH1 0x0 DUP3 DUP3 SLOAD PUSH2 0x139F SWAP2 SWAP1 PUSH2 0x3B4F JUMP JUMPDEST SWAP3 POP POP DUP2 SWAP1 SSTORE POP DUP5 DUP3 PUSH1 0x2 ADD DUP6 PUSH1 0x2 DUP2 GT ISZERO PUSH2 0x13BD JUMPI PUSH2 0x13BD PUSH2 0x36DF JUMP JUMPDEST PUSH1 0x3 DUP2 LT PUSH2 0x13CD JUMPI PUSH2 0x13CD PUSH2 0x3B75 JUMP JUMPDEST ADD SLOAD LT PUSH2 0x149B JUMPI DUP2 PUSH1 0x2 ADD DUP5 PUSH1 0x2 DUP2 GT ISZERO PUSH2 0x13EA JUMPI PUSH2 0x13EA PUSH2 0x36DF JUMP JUMPDEST PUSH1 0x3 DUP2 LT PUSH2 0x13FA JUMPI PUSH2 0x13FA PUSH2 0x3B75 JUMP JUMPDEST ADD SLOAD DUP3 PUSH1 0x5 ADD PUSH1 0x0 DUP3 DUP3 SLOAD PUSH2 0x140F SWAP2 SWAP1 PUSH2 0x3B4F JUMP JUMPDEST SWAP1 SWAP2 SSTORE POP PUSH1 0x1 SWAP1 POP DUP3 DUP2 ADD DUP6 PUSH1 0x2 DUP2 GT ISZERO PUSH2 0x142C JUMPI PUSH2 0x142C PUSH2 0x36DF JUMP JUMPDEST PUSH1 0x3 DUP2 LT PUSH2 0x143C JUMPI PUSH2 0x143C PUSH2 0x3B75 JUMP JUMPDEST PUSH1 0x20 SWAP2 DUP3 DUP3 DIV ADD SWAP2 SWAP1 MOD PUSH2 0x100 EXP DUP2 SLOAD DUP2 PUSH1 0xFF MUL NOT AND SWAP1 DUP4 ISZERO ISZERO MUL OR SWAP1 SSTORE POP DUP10 PUSH1 0x2 DUP2 GT ISZERO PUSH2 0x146D JUMPI PUSH2 0x146D PUSH2 0x36DF JUMP JUMPDEST PUSH1 0x40 MLOAD DUP5 SWAP1 DUP14 SWAP1 PUSH32 0xB5681F036910F38D8C2FA06F2CBEDC227ECF03D7C4A358EE9096197B15FF8FD0 SWAP1 PUSH1 0x0 SWAP1 LOG4 JUMPDEST PUSH1 0x1 DUP3 ADD SLOAD PUSH2 0x100 SWAP1 DIV PUSH1 0xFF AND DUP1 ISZERO PUSH2 0x14BE JUMPI POP PUSH1 0x1 DUP3 ADD SLOAD PUSH3 0x10000 SWAP1 DIV PUSH1 0xFF AND JUMPDEST ISZERO PUSH2 0x1592 JUMPI PUSH1 0x1 DUP1 DUP10 ADD DUP1 SLOAD SWAP1 SWAP2 ADD DUP2 SSTORE PUSH1 0x0 SWAP1 DUP2 MSTORE PUSH1 0x5 DUP4 ADD DUP1 SLOAD DUP9 SWAP3 SWAP1 PUSH2 0x14E8 SWAP1 DUP5 SWAP1 PUSH2 0x3B62 JUMP JUMPDEST SWAP1 SWAP2 SSTORE POP POP DUP8 SLOAD PUSH32 0x0 PUSH1 0x1 PUSH1 0x1 PUSH1 0xA0 SHL SUB AND SWAP1 PUSH4 0x49912F88 SWAP1 DUP9 SWAP1 DUP15 SWAP1 PUSH1 0x8 SWAP1 PUSH1 0x1 PUSH1 0xA8 SHL SWAP1 DIV PUSH1 0xFF AND PUSH1 0x40 DUP2 LT PUSH2 0x1541 JUMPI PUSH2 0x1541 PUSH2 0x3B75 JUMP JUMPDEST ADD PUSH1 0x40 MLOAD DUP5 PUSH4 0xFFFFFFFF AND PUSH1 0xE0 SHL DUP2 MSTORE PUSH1 0x4 ADD PUSH2 0x155F SWAP3 SWAP2 SWAP1 PUSH2 0x3C48 JUMP JUMPDEST PUSH1 0x0 PUSH1 0x40 MLOAD DUP1 DUP4 SUB DUP2 DUP6 DUP9 DUP1 EXTCODESIZE ISZERO DUP1 ISZERO PUSH2 0x1578 JUMPI PUSH1 0x0 DUP1 REVERT JUMPDEST POP GAS CALL ISZERO DUP1 ISZERO PUSH2 0x158C JUMPI RETURNDATASIZE PUSH1 0x0 DUP1 RETURNDATACOPY RETURNDATASIZE PUSH1 0x0 REVERT JUMPDEST POP POP POP POP POP JUMPDEST PUSH1 0x0 PUSH2 0x159E DUP3 CALLVALUE PUSH2 0x3B62 JUMP JUMPDEST GT ISZERO PUSH2 0x15CA JUMPI CALLER PUSH2 0x8FC PUSH2 0x15B2 DUP4 CALLVALUE PUSH2 0x3B62 JUMP JUMPDEST PUSH1 0x40 MLOAD DUP2 ISZERO SWAP1 SWAP3 MUL SWAP2 PUSH1 0x0 DUP2 DUP2 DUP2 DUP6 DUP9 DUP9 CALL POP POP POP POP POP JUMPDEST DUP2 PUSH1 0x1 ADD DUP5 PUSH1 0x2 DUP2 GT ISZERO PUSH2 0x15E0 JUMPI PUSH2 0x15E0 PUSH2 0x36DF JUMP JUMPDEST PUSH1 0x3 DUP2 LT PUSH2 0x15F0 JUMPI PUSH2 0x15F0 PUSH2 0x3B75 JUMP JUMPDEST PUSH1 0x20 DUP2 DIV SWAP1 SWAP2 ADD SLOAD PUSH1 0xFF PUSH1 0x1F SWAP1 SWAP3 AND PUSH2 0x100 EXP SWAP1 DIV AND SWAP9 POP POP POP POP POP POP POP POP POP JUMPDEST SWAP3 SWAP2 POP POP JUMP JUMPDEST PUSH1 0x0 DUP2 DUP2 MSTORE PUSH1 0x49 PUSH1 0x20 MSTORE PUSH1 0x40 DUP1 DUP3 KECCAK256 DUP1 SLOAD SWAP1 SWAP2 PUSH32 0x0 PUSH1 0x1 PUSH1 0x1 PUSH1 0xA0 SHL SUB AND SWAP2 PUSH4 0xF23F16E6 SWAP2 DUP7 SWAP2 PUSH1 0x8 SWAP2 PUSH1 0x1 PUSH1 0xA8 SHL SWAP1 SWAP2 DIV PUSH1 0xFF AND SWAP1 DUP2 LT PUSH2 0x167A JUMPI PUSH2 0x167A PUSH2 0x3B75 JUMP JUMPDEST ADD PUSH1 0x40 MLOAD DUP4 PUSH4 0xFFFFFFFF AND PUSH1 0xE0 SHL DUP2 MSTORE PUSH1 0x4 ADD PUSH2 0x1698 SWAP3 SWAP2 SWAP1 PUSH2 0x3C48 JUMP JUMPDEST PUSH1 0x20 PUSH1 0x40 MLOAD DUP1 DUP4 SUB DUP2 DUP7 GAS STATICCALL ISZERO DUP1 ISZERO PUSH2 0x16B5 JUMPI RETURNDATASIZE PUSH1 0x0 DUP1 RETURNDATACOPY RETURNDATASIZE PUSH1 0x0 REVERT JUMPDEST POP POP POP POP PUSH1 0x40 MLOAD RETURNDATASIZE PUSH1 0x1F NOT PUSH1 0x1F DUP3 ADD AND DUP3 ADD DUP1 PUSH1 0x40 MSTORE POP DUP2 ADD SWAP1 PUSH2 0x16D9 SWAP2 SWAP1 PUSH2 0x3C69 JUMP JUMPDEST SWAP4 SWAP3 POP POP POP JUMP JUMPDEST PUSH1 0x7 SLOAD PUSH2 0x100 SWAP1 DIV PUSH1 0x1 PUSH1 0x1 PUSH1 0xA0 SHL SUB AND CALLER EQ PUSH2 0x16FC JUMPI PUSH1 0x0 DUP1 REVERT JUMPDEST PUSH2 0x100 DUP2 GT ISZERO PUSH2 0x1774 JUMPI PUSH1 0x40 MLOAD PUSH3 0x461BCD PUSH1 0xE5 SHL DUP2 MSTORE PUSH1 0x20 PUSH1 0x4 DUP3 ADD MSTORE PUSH1 0x36 PUSH1 0x24 DUP3 ADD MSTORE PUSH32 0x5468652074617820726174652063616E206F6E6C7920626520696E6372656173 PUSH1 0x44 DUP3 ADD MSTORE PUSH32 0x65642062792061206D6178696D756D206F662032352500000000000000000000 PUSH1 0x64 DUP3 ADD MSTORE PUSH1 0x84 ADD PUSH2 0xABC JUMP JUMPDEST PUSH1 0x6 DUP2 SWAP1 SSTORE PUSH1 0x40 MLOAD DUP2 SWAP1 PUSH32 0x5100AB374784A62034356F9AF3B71EA723C1E89BEB5627C6C1DACEA1117250B8 SWAP1 PUSH1 0x0 SWAP1 LOG2 POP JUMP JUMPDEST CALLER PUSH1 0x1 PUSH1 0x1 PUSH1 0xA0 SHL SUB PUSH32 0x0 AND EQ PUSH2 0x17DC JUMPI PUSH1 0x0 DUP1 REVERT JUMPDEST PUSH1 0x0 DUP3 DUP2 MSTORE PUSH1 0x49 PUSH1 0x20 MSTORE PUSH1 0x40 DUP2 KECCAK256 PUSH1 0x1 DUP1 DUP3 ADD DUP1 SLOAD SWAP3 SWAP4 SWAP3 SWAP1 SWAP2 PUSH2 0x17FF SWAP2 PUSH2 0x3B62 JUMP JUMPDEST DUP2 SLOAD DUP2 LT PUSH2 0x180F JUMPI PUSH2 0x180F PUSH2 0x3B75 JUMP JUMPDEST PUSH1 0x0 SWAP2 DUP3 MSTORE PUSH1 0x20 DUP3 KECCAK256 PUSH1 0x1 PUSH1 0x6 SWAP3 SWAP1 SWAP3 MUL ADD SWAP1 DUP2 ADD SLOAD SWAP1 SWAP3 POP PUSH2 0x100 SWAP1 DIV PUSH1 0xFF AND ISZERO PUSH2 0x183D JUMPI POP PUSH1 0x1 PUSH2 0x1853 JUMP JUMPDEST PUSH1 0x1 DUP3 ADD SLOAD PUSH2 0x100 SWAP1 DIV PUSH1 0xFF AND ISZERO PUSH2 0x1853 JUMPI POP PUSH1 0x2 JUMPDEST PUSH1 0x0 DUP1 DUP3 PUSH1 0x2 DUP2 GT ISZERO PUSH2 0x1868 JUMPI PUSH2 0x1868 PUSH2 0x36DF JUMP JUMPDEST SUB PUSH2 0x1884 JUMPI DUP5 PUSH1 0x2 DUP2 GT ISZERO PUSH2 0x187F JUMPI PUSH2 0x187F PUSH2 0x36DF JUMP JUMPDEST PUSH2 0x1886 JUMP JUMPDEST DUP2 JUMPDEST DUP5 SLOAD SWAP1 SWAP2 POP DUP2 SWAP1 DUP6 SWAP1 PUSH32 0xFFFFFFFFFFFFFFFFFFFFFF00FFFFFFFFFFFFFFFFFFFFFFFFFFFFFFFFFFFFFFFF AND PUSH1 0x1 PUSH1 0xA0 SHL DUP4 PUSH1 0x2 DUP2 GT ISZERO PUSH2 0x18C8 JUMPI PUSH2 0x18C8 PUSH2 0x36DF JUMP JUMPDEST MUL OR SWAP1 SSTORE POP DUP4 SLOAD PUSH1 0x1 PUSH1 0xB8 SHL SWAP1 DIV PUSH9 0xFFFFFFFFFFFFFFFFFF AND PUSH1 0x0 DUP2 DUP2 MSTORE PUSH1 0x48 PUSH1 0x20 MSTORE PUSH1 0x40 SWAP1 KECCAK256 PUSH1 0x2 DUP4 PUSH1 0x2 DUP2 GT ISZERO PUSH2 0x1903 JUMPI PUSH2 0x1903 PUSH2 0x36DF JUMP JUMPDEST SUB PUSH2 0x19BB JUMPI DUP1 SLOAD PUSH32 0xFF00000000000000FFFFFFFFFFFFFFFFFFFFFFFFFFFFFFFFFFFFFFFFFFFFFFFF DUP2 AND DUP3 SSTORE PUSH1 0x40 MLOAD PUSH9 0xFFFFFFFFFFFFFFFFFF DUP5 AND DUP2 MSTORE PUSH1 0x1 PUSH1 0xC0 SHL SWAP1 SWAP2 DIV PUSH1 0x20 SWAP1 DUP2 SHL PUSH11 0xFFFFFFFFFFFFFF00000000 AND SWAP2 PUSH32 0x8271992F9B3A3F30DC2A464982DC4A136E7357403462443A171A0FB0C6CCC265 SWAP2 ADD PUSH1 0x40 MLOAD DUP1 SWAP2 SUB SWAP1 LOG1 PUSH1 0x0 DUP10 DUP2 MSTORE PUSH1 0x49 PUSH1 0x20 MSTORE PUSH1 0x40 DUP1 DUP3 KECCAK256 SLOAD SWAP1 MLOAD PUSH1 0x1 PUSH1 0x1 PUSH1 0xA0 SHL SUB SWAP1 SWAP2 AND SWAP2 DUP4 ISZERO PUSH2 0x8FC MUL SWAP2 DUP5 SWAP2 DUP2 DUP2 DUP2 DUP6 DUP9 DUP9 CALL POP POP POP POP POP POP JUMPDEST DUP1 SLOAD PUSH4 0xFFFFFFFF PUSH1 0xA0 SHL NOT AND DUP2 SSTORE DUP6 SLOAD PUSH32 0xFFFFFFFFFFFFFFFFFF00FFFFFFFFFFFFFFFFFFFFFFFFFFFFFFFFFFFFFFFFFFFF AND PUSH1 0x1 PUSH1 0xB0 SHL OR DUP7 SSTORE PUSH1 0x40 MLOAD DUP9 SWAP1 CALLER SWAP1 PUSH32 0x394027A5FA6E098A1191094D1719D6929B9ABC535FCC0C8F448D6A4E75622276 SWAP1 PUSH2 0x1A2B SWAP1 DUP12 DUP2 MSTORE PUSH1 0x20 ADD SWAP1 JUMP JUMPDEST PUSH1 0x40 MLOAD DUP1 SWAP2 SUB SWAP1 LOG3 POP POP POP POP POP POP POP POP JUMP JUMPDEST PUSH9 0xFFFFFFFFFFFFFFFFFF DUP2 AND PUSH1 0x0 SWAP1 DUP2 MSTORE PUSH1 0x48 PUSH1 0x20 MSTORE PUSH1 0x40 DUP1 DUP3 KECCAK256 DUP1 SLOAD SWAP1 SWAP2 DUP4 SWAP2 PUSH32 0x0 PUSH1 0x1 PUSH1 0x1 PUSH1 0xA0 SHL SUB AND SWAP2 PUSH4 0xF7434EA9 SWAP2 PUSH1 0x8 SWAP2 PUSH1 0x1 PUSH1 0xF8 SHL SWAP1 SWAP2 DIV PUSH1 0xFF AND SWAP1 DUP2 LT PUSH2 0x1AAC JUMPI PUSH2 0x1AAC PUSH2 0x3B75 JUMP JUMPDEST ADD PUSH1 0x40 MLOAD DUP3 PUSH4 0xFFFFFFFF AND PUSH1 0xE0 SHL DUP2 MSTORE PUSH1 0x4 ADD PUSH2 0x1AC9 SWAP2 SWAP1 PUSH2 0x3CC1 JUMP JUMPDEST PUSH1 0x20 PUSH1 0x40 MLOAD DUP1 DUP4 SUB DUP2 DUP7 GAS STATICCALL ISZERO DUP1 ISZERO PUSH2 0x1AE6 JUMPI RETURNDATASIZE PUSH1 0x0 DUP1 RETURNDATACOPY RETURNDATASIZE PUSH1 0x0 REVERT JUMPDEST POP POP POP POP PUSH1 0x40 MLOAD RETURNDATASIZE PUSH1 0x1F NOT PUSH1 0x1F DUP3 ADD AND DUP3 ADD DUP1 PUSH1 0x40 MSTORE POP DUP2 ADD SWAP1 PUSH2 0x1B0A SWAP2 SWAP1 PUSH2 0x3C69 JUMP JUMPDEST PUSH1 0x6 SLOAD DUP4 SLOAD SWAP2 SWAP3 POP PUSH1 0x0 SWAP2 PUSH2 0x400 SWAP2 PUSH2 0x1B39 SWAP2 PUSH1 0x1 PUSH1 0xC0 SHL SWAP1 DIV PUSH1 0x20 SHL PUSH11 0xFFFFFFFFFFFFFF00000000 AND PUSH2 0x3B16 JUMP JUMPDEST PUSH2 0x1B43 SWAP2 SWAP1 PUSH2 0x3B2D JUMP JUMPDEST SWAP1 POP PUSH2 0x1B4F DUP2 DUP4 PUSH2 0x3B4F JUMP JUMPDEST SWAP6 SWAP5 POP POP POP POP POP JUMP JUMPDEST PUSH9 0xFFFFFFFFFFFFFFFFFF DUP2 AND PUSH1 0x0 SWAP1 DUP2 MSTORE PUSH1 0x48 PUSH1 0x20 MSTORE PUSH1 0x40 SWAP1 KECCAK256 DUP1 SLOAD PUSH1 0x1 PUSH1 0x1 PUSH1 0xA0 SHL SUB AND CALLER EQ PUSH2 0x1BF1 JUMPI PUSH1 0x40 MLOAD PUSH3 0x461BCD PUSH1 0xE5 SHL DUP2 MSTORE PUSH1 0x20 PUSH1 0x4 DUP3 ADD MSTORE PUSH1 0x2E PUSH1 0x24 DUP3 ADD MSTORE PUSH32 0x4F6E6C7920617574686F722063616E20696E63726561736520626F756E747920 PUSH1 0x44 DUP3 ADD MSTORE PUSH32 0x6F6620616E2061727469636C652E000000000000000000000000000000000000 PUSH1 0x64 DUP3 ADD MSTORE PUSH1 0x84 ADD PUSH2 0xABC JUMP JUMPDEST DUP1 SLOAD CALLVALUE PUSH1 0x20 SHR SWAP1 DUP3 SWAP1 PUSH1 0x18 SWAP1 PUSH2 0x1C18 SWAP1 DUP5 SWAP1 PUSH1 0x1 PUSH1 0xC0 SHL SWAP1 DIV PUSH7 0xFFFFFFFFFFFFFF AND PUSH2 0x3CD4 JUMP JUMPDEST DUP3 SLOAD PUSH2 0x100 SWAP3 SWAP1 SWAP3 EXP PUSH7 0xFFFFFFFFFFFFFF DUP2 DUP2 MUL NOT SWAP1 SWAP4 AND SWAP2 SWAP1 SWAP3 AND SWAP2 SWAP1 SWAP2 MUL OR SWAP1 SSTORE POP DUP1 SLOAD PUSH1 0x40 DUP1 MLOAD PUSH9 0xFFFFFFFFFFFFFFFFFF DUP6 AND DUP2 MSTORE PUSH1 0x1 PUSH1 0xC0 SHL SWAP1 SWAP3 DIV PUSH1 0x20 SWAP1 DUP2 SHL PUSH11 0xFFFFFFFFFFFFFF00000000 AND SWAP1 DUP4 ADD MSTORE PUSH32 0xDF5FC410D3381CC7F0A7FE3AF72F4E3CF53EF5787F20554AF69035A950E1B2E3 SWAP2 ADD JUMPDEST PUSH1 0x40 MLOAD DUP1 SWAP2 SUB SWAP1 LOG1 POP POP JUMP JUMPDEST PUSH1 0x7 SLOAD PUSH2 0x1CAF SWAP1 PUSH1 0xFF AND PUSH1 0x1 PUSH2 0x3CF3 JUMP JUMPDEST PUSH1 0xFF AND PUSH1 0x0 SUB PUSH2 0x1D01 JUMPI PUSH1 0x40 MLOAD PUSH3 0x461BCD PUSH1 0xE5 SHL DUP2 MSTORE PUSH1 0x20 PUSH1 0x4 DUP3 ADD DUP2 SWAP1 MSTORE PUSH1 0x24 DUP3 ADD MSTORE PUSH32 0x4E6F207370616365206C65667420666F722061206E65772063617465676F7279 PUSH1 0x44 DUP3 ADD MSTORE PUSH1 0x64 ADD PUSH2 0xABC JUMP JUMPDEST PUSH1 0x7 SLOAD PUSH1 0x40 MLOAD PUSH1 0xFF SWAP1 SWAP2 AND SWAP1 PUSH32 0x61606860EB6C87306811E2695215385101DAAB53BD6AB4E9F9049AEAD9363C7D SWAP1 PUSH2 0x1D3A SWAP1 DUP6 SWAP1 PUSH2 0x36CC JUMP JUMPDEST PUSH1 0x40 MLOAD DUP1 SWAP2 SUB SWAP1 LOG2 PUSH1 0x7 SLOAD DUP2 SWAP1 PUSH1 0x8 SWAP1 PUSH1 0xFF AND PUSH1 0x40 DUP2 LT PUSH2 0x1D5D JUMPI PUSH2 0x1D5D PUSH2 0x3B75 JUMP JUMPDEST ADD SWAP1 PUSH2 0x1D69 SWAP1 DUP3 PUSH2 0x3D58 JUMP JUMPDEST POP PUSH1 0x7 DUP1 SLOAD PUSH1 0xFF AND SWAP1 PUSH1 0x0 PUSH2 0x1D7D DUP4 PUSH2 0x3E17 JUMP JUMPDEST SWAP2 SWAP1 PUSH2 0x100 EXP DUP2 SLOAD DUP2 PUSH1 0xFF MUL NOT AND SWAP1 DUP4 PUSH1 0xFF AND MUL OR SWAP1 SSTORE POP POP POP POP JUMP JUMPDEST PUSH1 0x8 DUP2 PUSH1 0x40 DUP2 LT PUSH2 0x1DAA JUMPI PUSH1 0x0 DUP1 REVERT JUMPDEST ADD DUP1 SLOAD SWAP1 SWAP2 POP PUSH2 0x1DB9 SWAP1 PUSH2 0x3B8B JUMP JUMPDEST DUP1 PUSH1 0x1F ADD PUSH1 0x20 DUP1 SWAP2 DIV MUL PUSH1 0x20 ADD PUSH1 0x40 MLOAD SWAP1 DUP2 ADD PUSH1 0x40 MSTORE DUP1 SWAP3 SWAP2 SWAP1 DUP2 DUP2 MSTORE PUSH1 0x20 ADD DUP3 DUP1 SLOAD PUSH2 0x1DE5 SWAP1 PUSH2 0x3B8B JUMP JUMPDEST DUP1 ISZERO PUSH2 0x1E32 JUMPI DUP1 PUSH1 0x1F LT PUSH2 0x1E07 JUMPI PUSH2 0x100 DUP1 DUP4 SLOAD DIV MUL DUP4 MSTORE SWAP2 PUSH1 0x20 ADD SWAP2 PUSH2 0x1E32 JUMP JUMPDEST DUP3 ADD SWAP2 SWAP1 PUSH1 0x0 MSTORE PUSH1 0x20 PUSH1 0x0 KECCAK256 SWAP1 JUMPDEST DUP2 SLOAD DUP2 MSTORE SWAP1 PUSH1 0x1 ADD SWAP1 PUSH1 0x20 ADD DUP1 DUP4 GT PUSH2 0x1E15 JUMPI DUP3 SWAP1 SUB PUSH1 0x1F AND DUP3 ADD SWAP2 JUMPDEST POP POP POP POP POP DUP2 JUMP JUMPDEST PUSH1 0x0 DUP1 PUSH1 0x0 DUP1 PUSH32 0x0 PUSH1 0x1 PUSH1 0x1 PUSH1 0xA0 SHL SUB AND PUSH4 0xAFE15CFB DUP8 PUSH1 0x40 MLOAD DUP3 PUSH4 0xFFFFFFFF AND PUSH1 0xE0 SHL DUP2 MSTORE PUSH1 0x4 ADD PUSH2 0x1E8E SWAP2 DUP2 MSTORE PUSH1 0x20 ADD SWAP1 JUMP JUMPDEST PUSH1 0x40 DUP1 MLOAD DUP1 DUP4 SUB DUP2 DUP7 GAS STATICCALL ISZERO DUP1 ISZERO PUSH2 0x1EAA JUMPI RETURNDATASIZE PUSH1 0x0 DUP1 RETURNDATACOPY RETURNDATASIZE PUSH1 0x0 REVERT JUMPDEST POP POP POP POP PUSH1 0x40 MLOAD RETURNDATASIZE PUSH1 0x1F NOT PUSH1 0x1F DUP3 ADD AND DUP3 ADD DUP1 PUSH1 0x40 MSTORE POP DUP2 ADD SWAP1 PUSH2 0x1ECE SWAP2 SWAP1 PUSH2 0x3C82 JUMP JUMPDEST SWAP2 POP SWAP2 POP PUSH1 0x0 PUSH2 0x400 PUSH1 0x2 SLOAD DUP5 DUP5 PUSH2 0x1EE6 SWAP2 SWAP1 PUSH2 0x3B62 JUMP JUMPDEST PUSH2 0x1EF0 SWAP2 SWAP1 PUSH2 0x3B16 JUMP JUMPDEST PUSH2 0x1EFA SWAP2 SWAP1 PUSH2 0x3B2D JUMP JUMPDEST PUSH2 0x1F04 SWAP1 DUP5 PUSH2 0x3B4F JUMP JUMPDEST SWAP1 POP PUSH1 0x0 DUP7 PUSH1 0x2 DUP2 GT ISZERO PUSH2 0x1F1A JUMPI PUSH2 0x1F1A PUSH2 0x36DF JUMP JUMPDEST PUSH2 0x1F23 DUP10 PUSH2 0x2052 JUMP JUMPDEST PUSH1 0x2 DUP2 GT ISZERO PUSH2 0x1F34 JUMPI PUSH2 0x1F34 PUSH2 0x36DF JUMP JUMPDEST PUSH1 0x2 DUP2 GT ISZERO PUSH2 0x1F45 JUMPI PUSH2 0x1F45 PUSH2 0x36DF JUMP JUMPDEST EQ SWAP1 POP DUP1 PUSH2 0x1F54 JUMPI DUP4 DUP3 PUSH2 0x1F57 JUMP JUMPDEST DUP4 DUP4 JUMPDEST SWAP6 POP SWAP6 POP POP POP POP POP JUMPDEST SWAP3 POP SWAP3 SWAP1 POP JUMP JUMPDEST PUSH1 0x0 JUMPDEST DUP2 DUP2 LT ISZERO PUSH2 0x2010 JUMPI PUSH1 0x0 JUMPDEST DUP4 DUP4 DUP4 DUP2 DUP2 LT PUSH2 0x1F87 JUMPI PUSH2 0x1F87 PUSH2 0x3B75 JUMP JUMPDEST SWAP1 POP PUSH1 0x20 MUL DUP2 ADD SWAP1 PUSH2 0x1F99 SWAP2 SWAP1 PUSH2 0x3E36 JUMP JUMPDEST SWAP1 POP DUP2 LT ISZERO PUSH2 0x2007 JUMPI PUSH1 0x0 DUP5 DUP5 DUP5 DUP2 DUP2 LT PUSH2 0x1FB6 JUMPI PUSH2 0x1FB6 PUSH2 0x3B75 JUMP JUMPDEST SWAP1 POP PUSH1 0x20 MUL DUP2 ADD SWAP1 PUSH2 0x1FC8 SWAP2 SWAP1 PUSH2 0x3E36 JUMP JUMPDEST DUP4 DUP2 DUP2 LT PUSH2 0x1FD8 JUMPI PUSH2 0x1FD8 PUSH2 0x3B75 JUMP JUMPDEST SWAP1 POP PUSH1 0x20 MUL ADD CALLDATALOAD GT ISZERO PUSH2 0x1FFF JUMPI PUSH2 0x1FFD DUP7 DUP7 DUP5 DUP5 PUSH1 0x2 DUP2 GT ISZERO PUSH2 0x940 JUMPI PUSH2 0x940 PUSH2 0x36DF JUMP JUMPDEST POP JUMPDEST PUSH1 0x1 ADD PUSH2 0x1F75 JUMP JUMPDEST POP PUSH1 0x1 ADD PUSH2 0x1F6A JUMP JUMPDEST POP POP POP POP POP JUMP JUMPDEST PUSH1 0x0 DUP4 DUP2 MSTORE PUSH1 0x49 PUSH1 0x20 MSTORE PUSH1 0x40 DUP2 KECCAK256 PUSH1 0x1 DUP2 ADD SLOAD SWAP1 SWAP2 JUMPDEST DUP2 DUP2 LT ISZERO PUSH2 0x204A JUMPI PUSH2 0x2041 DUP7 DUP7 DUP4 DUP8 PUSH2 0x2D2E JUMP JUMPDEST POP PUSH1 0x1 ADD PUSH2 0x202D JUMP JUMPDEST POP POP POP POP POP POP JUMP JUMPDEST PUSH1 0x40 MLOAD PUSH4 0x1C3DB16D PUSH1 0xE0 SHL DUP2 MSTORE PUSH1 0x4 DUP2 ADD DUP3 SWAP1 MSTORE PUSH1 0x0 SWAP1 PUSH32 0x0 PUSH1 0x1 PUSH1 0x1 PUSH1 0xA0 SHL SUB AND SWAP1 PUSH4 0x1C3DB16D SWAP1 PUSH1 0x24 ADD PUSH1 0x20 PUSH1 0x40 MLOAD DUP1 DUP4 SUB DUP2 DUP7 GAS STATICCALL ISZERO DUP1 ISZERO PUSH2 0x20BA JUMPI RETURNDATASIZE PUSH1 0x0 DUP1 RETURNDATACOPY RETURNDATASIZE PUSH1 0x0 REVERT JUMPDEST POP POP POP POP PUSH1 0x40 MLOAD RETURNDATASIZE PUSH1 0x1F NOT PUSH1 0x1F DUP3 ADD AND DUP3 ADD DUP1 PUSH1 0x40 MSTORE POP DUP2 ADD SWAP1 PUSH2 0x1611 SWAP2 SWAP1 PUSH2 0x3C69 JUMP JUMPDEST PUSH2 0x20E6 PUSH2 0x3498 JUMP JUMPDEST PUSH2 0x20EE PUSH2 0x3498 JUMP JUMPDEST PUSH1 0x0 DUP5 DUP2 MSTORE PUSH1 0x49 PUSH1 0x20 MSTORE PUSH1 0x40 DUP2 KECCAK256 PUSH1 0x1 ADD DUP1 SLOAD DUP3 SWAP2 SWAP1 DUP7 SWAP1 DUP2 LT PUSH2 0x2114 JUMPI PUSH2 0x2114 PUSH2 0x3B75 JUMP JUMPDEST SWAP1 PUSH1 0x0 MSTORE PUSH1 0x20 PUSH1 0x0 KECCAK256 SWAP1 PUSH1 0x6 MUL ADD SWAP1 POP DUP1 PUSH1 0x1 ADD DUP2 PUSH1 0x2 ADD DUP3 PUSH1 0x5 ADD SLOAD DUP3 PUSH1 0x3 DUP1 PUSH1 0x20 MUL PUSH1 0x40 MLOAD SWAP1 DUP2 ADD PUSH1 0x40 MSTORE DUP1 SWAP3 SWAP2 SWAP1 DUP3 PUSH1 0x3 DUP1 ISZERO PUSH2 0x2189 JUMPI PUSH1 0x20 MUL DUP3 ADD SWAP2 PUSH1 0x0 SWAP1 JUMPDEST DUP3 SLOAD PUSH2 0x100 DUP4 SWAP1 EXP SWAP1 DIV PUSH1 0xFF AND ISZERO ISZERO DUP2 MSTORE PUSH1 0x20 PUSH1 0x1 SWAP3 DUP4 ADD DUP2 DUP2 DIV SWAP5 DUP6 ADD SWAP5 SWAP1 SWAP4 SUB SWAP1 SWAP3 MUL SWAP2 ADD DUP1 DUP5 GT PUSH2 0x2158 JUMPI SWAP1 POP JUMPDEST POP POP PUSH1 0x40 DUP1 MLOAD PUSH1 0x60 DUP2 ADD SWAP2 DUP3 SWAP1 MSTORE SWAP5 SWAP8 POP DUP7 SWAP4 POP PUSH1 0x3 SWAP3 POP SWAP1 POP DUP3 DUP5 JUMPDEST DUP2 SLOAD DUP2 MSTORE PUSH1 0x20 ADD SWAP1 PUSH1 0x1 ADD SWAP1 DUP1 DUP4 GT PUSH2 0x21A6 JUMPI POP POP POP POP POP SWAP2 POP SWAP4 POP SWAP4 POP SWAP4 POP POP SWAP3 POP SWAP3 POP SWAP3 JUMP JUMPDEST PUSH1 0x7 SLOAD PUSH2 0x100 SWAP1 DIV PUSH1 0x1 PUSH1 0x1 PUSH1 0xA0 SHL SUB AND CALLER EQ PUSH2 0x21EA JUMPI PUSH1 0x0 DUP1 REVERT JUMPDEST PUSH1 0x7 DUP1 SLOAD PUSH21 0xFFFFFFFFFFFFFFFFFFFFFFFFFFFFFFFFFFFFFFFF00 NOT AND PUSH2 0x100 PUSH1 0x1 PUSH1 0x1 PUSH1 0xA0 SHL SUB DUP5 AND SWAP1 DUP2 MUL SWAP2 SWAP1 SWAP2 OR SWAP1 SWAP2 SSTORE PUSH1 0x40 MLOAD PUSH32 0xC2515F25186DF02132AD46F01E062C3B8982C8DE57FA2B1B0A280D8E810F39B SWAP1 PUSH1 0x0 SWAP1 LOG2 POP JUMP JUMPDEST PUSH1 0x7 SLOAD PUSH2 0x100 SWAP1 DIV PUSH1 0x1 PUSH1 0x1 PUSH1 0xA0 SHL SUB AND CALLER EQ PUSH2 0x2265 JUMPI PUSH1 0x0 DUP1 REVERT JUMPDEST PUSH1 0x5 DUP2 SWAP1 SSTORE PUSH1 0x40 MLOAD DUP2 SWAP1 PUSH32 0x505F3BF1E426C82F14F7C9CFB2D31EF5B7BB76428E16BD90DABEC113E3D4A2BC SWAP1 PUSH1 0x0 SWAP1 LOG2 POP JUMP JUMPDEST PUSH1 0x7 SLOAD PUSH2 0x100 SWAP1 DIV PUSH1 0x1 PUSH1 0x1 PUSH1 0xA0 SHL SUB AND CALLER EQ PUSH2 0x22B4 JUMPI PUSH1 0x0 DUP1 REVERT JUMPDEST PUSH1 0x3 DUP2 SWAP1 SSTORE PUSH1 0x40 MLOAD DUP2 SWAP1 PUSH32 0x207E19E347BECB468EF02D25790188E4D5DA0FE37176D3BBB7940168EC5D6136 SWAP1 PUSH1 0x0 SWAP1 LOG2 POP JUMP JUMPDEST PUSH1 0x0 DUP3 DUP2 MSTORE PUSH1 0x49 PUSH1 0x20 MSTORE PUSH1 0x40 DUP2 KECCAK256 PUSH1 0x1 DUP1 DUP3 ADD SLOAD DUP4 SWAP2 PUSH2 0x2306 SWAP2 PUSH2 0x3B62 JUMP JUMPDEST SWAP1 POP PUSH1 0x0 DUP3 PUSH1 0x1 ADD DUP3 DUP2 SLOAD DUP2 LT PUSH2 0x231F JUMPI PUSH2 0x231F PUSH2 0x3B75 JUMP JUMPDEST SWAP1 PUSH1 0x0 MSTORE PUSH1 0x20 PUSH1 0x0 KECCAK256 SWAP1 PUSH1 0x6 MUL ADD SWAP1 POP PUSH1 0x0 DUP6 PUSH1 0x2 DUP2 GT ISZERO PUSH2 0x2343 JUMPI PUSH2 0x2343 PUSH2 0x36DF JUMP JUMPDEST PUSH2 0x234C DUP9 PUSH2 0x2052 JUMP JUMPDEST PUSH1 0x2 DUP2 GT ISZERO PUSH2 0x235D JUMPI PUSH2 0x235D PUSH2 0x36DF JUMP JUMPDEST PUSH1 0x2 DUP2 GT ISZERO PUSH2 0x236E JUMPI PUSH2 0x236E PUSH2 0x36DF JUMP JUMPDEST EQ SWAP1 POP PUSH1 0x0 DUP2 PUSH2 0x2380 JUMPI PUSH1 0x5 SLOAD PUSH2 0x2384 JUMP JUMPDEST PUSH1 0x4 SLOAD JUMPDEST SWAP1 POP PUSH1 0x0 DUP4 PUSH1 0x2 ADD DUP9 PUSH1 0x2 DUP2 GT ISZERO PUSH2 0x239E JUMPI PUSH2 0x239E PUSH2 0x36DF JUMP JUMPDEST PUSH1 0x3 DUP2 LT PUSH2 0x23AE JUMPI PUSH2 0x23AE PUSH2 0x3B75 JUMP JUMPDEST ADD SLOAD DUP7 SLOAD SWAP1 SWAP2 POP PUSH1 0x0 SWAP1 PUSH32 0x0 PUSH1 0x1 PUSH1 0x1 PUSH1 0xA0 SHL SUB AND SWAP1 PUSH4 0xF23F16E6 SWAP1 DUP13 SWAP1 PUSH1 0x8 SWAP1 PUSH1 0x1 PUSH1 0xA8 SHL SWAP1 DIV PUSH1 0xFF AND PUSH1 0x40 DUP2 LT PUSH2 0x2408 JUMPI PUSH2 0x2408 PUSH2 0x3B75 JUMP JUMPDEST ADD PUSH1 0x40 MLOAD DUP4 PUSH4 0xFFFFFFFF AND PUSH1 0xE0 SHL DUP2 MSTORE PUSH1 0x4 ADD PUSH2 0x2426 SWAP3 SWAP2 SWAP1 PUSH2 0x3C48 JUMP JUMPDEST PUSH1 0x20 PUSH1 0x40 MLOAD DUP1 DUP4 SUB DUP2 DUP7 GAS STATICCALL ISZERO DUP1 ISZERO PUSH2 0x2443 JUMPI RETURNDATASIZE PUSH1 0x0 DUP1 RETURNDATACOPY RETURNDATASIZE PUSH1 0x0 REVERT JUMPDEST POP POP POP POP PUSH1 0x40 MLOAD RETURNDATASIZE PUSH1 0x1F NOT PUSH1 0x1F DUP3 ADD AND DUP3 ADD DUP1 PUSH1 0x40 MSTORE POP DUP2 ADD SWAP1 PUSH2 0x2467 SWAP2 SWAP1 PUSH2 0x3C69 JUMP JUMPDEST SWAP1 POP PUSH1 0x0 PUSH2 0x400 PUSH2 0x2478 DUP6 DUP5 PUSH2 0x3B16 JUMP JUMPDEST PUSH2 0x2482 SWAP2 SWAP1 PUSH2 0x3B2D JUMP JUMPDEST PUSH2 0x248C SWAP1 DUP4 PUSH2 0x3B4F JUMP JUMPDEST SWAP1 POP PUSH2 0x2498 DUP4 DUP3 PUSH2 0x3B62 JUMP JUMPDEST SWAP12 SWAP11 POP POP POP POP POP POP POP POP POP POP POP JUMP JUMPDEST CALLER PUSH1 0x1 PUSH1 0x1 PUSH1 0xA0 SHL SUB AND DUP4 PUSH32 0x0 PUSH1 0x1 PUSH1 0x1 PUSH1 0xA0 SHL SUB AND PUSH32 0xDCCF2F8B2CC26EAFCD61905CBA744CFF4B81D14740725F6376390DC6298A6A3C DUP6 DUP6 PUSH1 0x40 MLOAD PUSH2 0x250D SWAP3 SWAP2 SWAP1 PUSH2 0x3EA9 JUMP JUMPDEST PUSH1 0x40 MLOAD DUP1 SWAP2 SUB SWAP1 LOG4 POP POP POP JUMP JUMPDEST PUSH9 0xFFFFFFFFFFFFFFFFFF DUP2 AND PUSH1 0x0 SWAP1 DUP2 MSTORE PUSH1 0x48 PUSH1 0x20 MSTORE PUSH1 0x40 SWAP1 KECCAK256 DUP1 SLOAD PUSH1 0x1 PUSH1 0x1 PUSH1 0xA0 SHL SUB AND CALLER EQ PUSH2 0x2599 JUMPI PUSH1 0x40 MLOAD PUSH3 0x461BCD PUSH1 0xE5 SHL DUP2 MSTORE PUSH1 0x20 PUSH1 0x4 DUP3 ADD MSTORE PUSH1 0x24 DUP1 DUP3 ADD MSTORE PUSH32 0x4F6E6C7920617574686F722063616E20776974686472617720616E2061727469 PUSH1 0x44 DUP3 ADD MSTORE PUSH4 0x31B63297 PUSH1 0xE1 SHL PUSH1 0x64 DUP3 ADD MSTORE PUSH1 0x84 ADD PUSH2 0xABC JUMP JUMPDEST DUP1 SLOAD PUSH1 0x1 PUSH1 0xA0 SHL SWAP1 DIV PUSH4 0xFFFFFFFF AND PUSH1 0x0 SUB PUSH2 0x261D JUMPI PUSH1 0x40 MLOAD PUSH3 0x461BCD PUSH1 0xE5 SHL DUP2 MSTORE PUSH1 0x20 PUSH1 0x4 DUP3 ADD MSTORE PUSH1 0x26 PUSH1 0x24 DUP3 ADD MSTORE PUSH32 0x596F75206E65656420746F20696E697469617465207769746864726177616C20 PUSH1 0x44 DUP3 ADD MSTORE PUSH32 0x66697273742E0000000000000000000000000000000000000000000000000000 PUSH1 0x64 DUP3 ADD MSTORE PUSH1 0x84 ADD PUSH2 0xABC JUMP JUMPDEST DUP1 SLOAD TIMESTAMP PUSH1 0x1 PUSH1 0xA0 SHL SWAP1 SWAP2 DIV PUSH4 0xFFFFFFFF AND GT ISZERO PUSH2 0x26A2 JUMPI PUSH1 0x40 MLOAD PUSH3 0x461BCD PUSH1 0xE5 SHL DUP2 MSTORE PUSH1 0x20 PUSH1 0x4 DUP3 ADD MSTORE PUSH1 0x3F PUSH1 0x24 DUP3 ADD MSTORE PUSH32 0x596F75206E65656420746F207761697420666F722074696D656C6F636B206F72 PUSH1 0x44 DUP3 ADD MSTORE PUSH32 0x207761697420756E74696C20746865206368616C6C656E676520656E64732E00 PUSH1 0x64 DUP3 ADD MSTORE PUSH1 0x84 ADD PUSH2 0xABC JUMP JUMPDEST DUP1 SLOAD PUSH32 0xFF0000000000000000000000FFFFFFFFFFFFFFFFFFFFFFFFFFFFFFFFFFFFFFFF DUP2 AND DUP3 SSTORE PUSH1 0x40 MLOAD PUSH1 0x1 PUSH1 0xC0 SHL SWAP1 SWAP2 DIV PUSH1 0x20 SHL PUSH11 0xFFFFFFFFFFFFFF00000000 AND SWAP1 CALLER SWAP1 PUSH2 0x8FC DUP4 ISZERO MUL SWAP1 DUP4 SWAP1 PUSH1 0x0 DUP2 DUP2 DUP2 DUP6 DUP9 DUP9 CALL SWAP4 POP POP POP POP ISZERO DUP1 ISZERO PUSH2 0x270F JUMPI RETURNDATASIZE PUSH1 0x0 DUP1 RETURNDATACOPY RETURNDATASIZE PUSH1 0x0 REVERT JUMPDEST POP PUSH1 0x40 MLOAD PUSH9 0xFFFFFFFFFFFFFFFFFF DUP5 AND DUP2 MSTORE PUSH32 0x70B41D8CCA762CEEC66D93F536DBB31F5CABBF1901F862508B9438DE54FCE4EB SWAP1 PUSH1 0x20 ADD PUSH1 0x40 MLOAD DUP1 SWAP2 SUB SWAP1 LOG1 POP POP POP JUMP JUMPDEST PUSH1 0x7 SLOAD PUSH2 0x100 SWAP1 DIV PUSH1 0x1 PUSH1 0x1 PUSH1 0xA0 SHL SUB AND CALLER EQ PUSH2 0x276F JUMPI PUSH1 0x0 DUP1 REVERT JUMPDEST PUSH1 0x4 DUP2 SWAP1 SSTORE PUSH1 0x40 MLOAD DUP2 SWAP1 PUSH32 0x8DF75282265171690A1298CF028F5E3C7D8D42313394A4F25D4AEEA6C1EA62CF SWAP1 PUSH1 0x0 SWAP1 LOG2 POP JUMP JUMPDEST PUSH1 0x0 DUP3 DUP2 MSTORE PUSH1 0x49 PUSH1 0x20 MSTORE PUSH1 0x40 DUP2 KECCAK256 DUP1 SLOAD PUSH1 0x60 SWAP2 SWAP1 PUSH1 0x1 PUSH1 0xB0 SHL SWAP1 DIV PUSH1 0xFF AND PUSH2 0x27CE JUMPI PUSH1 0x0 SWAP3 POP POP PUSH2 0x1F60 JUMP JUMPDEST PUSH1 0x1 DUP2 ADD SLOAD DUP2 SLOAD PUSH1 0x1 PUSH1 0xA0 SHL SWAP1 DIV PUSH1 0xFF AND DUP2 PUSH8 0xFFFFFFFFFFFFFFFF DUP2 GT ISZERO PUSH2 0x27F8 JUMPI PUSH2 0x27F8 PUSH2 0x3565 JUMP JUMPDEST PUSH1 0x40 MLOAD SWAP1 DUP1 DUP3 MSTORE DUP1 PUSH1 0x20 MUL PUSH1 0x20 ADD DUP3 ADD PUSH1 0x40 MSTORE DUP1 ISZERO PUSH2 0x282B JUMPI DUP2 PUSH1 0x20 ADD JUMPDEST PUSH1 0x60 DUP2 MSTORE PUSH1 0x20 ADD SWAP1 PUSH1 0x1 SWAP1 SUB SWAP1 DUP2 PUSH2 0x2816 JUMPI SWAP1 POP JUMPDEST POP SWAP4 POP PUSH1 0x0 JUMPDEST DUP3 DUP2 LT ISZERO PUSH2 0x2976 JUMPI PUSH2 0x2845 PUSH1 0x2 PUSH1 0x1 PUSH2 0x3B4F JUMP JUMPDEST PUSH8 0xFFFFFFFFFFFFFFFF DUP2 GT ISZERO PUSH2 0x285D JUMPI PUSH2 0x285D PUSH2 0x3565 JUMP JUMPDEST PUSH1 0x40 MLOAD SWAP1 DUP1 DUP3 MSTORE DUP1 PUSH1 0x20 MUL PUSH1 0x20 ADD DUP3 ADD PUSH1 0x40 MSTORE DUP1 ISZERO PUSH2 0x2886 JUMPI DUP2 PUSH1 0x20 ADD PUSH1 0x20 DUP3 MUL DUP1 CALLDATASIZE DUP4 CALLDATACOPY ADD SWAP1 POP JUMPDEST POP DUP6 DUP3 DUP2 MLOAD DUP2 LT PUSH2 0x2899 JUMPI PUSH2 0x2899 PUSH2 0x3B75 JUMP JUMPDEST PUSH1 0x20 MUL PUSH1 0x20 ADD ADD DUP2 SWAP1 MSTORE POP PUSH1 0x0 DUP5 PUSH1 0x1 ADD DUP3 DUP2 SLOAD DUP2 LT PUSH2 0x28BB JUMPI PUSH2 0x28BB PUSH2 0x3B75 JUMP JUMPDEST SWAP1 PUSH1 0x0 MSTORE PUSH1 0x20 PUSH1 0x0 KECCAK256 SWAP1 PUSH1 0x6 MUL ADD SWAP1 POP PUSH1 0x0 JUMPDEST PUSH1 0x2 DUP2 GT PUSH2 0x296C JUMPI PUSH1 0x0 PUSH2 0x28F5 DUP4 DUP12 DUP5 PUSH1 0x2 DUP2 GT ISZERO PUSH2 0x28EF JUMPI PUSH2 0x28EF PUSH2 0x36DF JUMP JUMPDEST DUP9 PUSH2 0x327A JUMP JUMPDEST SWAP1 POP DUP1 ISZERO PUSH2 0x2959 JUMPI PUSH2 0x2914 DUP4 DUP12 DUP5 PUSH1 0x2 DUP2 GT ISZERO PUSH2 0x28EF JUMPI PUSH2 0x28EF PUSH2 0x36DF JUMP JUMPDEST PUSH2 0x291E SWAP1 DUP11 PUSH2 0x3B4F JUMP JUMPDEST SWAP9 POP DUP1 DUP9 DUP6 DUP2 MLOAD DUP2 LT PUSH2 0x2933 JUMPI PUSH2 0x2933 PUSH2 0x3B75 JUMP JUMPDEST PUSH1 0x20 MUL PUSH1 0x20 ADD ADD MLOAD DUP4 DUP2 MLOAD DUP2 LT PUSH2 0x294C JUMPI PUSH2 0x294C PUSH2 0x3B75 JUMP JUMPDEST PUSH1 0x20 MUL PUSH1 0x20 ADD ADD DUP2 DUP2 MSTORE POP POP JUMPDEST POP DUP1 PUSH2 0x2964 DUP2 PUSH2 0x3EBD JUMP JUMPDEST SWAP2 POP POP PUSH2 0x28CE JUMP JUMPDEST POP POP PUSH1 0x1 ADD PUSH2 0x2831 JUMP JUMPDEST POP POP POP POP SWAP3 POP SWAP3 SWAP1 POP JUMP JUMPDEST PUSH1 0x7 SLOAD PUSH2 0x100 SWAP1 DIV PUSH1 0x1 PUSH1 0x1 PUSH1 0xA0 SHL SUB AND CALLER EQ PUSH2 0x299D JUMPI PUSH1 0x0 DUP1 REVERT JUMPDEST PUSH1 0x0 DUP1 SLOAD PUSH21 0xFFFFFFFFFFFFFFFFFFFFFFFFFFFFFFFFFFFFFFFF00 NOT AND PUSH2 0x100 PUSH1 0x1 PUSH1 0x1 PUSH1 0xA0 SHL SUB DUP5 AND SWAP1 DUP2 MUL SWAP2 SWAP1 SWAP2 OR DUP3 SSTORE PUSH1 0x40 MLOAD SWAP1 SWAP2 PUSH32 0x8A3509A4057C89A5993A4A3140C2EBF7E829D325D8998EAA6C48ADCFF98B2CEF SWAP2 LOG2 POP JUMP JUMPDEST PUSH1 0x0 DUP1 DUP4 PUSH1 0x2 DUP2 GT ISZERO PUSH2 0x2A0F JUMPI PUSH2 0x2A0F PUSH2 0x36DF JUMP JUMPDEST DUP4 PUSH1 0x2 DUP2 GT ISZERO PUSH2 0x2A21 JUMPI PUSH2 0x2A21 PUSH2 0x36DF JUMP JUMPDEST EQ SWAP1 POP PUSH2 0x3E8 PUSH1 0x0 DUP3 PUSH2 0x2A36 JUMPI PUSH1 0x5 SLOAD PUSH2 0x2A3A JUMP JUMPDEST PUSH1 0x4 SLOAD JUMPDEST SWAP1 POP PUSH2 0x2A48 PUSH2 0x400 DUP3 PUSH2 0x3B4F JUMP JUMPDEST DUP3 PUSH2 0x400 PUSH1 0x5 SLOAD PUSH1 0x4 SLOAD PUSH2 0x2A5C SWAP2 SWAP1 PUSH2 0x3B4F JUMP JUMPDEST PUSH2 0x2A66 SWAP2 SWAP1 PUSH2 0x3B4F JUMP JUMPDEST PUSH2 0x2A70 SWAP2 SWAP1 PUSH2 0x3B16 JUMP JUMPDEST PUSH2 0x2A7A SWAP2 SWAP1 PUSH2 0x3B2D JUMP JUMPDEST SWAP7 SWAP6 POP POP POP POP POP POP JUMP JUMPDEST PUSH1 0x1 DUP1 SLOAD PUSH1 0x0 SWAP2 DUP3 SWAP1 SSTORE DUP2 SLOAD PUSH1 0x40 MLOAD SWAP2 SWAP3 PUSH2 0x100 SWAP1 SWAP2 DIV PUSH1 0x1 PUSH1 0x1 PUSH1 0xA0 SHL SUB AND SWAP2 PUSH2 0x8FC DUP5 ISZERO MUL SWAP2 DUP5 SWAP2 SWAP1 DUP2 DUP2 DUP2 DUP6 DUP9 DUP9 CALL POP POP PUSH1 0x40 MLOAD DUP5 SWAP4 POP PUSH32 0xB315332B30DC40D1E51DEF214CE42D93A73BD0C17B08DB04B34F10736BB2F06F SWAP3 POP PUSH1 0x0 SWAP2 POP LOG2 POP JUMP JUMPDEST PUSH1 0x7 SLOAD PUSH2 0x100 SWAP1 DIV PUSH1 0x1 PUSH1 0x1 PUSH1 0xA0 SHL SUB AND CALLER EQ PUSH2 0x2B05 JUMPI PUSH1 0x0 DUP1 REVERT JUMPDEST PUSH1 0x0 DUP1 SLOAD PUSH1 0xFF NOT DUP2 AND PUSH1 0xFF SWAP1 SWAP2 AND ISZERO OR SWAP1 SSTORE JUMP JUMPDEST PUSH9 0xFFFFFFFFFFFFFFFFFF DUP2 AND PUSH1 0x0 SWAP1 DUP2 MSTORE PUSH1 0x48 PUSH1 0x20 MSTORE PUSH1 0x40 SWAP1 KECCAK256 DUP1 SLOAD PUSH1 0x1 PUSH1 0x1 PUSH1 0xA0 SHL SUB AND CALLER EQ PUSH2 0x2B98 JUMPI PUSH1 0x40 MLOAD PUSH3 0x461BCD PUSH1 0xE5 SHL DUP2 MSTORE PUSH1 0x20 PUSH1 0x4 DUP3 ADD MSTORE PUSH1 0x24 DUP1 DUP3 ADD MSTORE PUSH32 0x4F6E6C7920617574686F722063616E20776974686472617720616E2061727469 PUSH1 0x44 DUP3 ADD MSTORE PUSH4 0x31B63297 PUSH1 0xE1 SHL PUSH1 0x64 DUP3 ADD MSTORE PUSH1 0x84 ADD PUSH2 0xABC JUMP JUMPDEST DUP1 SLOAD PUSH1 0x1 PUSH1 0xA0 SHL SWAP1 DIV PUSH4 0xFFFFFFFF AND ISZERO PUSH2 0x2C1A JUMPI PUSH1 0x40 MLOAD PUSH3 0x461BCD PUSH1 0xE5 SHL DUP2 MSTORE PUSH1 0x20 PUSH1 0x4 DUP3 ADD MSTORE PUSH1 0x35 PUSH1 0x24 DUP3 ADD MSTORE PUSH32 0x5769746864726177616C20616C726561647920696E69746961746564206F7220 PUSH1 0x44 DUP3 ADD MSTORE PUSH32 0x74686572652069732061206368616C6C656E67652E0000000000000000000000 PUSH1 0x64 DUP3 ADD MSTORE PUSH1 0x84 ADD PUSH2 0xABC JUMP JUMPDEST PUSH1 0x3 SLOAD PUSH2 0x2C27 SWAP1 TIMESTAMP PUSH2 0x3B4F JUMP JUMPDEST DUP2 SLOAD PUSH4 0xFFFFFFFF SWAP2 SWAP1 SWAP2 AND PUSH1 0x1 PUSH1 0xA0 SHL MUL PUSH4 0xFFFFFFFF PUSH1 0xA0 SHL NOT SWAP1 SWAP2 AND OR DUP2 SSTORE PUSH1 0x40 MLOAD PUSH9 0xFFFFFFFFFFFFFFFFFF DUP4 AND DUP2 MSTORE PUSH32 0x416C1AD2B96C356F3BBD35431F86CCE449DDBB4F8C3755EA9D2776B04C2E9C8F SWAP1 PUSH1 0x20 ADD PUSH2 0x1C92 JUMP JUMPDEST PUSH1 0x0 DUP3 DUP2 MSTORE PUSH1 0x49 PUSH1 0x20 MSTORE PUSH1 0x40 DUP2 KECCAK256 PUSH1 0x1 DUP2 ADD SLOAD SWAP1 SWAP2 JUMPDEST DUP2 DUP2 LT ISZERO PUSH2 0x2010 JUMPI PUSH1 0x0 JUMPDEST PUSH1 0x2 DUP2 GT PUSH2 0x2CD6 JUMPI PUSH2 0x2CC3 DUP7 DUP7 DUP5 DUP5 PUSH1 0x2 DUP2 GT ISZERO PUSH2 0x940 JUMPI PUSH2 0x940 PUSH2 0x36DF JUMP JUMPDEST POP DUP1 PUSH2 0x2CCE DUP2 PUSH2 0x3EBD JUMP JUMPDEST SWAP2 POP POP PUSH2 0x2CA3 JUMP JUMPDEST POP PUSH1 0x1 ADD PUSH2 0x2C98 JUMP JUMPDEST PUSH1 0x7 SLOAD PUSH2 0x100 SWAP1 DIV PUSH1 0x1 PUSH1 0x1 PUSH1 0xA0 SHL SUB AND CALLER EQ PUSH2 0x2CFB JUMPI PUSH1 0x0 DUP1 REVERT JUMPDEST PUSH1 0x2 DUP2 SWAP1 SSTORE PUSH1 0x40 MLOAD DUP2 SWAP1 PUSH32 0xBF39FAA024D2F97599A0095E84098EE2171B6681738416C0030F442BA956D52B SWAP1 PUSH1 0x0 SWAP1 LOG2 POP JUMP JUMPDEST PUSH1 0x0 DUP5 DUP2 MSTORE PUSH1 0x49 PUSH1 0x20 MSTORE PUSH1 0x40 DUP2 KECCAK256 DUP1 SLOAD PUSH1 0x1 PUSH1 0xB0 SHL SWAP1 DIV PUSH1 0xFF AND PUSH2 0x2D94 JUMPI PUSH1 0x40 MLOAD PUSH3 0x461BCD PUSH1 0xE5 SHL DUP2 MSTORE PUSH1 0x20 PUSH1 0x4 DUP3 ADD MSTORE PUSH1 0x17 PUSH1 0x24 DUP3 ADD MSTORE PUSH32 0x5468657265206973206E6F2072756C696E67207965742E000000000000000000 PUSH1 0x44 DUP3 ADD MSTORE PUSH1 0x64 ADD PUSH2 0xABC JUMP JUMPDEST PUSH1 0x0 DUP2 PUSH1 0x1 ADD DUP6 DUP2 SLOAD DUP2 LT PUSH2 0x2DAB JUMPI PUSH2 0x2DAB PUSH2 0x3B75 JUMP JUMPDEST SWAP1 PUSH1 0x0 MSTORE PUSH1 0x20 PUSH1 0x0 KECCAK256 SWAP1 PUSH1 0x6 MUL ADD SWAP1 POP PUSH2 0x2DD8 DUP2 DUP8 DUP7 DUP6 PUSH1 0x0 ADD PUSH1 0x14 SWAP1 SLOAD SWAP1 PUSH2 0x100 EXP SWAP1 DIV PUSH1 0xFF AND PUSH2 0x327A JUMP JUMPDEST SWAP3 POP DUP3 ISZERO PUSH2 0x2E88 JUMPI PUSH1 0x1 PUSH1 0x1 PUSH1 0xA0 SHL SUB DUP7 AND PUSH1 0x0 SWAP1 DUP2 MSTORE PUSH1 0x20 DUP3 SWAP1 MSTORE PUSH1 0x40 DUP2 KECCAK256 DUP6 PUSH1 0x2 DUP2 GT ISZERO PUSH2 0x2E0A JUMPI PUSH2 0x2E0A PUSH2 0x36DF JUMP JUMPDEST PUSH1 0x3 DUP2 LT PUSH2 0x2E1A JUMPI PUSH2 0x2E1A PUSH2 0x3B75 JUMP JUMPDEST ADD SSTORE PUSH1 0x40 MLOAD PUSH1 0x1 PUSH1 0x1 PUSH1 0xA0 SHL SUB DUP8 AND SWAP1 DUP5 ISZERO PUSH2 0x8FC MUL SWAP1 DUP6 SWAP1 PUSH1 0x0 DUP2 DUP2 DUP2 DUP6 DUP9 DUP9 CALL SWAP4 POP POP POP POP POP DUP6 PUSH1 0x1 PUSH1 0x1 PUSH1 0xA0 SHL SUB AND DUP6 DUP9 PUSH32 0xFF2B7C936D6023FEA901B3455CEFC23B124C1CA5997DC5B48C461FD20984289D DUP8 DUP8 PUSH1 0x40 MLOAD PUSH2 0x2E7F SWAP3 SWAP2 SWAP1 PUSH2 0x3CA6 JUMP JUMPDEST PUSH1 0x40 MLOAD DUP1 SWAP2 SUB SWAP1 LOG4 JUMPDEST POP POP SWAP5 SWAP4 POP POP POP POP JUMP JUMPDEST PUSH1 0x0 DUP1 JUMPDEST PUSH1 0x48 PUSH1 0x0 DUP5 PUSH2 0x2EA4 DUP2 PUSH2 0x3ED6 JUMP JUMPDEST SWAP6 POP PUSH9 0xFFFFFFFFFFFFFFFFFF AND PUSH9 0xFFFFFFFFFFFFFFFFFF AND DUP2 MSTORE PUSH1 0x20 ADD SWAP1 DUP2 MSTORE PUSH1 0x20 ADD PUSH1 0x0 KECCAK256 SWAP1 POP DUP1 PUSH1 0x0 ADD PUSH1 0x18 SWAP1 SLOAD SWAP1 PUSH2 0x100 EXP SWAP1 DIV PUSH7 0xFFFFFFFFFFFFFF AND PUSH7 0xFFFFFFFFFFFFFF AND PUSH1 0x0 SUB PUSH2 0x2E96 JUMPI PUSH2 0x2EFF PUSH1 0x1 DUP5 PUSH2 0x3EFC JUMP JUMPDEST PUSH9 0xFFFFFFFFFFFFFFFFFF AND SWAP4 SWAP3 POP POP POP JUMP JUMPDEST PUSH9 0xFFFFFFFFFFFFFFFFFF DUP3 AND PUSH1 0x0 SWAP1 DUP2 MSTORE PUSH1 0x48 PUSH1 0x20 MSTORE PUSH1 0x40 SWAP1 KECCAK256 DUP1 SLOAD PUSH1 0x1 PUSH1 0x1 PUSH1 0xA0 SHL SUB AND CALLER EQ PUSH2 0x2FAA JUMPI PUSH1 0x40 MLOAD PUSH3 0x461BCD PUSH1 0xE5 SHL DUP2 MSTORE PUSH1 0x20 PUSH1 0x4 DUP3 ADD MSTORE PUSH1 0x23 PUSH1 0x24 DUP3 ADD MSTORE PUSH32 0x4F6E6C7920617574686F722063616E207472616E73666572206F776E65727368 PUSH1 0x44 DUP3 ADD MSTORE PUSH32 0x69702E0000000000000000000000000000000000000000000000000000000000 PUSH1 0x64 DUP3 ADD MSTORE PUSH1 0x84 ADD PUSH2 0xABC JUMP JUMPDEST DUP1 SLOAD PUSH32 0xFFFFFFFFFFFFFFFFFFFFFFFF0000000000000000000000000000000000000000 AND PUSH1 0x1 PUSH1 0x1 PUSH1 0xA0 SHL SUB DUP4 AND SWAP1 DUP2 OR DUP3 SSTORE PUSH1 0x40 MLOAD PUSH32 0xDFC39691AEC87DC6AA51FF70C0E592F260C54D2ED6C64E8C4C2306DA0EEC872B SWAP1 PUSH1 0x0 SWAP1 LOG2 POP POP POP JUMP JUMPDEST PUSH1 0x7 SLOAD PUSH1 0xFF SWAP1 DUP2 AND SWAP1 DUP4 AND LT PUSH2 0x3063 JUMPI PUSH1 0x40 MLOAD PUSH3 0x461BCD PUSH1 0xE5 SHL DUP2 MSTORE PUSH1 0x20 PUSH1 0x4 DUP3 ADD MSTORE PUSH1 0x1C PUSH1 0x24 DUP3 ADD MSTORE PUSH32 0x546869732063617465676F727920646F6573206E6F7420657869737400000000 PUSH1 0x44 DUP3 ADD MSTORE PUSH1 0x64 ADD PUSH2 0xABC JUMP JUMPDEST PUSH1 0x0 JUMPDEST PUSH1 0x48 PUSH1 0x0 DUP4 PUSH2 0x3074 DUP2 PUSH2 0x3ED6 JUMP JUMPDEST SWAP5 POP PUSH9 0xFFFFFFFFFFFFFFFFFF AND PUSH9 0xFFFFFFFFFFFFFFFFFF AND DUP2 MSTORE PUSH1 0x20 ADD SWAP1 DUP2 MSTORE PUSH1 0x20 ADD PUSH1 0x0 KECCAK256 SWAP1 POP DUP1 PUSH1 0x0 ADD PUSH1 0x18 SWAP1 SLOAD SWAP1 PUSH2 0x100 EXP SWAP1 DIV PUSH7 0xFFFFFFFFFFFFFF AND PUSH7 0xFFFFFFFFFFFFFF AND PUSH1 0x0 SUB PUSH2 0x3066 JUMPI DUP1 SLOAD PUSH32 0xFF00000000000000FFFFFFFF0000000000000000000000000000000000000000 AND CALLER PUSH32 0xFF00000000000000FFFFFFFFFFFFFFFFFFFFFFFFFFFFFFFFFFFFFFFFFFFFFFFF AND OR PUSH1 0x1 PUSH1 0xC0 SHL CALLVALUE PUSH1 0x20 SHR PUSH7 0xFFFFFFFFFFFFFF SWAP1 DUP2 AND DUP3 MUL SWAP3 SWAP1 SWAP3 OR PUSH31 0xFFFFFFFFFFFFFFFFFFFFFFFFFFFFFFFFFFFFFFFFFFFFFFFFFFFFFFFFFFFFFF AND PUSH1 0x1 PUSH1 0xF8 SHL PUSH1 0xFF DUP8 AND MUL OR DUP1 DUP5 SSTORE DIV AND PUSH2 0x31C9 JUMPI PUSH1 0x40 MLOAD PUSH3 0x461BCD PUSH1 0xE5 SHL DUP2 MSTORE PUSH1 0x20 PUSH1 0x4 DUP3 ADD MSTORE PUSH1 0x39 PUSH1 0x24 DUP3 ADD MSTORE PUSH32 0x596F752063616E277420696E697469616C697A6520616E2061727469636C6520 PUSH1 0x44 DUP3 ADD MSTORE PUSH32 0x776974686F75742070757474696E67206120626F756E74792E00000000000000 PUSH1 0x64 DUP3 ADD MSTORE PUSH1 0x84 ADD PUSH2 0xABC JUMP JUMPDEST PUSH1 0x0 PUSH2 0x31D6 PUSH1 0x1 DUP5 PUSH2 0x3EFC JUMP JUMPDEST PUSH9 0xFFFFFFFFFFFFFFFFFF AND SWAP1 POP PUSH32 0x4F9A2B734331C583FAF3F19D1FEB5F08B742E016A56FB61379950BEAF3E22341 DUP7 DUP7 DUP7 DUP5 PUSH1 0x40 MLOAD PUSH2 0x3218 SWAP5 SWAP4 SWAP3 SWAP2 SWAP1 PUSH2 0x3F1D JUMP JUMPDEST PUSH1 0x40 MLOAD DUP1 SWAP2 SUB SWAP1 LOG1 DUP2 SLOAD PUSH1 0x40 DUP1 MLOAD DUP4 DUP2 MSTORE PUSH1 0x1 PUSH1 0xC0 SHL SWAP1 SWAP3 DIV PUSH1 0x20 SWAP1 DUP2 SHL PUSH11 0xFFFFFFFFFFFFFF00000000 AND SWAP1 DUP4 ADD MSTORE PUSH32 0xDF5FC410D3381CC7F0A7FE3AF72F4E3CF53EF5787F20554AF69035A950E1B2E3 SWAP2 ADD PUSH1 0x40 MLOAD DUP1 SWAP2 SUB SWAP1 LOG1 POP POP POP POP POP POP JUMP JUMPDEST PUSH1 0x0 DUP3 PUSH1 0x1 DUP7 ADD DUP2 PUSH1 0x2 DUP2 GT ISZERO PUSH2 0x3293 JUMPI PUSH2 0x3293 PUSH2 0x36DF JUMP JUMPDEST PUSH1 0x3 DUP2 LT PUSH2 0x32A3 JUMPI PUSH2 0x32A3 PUSH2 0x3B75 JUMP JUMPDEST PUSH1 0x20 DUP2 DIV SWAP1 SWAP2 ADD SLOAD PUSH1 0xFF PUSH1 0x1F SWAP1 SWAP3 AND PUSH2 0x100 EXP SWAP1 DIV AND PUSH2 0x3300 JUMPI PUSH1 0x1 PUSH1 0x1 PUSH1 0xA0 SHL SUB DUP6 AND PUSH1 0x0 SWAP1 DUP2 MSTORE PUSH1 0x20 DUP8 SWAP1 MSTORE PUSH1 0x40 SWAP1 KECCAK256 DUP2 PUSH1 0x2 DUP2 GT ISZERO PUSH2 0x32E7 JUMPI PUSH2 0x32E7 PUSH2 0x36DF JUMP JUMPDEST PUSH1 0x3 DUP2 LT PUSH2 0x32F7 JUMPI PUSH2 0x32F7 PUSH2 0x3B75 JUMP JUMPDEST ADD SLOAD SWAP2 POP PUSH2 0x348F JUMP JUMPDEST DUP3 PUSH1 0x2 DUP2 GT ISZERO PUSH2 0x3312 JUMPI PUSH2 0x3312 PUSH2 0x36DF JUMP JUMPDEST DUP5 PUSH1 0x2 DUP2 GT ISZERO PUSH2 0x3324 JUMPI PUSH2 0x3324 PUSH2 0x36DF JUMP JUMPDEST SUB PUSH2 0x33E3 JUMPI PUSH1 0x0 DUP7 PUSH1 0x2 ADD DUP3 PUSH1 0x2 DUP2 GT ISZERO PUSH2 0x3341 JUMPI PUSH2 0x3341 PUSH2 0x36DF JUMP JUMPDEST PUSH1 0x3 DUP2 LT PUSH2 0x3351 JUMPI PUSH2 0x3351 PUSH2 0x3B75 JUMP JUMPDEST ADD SLOAD GT PUSH2 0x335F JUMPI PUSH1 0x0 PUSH2 0x33DC JUMP JUMPDEST DUP6 PUSH1 0x2 ADD DUP2 PUSH1 0x2 DUP2 GT ISZERO PUSH2 0x3375 JUMPI PUSH2 0x3375 PUSH2 0x36DF JUMP JUMPDEST PUSH1 0x3 DUP2 LT PUSH2 0x3385 JUMPI PUSH2 0x3385 PUSH2 0x3B75 JUMP JUMPDEST ADD SLOAD PUSH1 0x5 DUP8 ADD SLOAD PUSH1 0x1 PUSH1 0x1 PUSH1 0xA0 SHL SUB DUP8 AND PUSH1 0x0 SWAP1 DUP2 MSTORE PUSH1 0x20 DUP10 SWAP1 MSTORE PUSH1 0x40 SWAP1 KECCAK256 DUP4 PUSH1 0x2 DUP2 GT ISZERO PUSH2 0x33B6 JUMPI PUSH2 0x33B6 PUSH2 0x36DF JUMP JUMPDEST PUSH1 0x3 DUP2 LT PUSH2 0x33C6 JUMPI PUSH2 0x33C6 PUSH2 0x3B75 JUMP JUMPDEST ADD SLOAD PUSH2 0x33D2 SWAP2 SWAP1 PUSH2 0x3B16 JUMP JUMPDEST PUSH2 0x33DC SWAP2 SWAP1 PUSH2 0x3B2D JUMP JUMPDEST SWAP2 POP PUSH2 0x348F JUMP JUMPDEST DUP6 PUSH1 0x1 ADD DUP4 PUSH1 0x2 DUP2 GT ISZERO PUSH2 0x33F9 JUMPI PUSH2 0x33F9 PUSH2 0x36DF JUMP JUMPDEST PUSH1 0x3 DUP2 LT PUSH2 0x3409 JUMPI PUSH2 0x3409 PUSH2 0x3B75 JUMP JUMPDEST PUSH1 0x20 DUP2 DIV SWAP1 SWAP2 ADD SLOAD PUSH1 0xFF PUSH1 0x1F SWAP1 SWAP3 AND PUSH2 0x100 EXP SWAP1 DIV AND PUSH2 0x348F JUMPI PUSH1 0x4 DUP7 ADD SLOAD PUSH1 0x3 DUP8 ADD SLOAD PUSH2 0x3437 SWAP2 SWAP1 PUSH2 0x3B4F JUMP JUMPDEST PUSH1 0x5 DUP8 ADD SLOAD PUSH1 0x1 PUSH1 0x1 PUSH1 0xA0 SHL SUB DUP8 AND PUSH1 0x0 SWAP1 DUP2 MSTORE PUSH1 0x20 DUP10 SWAP1 MSTORE PUSH1 0x40 SWAP1 KECCAK256 DUP4 PUSH1 0x2 DUP2 GT ISZERO PUSH2 0x3466 JUMPI PUSH2 0x3466 PUSH2 0x36DF JUMP JUMPDEST PUSH1 0x3 DUP2 LT PUSH2 0x3476 JUMPI PUSH2 0x3476 PUSH2 0x3B75 JUMP JUMPDEST ADD SLOAD PUSH2 0x3482 SWAP2 SWAP1 PUSH2 0x3B16 JUMP JUMPDEST PUSH2 0x348C SWAP2 SWAP1 PUSH2 0x3B2D JUMP JUMPDEST SWAP2 POP JUMPDEST POP SWAP5 SWAP4 POP POP POP POP JUMP JUMPDEST PUSH1 0x40 MLOAD DUP1 PUSH1 0x60 ADD PUSH1 0x40 MSTORE DUP1 PUSH1 0x3 SWAP1 PUSH1 0x20 DUP3 MUL DUP1 CALLDATASIZE DUP4 CALLDATACOPY POP SWAP2 SWAP3 SWAP2 POP POP JUMP JUMPDEST DUP1 CALLDATALOAD PUSH9 0xFFFFFFFFFFFFFFFFFF DUP2 AND DUP2 EQ PUSH2 0x34CF JUMPI PUSH1 0x0 DUP1 REVERT JUMPDEST SWAP2 SWAP1 POP JUMP JUMPDEST PUSH1 0x0 PUSH1 0x20 DUP3 DUP5 SUB SLT ISZERO PUSH2 0x34E6 JUMPI PUSH1 0x0 DUP1 REVERT JUMPDEST PUSH2 0x16D9 DUP3 PUSH2 0x34B6 JUMP JUMPDEST DUP1 CALLDATALOAD PUSH1 0x3 DUP2 LT PUSH2 0x34CF JUMPI PUSH1 0x0 DUP1 REVERT JUMPDEST PUSH1 0x0 DUP1 PUSH1 0x40 DUP4 DUP6 SUB SLT ISZERO PUSH2 0x3511 JUMPI PUSH1 0x0 DUP1 REVERT JUMPDEST DUP3 CALLDATALOAD SWAP2 POP PUSH2 0x3521 PUSH1 0x20 DUP5 ADD PUSH2 0x34EF JUMP JUMPDEST SWAP1 POP SWAP3 POP SWAP3 SWAP1 POP JUMP JUMPDEST PUSH1 0x0 PUSH1 0x20 DUP3 DUP5 SUB SLT ISZERO PUSH2 0x353C JUMPI PUSH1 0x0 DUP1 REVERT JUMPDEST POP CALLDATALOAD SWAP2 SWAP1 POP JUMP JUMPDEST PUSH1 0x0 DUP1 PUSH1 0x40 DUP4 DUP6 SUB SLT ISZERO PUSH2 0x3556 JUMPI PUSH1 0x0 DUP1 REVERT JUMPDEST POP POP DUP1 CALLDATALOAD SWAP3 PUSH1 0x20 SWAP1 SWAP2 ADD CALLDATALOAD SWAP2 POP JUMP JUMPDEST PUSH4 0x4E487B71 PUSH1 0xE0 SHL PUSH1 0x0 MSTORE PUSH1 0x41 PUSH1 0x4 MSTORE PUSH1 0x24 PUSH1 0x0 REVERT JUMPDEST PUSH1 0x0 DUP1 PUSH8 0xFFFFFFFFFFFFFFFF DUP5 GT ISZERO PUSH2 0x3596 JUMPI PUSH2 0x3596 PUSH2 0x3565 JUMP JUMPDEST POP PUSH1 0x40 MLOAD PUSH1 0x1F NOT PUSH1 0x1F DUP6 ADD DUP2 AND PUSH1 0x3F ADD AND DUP2 ADD DUP2 DUP2 LT PUSH8 0xFFFFFFFFFFFFFFFF DUP3 GT OR ISZERO PUSH2 0x35C5 JUMPI PUSH2 0x35C5 PUSH2 0x3565 JUMP JUMPDEST PUSH1 0x40 MSTORE DUP4 DUP2 MSTORE SWAP1 POP DUP1 DUP3 DUP5 ADD DUP6 LT ISZERO PUSH2 0x35DD JUMPI PUSH1 0x0 DUP1 REVERT JUMPDEST DUP4 DUP4 PUSH1 0x20 DUP4 ADD CALLDATACOPY PUSH1 0x0 PUSH1 0x20 DUP6 DUP4 ADD ADD MSTORE POP SWAP4 SWAP3 POP POP POP JUMP JUMPDEST PUSH1 0x0 DUP1 PUSH1 0x40 DUP4 DUP6 SUB SLT ISZERO PUSH2 0x3608 JUMPI PUSH1 0x0 DUP1 REVERT JUMPDEST DUP3 CALLDATALOAD PUSH8 0xFFFFFFFFFFFFFFFF DUP2 GT ISZERO PUSH2 0x361F JUMPI PUSH1 0x0 DUP1 REVERT JUMPDEST DUP4 ADD PUSH1 0x1F DUP2 ADD DUP6 SGT PUSH2 0x3630 JUMPI PUSH1 0x0 DUP1 REVERT JUMPDEST PUSH2 0x363F DUP6 DUP3 CALLDATALOAD PUSH1 0x20 DUP5 ADD PUSH2 0x357B JUMP JUMPDEST SWAP3 POP POP PUSH1 0x20 DUP4 ADD CALLDATALOAD PUSH8 0xFFFFFFFFFFFFFFFF DUP2 GT ISZERO PUSH2 0x365C JUMPI PUSH1 0x0 DUP1 REVERT JUMPDEST DUP4 ADD PUSH1 0x1F DUP2 ADD DUP6 SGT PUSH2 0x366D JUMPI PUSH1 0x0 DUP1 REVERT JUMPDEST PUSH2 0x367C DUP6 DUP3 CALLDATALOAD PUSH1 0x20 DUP5 ADD PUSH2 0x357B JUMP JUMPDEST SWAP2 POP POP SWAP3 POP SWAP3 SWAP1 POP JUMP JUMPDEST PUSH1 0x0 DUP2 MLOAD DUP1 DUP5 MSTORE PUSH1 0x0 JUMPDEST DUP2 DUP2 LT ISZERO PUSH2 0x36AC JUMPI PUSH1 0x20 DUP2 DUP6 ADD DUP2 ADD MLOAD DUP7 DUP4 ADD DUP3 ADD MSTORE ADD PUSH2 0x3690 JUMP JUMPDEST POP PUSH1 0x0 PUSH1 0x20 DUP3 DUP7 ADD ADD MSTORE PUSH1 0x20 PUSH1 0x1F NOT PUSH1 0x1F DUP4 ADD AND DUP6 ADD ADD SWAP2 POP POP SWAP3 SWAP2 POP POP JUMP JUMPDEST PUSH1 0x20 DUP2 MSTORE PUSH1 0x0 PUSH2 0x16D9 PUSH1 0x20 DUP4 ADD DUP5 PUSH2 0x3686 JUMP JUMPDEST PUSH4 0x4E487B71 PUSH1 0xE0 SHL PUSH1 0x0 MSTORE PUSH1 0x21 PUSH1 0x4 MSTORE PUSH1 0x24 PUSH1 0x0 REVERT JUMPDEST PUSH1 0x3 DUP2 LT PUSH2 0x3713 JUMPI PUSH4 0x4E487B71 PUSH1 0xE0 SHL PUSH1 0x0 MSTORE PUSH1 0x21 PUSH1 0x4 MSTORE PUSH1 0x24 PUSH1 0x0 REVERT JUMPDEST SWAP1 MSTORE JUMP JUMPDEST PUSH1 0x1 PUSH1 0x1 PUSH1 0xA0 SHL SUB DUP7 AND DUP2 MSTORE PUSH1 0xA0 DUP2 ADD PUSH2 0x3734 PUSH1 0x20 DUP4 ADD DUP8 PUSH2 0x36F5 JUMP JUMPDEST PUSH1 0xFF SWAP5 SWAP1 SWAP5 AND PUSH1 0x40 DUP3 ADD MSTORE SWAP2 ISZERO ISZERO PUSH1 0x60 DUP4 ADD MSTORE PUSH9 0xFFFFFFFFFFFFFFFFFF AND PUSH1 0x80 SWAP1 SWAP2 ADD MSTORE SWAP3 SWAP2 POP POP JUMP JUMPDEST DUP1 CALLDATALOAD PUSH1 0x1 PUSH1 0x1 PUSH1 0xA0 SHL SUB DUP2 AND DUP2 EQ PUSH2 0x34CF JUMPI PUSH1 0x0 DUP1 REVERT JUMPDEST PUSH1 0x0 DUP1 PUSH1 0x0 DUP1 PUSH1 0x60 DUP6 DUP8 SUB SLT ISZERO PUSH2 0x378B JUMPI PUSH1 0x0 DUP1 REVERT JUMPDEST DUP5 CALLDATALOAD SWAP4 POP PUSH2 0x379B PUSH1 0x20 DUP7 ADD PUSH2 0x375E JUMP JUMPDEST SWAP3 POP PUSH1 0x40 DUP6 ADD CALLDATALOAD PUSH8 0xFFFFFFFFFFFFFFFF DUP2 GT ISZERO PUSH2 0x37B7 JUMPI PUSH1 0x0 DUP1 REVERT JUMPDEST DUP6 ADD PUSH1 0x1F DUP2 ADD DUP8 SGT PUSH2 0x37C8 JUMPI PUSH1 0x0 DUP1 REVERT JUMPDEST DUP1 CALLDATALOAD PUSH8 0xFFFFFFFFFFFFFFFF DUP2 GT ISZERO PUSH2 0x37DF JUMPI PUSH1 0x0 DUP1 REVERT JUMPDEST DUP8 PUSH1 0x20 DUP3 PUSH1 0x5 SHL DUP5 ADD ADD GT ISZERO PUSH2 0x37F4 JUMPI PUSH1 0x0 DUP1 REVERT JUMPDEST SWAP5 SWAP8 SWAP4 SWAP7 POP PUSH1 0x20 ADD SWAP5 POP POP POP JUMP JUMPDEST PUSH1 0x0 DUP1 PUSH1 0x0 PUSH1 0x60 DUP5 DUP7 SUB SLT ISZERO PUSH2 0x3817 JUMPI PUSH1 0x0 DUP1 REVERT JUMPDEST DUP4 CALLDATALOAD SWAP3 POP PUSH2 0x3827 PUSH1 0x20 DUP6 ADD PUSH2 0x375E JUMP JUMPDEST SWAP2 POP PUSH2 0x3835 PUSH1 0x40 DUP6 ADD PUSH2 0x34EF JUMP JUMPDEST SWAP1 POP SWAP3 POP SWAP3 POP SWAP3 JUMP JUMPDEST PUSH1 0xE0 DUP2 ADD DUP2 DUP6 PUSH1 0x0 JUMPDEST PUSH1 0x3 DUP2 LT ISZERO PUSH2 0x3868 JUMPI DUP2 MLOAD ISZERO ISZERO DUP4 MSTORE PUSH1 0x20 SWAP3 DUP4 ADD SWAP3 SWAP1 SWAP2 ADD SWAP1 PUSH1 0x1 ADD PUSH2 0x3847 JUMP JUMPDEST POP POP POP PUSH1 0x60 DUP3 ADD DUP5 PUSH1 0x0 JUMPDEST PUSH1 0x3 DUP2 LT ISZERO PUSH2 0x3892 JUMPI DUP2 MLOAD DUP4 MSTORE PUSH1 0x20 SWAP3 DUP4 ADD SWAP3 SWAP1 SWAP2 ADD SWAP1 PUSH1 0x1 ADD PUSH2 0x3873 JUMP JUMPDEST POP POP POP DUP3 PUSH1 0xC0 DUP4 ADD MSTORE SWAP5 SWAP4 POP POP POP POP JUMP JUMPDEST PUSH1 0x0 PUSH1 0x20 DUP3 DUP5 SUB SLT ISZERO PUSH2 0x38B5 JUMPI PUSH1 0x0 DUP1 REVERT JUMPDEST PUSH2 0x16D9 DUP3 PUSH2 0x375E JUMP JUMPDEST PUSH1 0x0 DUP1 DUP4 PUSH1 0x1F DUP5 ADD SLT PUSH2 0x38D0 JUMPI PUSH1 0x0 DUP1 REVERT JUMPDEST POP DUP2 CALLDATALOAD PUSH8 0xFFFFFFFFFFFFFFFF DUP2 GT ISZERO PUSH2 0x38E8 JUMPI PUSH1 0x0 DUP1 REVERT JUMPDEST PUSH1 0x20 DUP4 ADD SWAP2 POP DUP4 PUSH1 0x20 DUP3 DUP6 ADD ADD GT ISZERO PUSH2 0x1F60 JUMPI PUSH1 0x0 DUP1 REVERT JUMPDEST PUSH1 0x0 DUP1 PUSH1 0x0 PUSH1 0x40 DUP5 DUP7 SUB SLT ISZERO PUSH2 0x3915 JUMPI PUSH1 0x0 DUP1 REVERT JUMPDEST DUP4 CALLDATALOAD SWAP3 POP PUSH1 0x20 DUP5 ADD CALLDATALOAD PUSH8 0xFFFFFFFFFFFFFFFF DUP2 GT ISZERO PUSH2 0x3933 JUMPI PUSH1 0x0 DUP1 REVERT JUMPDEST PUSH2 0x393F DUP7 DUP3 DUP8 ADD PUSH2 0x38BE JUMP JUMPDEST SWAP5 SWAP8 SWAP1 SWAP7 POP SWAP4 SWAP5 POP POP POP POP JUMP JUMPDEST PUSH1 0x0 DUP1 PUSH1 0x40 DUP4 DUP6 SUB SLT ISZERO PUSH2 0x395F JUMPI PUSH1 0x0 DUP1 REVERT JUMPDEST DUP3 CALLDATALOAD SWAP2 POP PUSH2 0x3521 PUSH1 0x20 DUP5 ADD PUSH2 0x375E JUMP JUMPDEST PUSH1 0x0 PUSH1 0x40 DUP3 ADD DUP5 DUP4 MSTORE PUSH1 0x40 PUSH1 0x20 DUP5 ADD MSTORE DUP1 DUP5 MLOAD DUP1 DUP4 MSTORE PUSH1 0x60 DUP6 ADD SWAP2 POP PUSH1 0x60 DUP2 PUSH1 0x5 SHL DUP7 ADD ADD SWAP3 POP PUSH1 0x20 DUP7 ADD PUSH1 0x0 JUMPDEST DUP3 DUP2 LT ISZERO PUSH2 0x39F8 JUMPI DUP7 DUP6 SUB PUSH1 0x5F NOT ADD DUP5 MSTORE DUP2 MLOAD DUP1 MLOAD DUP1 DUP8 MSTORE PUSH1 0x20 SWAP2 DUP3 ADD SWAP2 DUP8 ADD SWAP1 PUSH1 0x0 JUMPDEST DUP2 DUP2 LT ISZERO PUSH2 0x39DF JUMPI DUP4 MLOAD DUP4 MSTORE PUSH1 0x20 SWAP4 DUP5 ADD SWAP4 SWAP1 SWAP3 ADD SWAP2 PUSH1 0x1 ADD PUSH2 0x39C1 JUMP JUMPDEST POP SWAP1 SWAP7 POP POP POP PUSH1 0x20 SWAP4 DUP5 ADD SWAP4 SWAP2 SWAP1 SWAP2 ADD SWAP1 PUSH1 0x1 ADD PUSH2 0x399D JUMP JUMPDEST POP SWAP3 SWAP8 SWAP7 POP POP POP POP POP POP POP JUMP JUMPDEST PUSH1 0x0 DUP1 PUSH1 0x40 DUP4 DUP6 SUB SLT ISZERO PUSH2 0x3A18 JUMPI PUSH1 0x0 DUP1 REVERT JUMPDEST PUSH2 0x3A21 DUP4 PUSH2 0x34EF JUMP JUMPDEST SWAP2 POP PUSH2 0x3521 PUSH1 0x20 DUP5 ADD PUSH2 0x34EF JUMP JUMPDEST PUSH1 0x0 DUP1 PUSH1 0x0 DUP1 PUSH1 0x80 DUP6 DUP8 SUB SLT ISZERO PUSH2 0x3A45 JUMPI PUSH1 0x0 DUP1 REVERT JUMPDEST DUP5 CALLDATALOAD SWAP4 POP PUSH2 0x3A55 PUSH1 0x20 DUP7 ADD PUSH2 0x375E JUMP JUMPDEST SWAP3 POP PUSH1 0x40 DUP6 ADD CALLDATALOAD SWAP2 POP PUSH2 0x3A6A PUSH1 0x60 DUP7 ADD PUSH2 0x34EF JUMP JUMPDEST SWAP1 POP SWAP3 SWAP6 SWAP2 SWAP5 POP SWAP3 POP JUMP JUMPDEST PUSH1 0x0 DUP1 PUSH1 0x40 DUP4 DUP6 SUB SLT ISZERO PUSH2 0x3A88 JUMPI PUSH1 0x0 DUP1 REVERT JUMPDEST PUSH2 0x3A91 DUP4 PUSH2 0x34B6 JUMP JUMPDEST SWAP2 POP PUSH2 0x3521 PUSH1 0x20 DUP5 ADD PUSH2 0x375E JUMP JUMPDEST PUSH1 0x0 DUP1 PUSH1 0x0 DUP1 PUSH1 0x60 DUP6 DUP8 SUB SLT ISZERO PUSH2 0x3AB5 JUMPI PUSH1 0x0 DUP1 REVERT JUMPDEST DUP5 CALLDATALOAD PUSH8 0xFFFFFFFFFFFFFFFF DUP2 GT ISZERO PUSH2 0x3ACC JUMPI PUSH1 0x0 DUP1 REVERT JUMPDEST PUSH2 0x3AD8 DUP8 DUP3 DUP9 ADD PUSH2 0x38BE JUMP JUMPDEST SWAP1 SWAP6 POP SWAP4 POP POP PUSH1 0x20 DUP6 ADD CALLDATALOAD PUSH1 0xFF DUP2 AND DUP2 EQ PUSH2 0x3AF2 JUMPI PUSH1 0x0 DUP1 REVERT JUMPDEST SWAP2 POP PUSH2 0x3A6A PUSH1 0x40 DUP7 ADD PUSH2 0x34B6 JUMP JUMPDEST PUSH4 0x4E487B71 PUSH1 0xE0 SHL PUSH1 0x0 MSTORE PUSH1 0x11 PUSH1 0x4 MSTORE PUSH1 0x24 PUSH1 0x0 REVERT JUMPDEST DUP1 DUP3 MUL DUP2 ISZERO DUP3 DUP3 DIV DUP5 EQ OR PUSH2 0x1611 JUMPI PUSH2 0x1611 PUSH2 0x3B00 JUMP JUMPDEST PUSH1 0x0 DUP3 PUSH2 0x3B4A JUMPI PUSH4 0x4E487B71 PUSH1 0xE0 SHL PUSH1 0x0 MSTORE PUSH1 0x12 PUSH1 0x4 MSTORE PUSH1 0x24 PUSH1 0x0 REVERT JUMPDEST POP DIV SWAP1 JUMP JUMPDEST DUP1 DUP3 ADD DUP1 DUP3 GT ISZERO PUSH2 0x1611 JUMPI PUSH2 0x1611 PUSH2 0x3B00 JUMP JUMPDEST DUP2 DUP2 SUB DUP2 DUP2 GT ISZERO PUSH2 0x1611 JUMPI PUSH2 0x1611 PUSH2 0x3B00 JUMP JUMPDEST PUSH4 0x4E487B71 PUSH1 0xE0 SHL PUSH1 0x0 MSTORE PUSH1 0x32 PUSH1 0x4 MSTORE PUSH1 0x24 PUSH1 0x0 REVERT JUMPDEST PUSH1 0x1 DUP2 DUP2 SHR SWAP1 DUP3 AND DUP1 PUSH2 0x3B9F JUMPI PUSH1 0x7F DUP3 AND SWAP2 POP JUMPDEST PUSH1 0x20 DUP3 LT DUP2 SUB PUSH2 0x3BBF JUMPI PUSH4 0x4E487B71 PUSH1 0xE0 SHL PUSH1 0x0 MSTORE PUSH1 0x22 PUSH1 0x4 MSTORE PUSH1 0x24 PUSH1 0x0 REVERT JUMPDEST POP SWAP2 SWAP1 POP JUMP JUMPDEST PUSH1 0x0 DUP2 SLOAD PUSH2 0x3BD2 DUP2 PUSH2 0x3B8B JUMP JUMPDEST DUP1 DUP6 MSTORE PUSH1 0x1 DUP3 AND DUP1 ISZERO PUSH2 0x3BEC JUMPI PUSH1 0x1 DUP2 EQ PUSH2 0x3C08 JUMPI PUSH2 0x3C3F JUMP JUMPDEST PUSH1 0xFF NOT DUP4 AND PUSH1 0x20 DUP8 ADD MSTORE PUSH1 0x20 DUP3 ISZERO ISZERO PUSH1 0x5 SHL DUP8 ADD ADD SWAP4 POP PUSH2 0x3C3F JUMP JUMPDEST DUP5 PUSH1 0x0 MSTORE PUSH1 0x20 PUSH1 0x0 KECCAK256 PUSH1 0x0 JUMPDEST DUP4 DUP2 LT ISZERO PUSH2 0x3C36 JUMPI DUP2 SLOAD PUSH1 0x20 DUP3 DUP11 ADD ADD MSTORE PUSH1 0x1 DUP3 ADD SWAP2 POP PUSH1 0x20 DUP2 ADD SWAP1 POP PUSH2 0x3C14 JUMP JUMPDEST DUP8 ADD PUSH1 0x20 ADD SWAP5 POP POP JUMPDEST POP POP POP SWAP3 SWAP2 POP POP JUMP JUMPDEST DUP3 DUP2 MSTORE PUSH1 0x40 PUSH1 0x20 DUP3 ADD MSTORE PUSH1 0x0 PUSH2 0x3C61 PUSH1 0x40 DUP4 ADD DUP5 PUSH2 0x3BC5 JUMP JUMPDEST SWAP5 SWAP4 POP POP POP POP JUMP JUMPDEST PUSH1 0x0 PUSH1 0x20 DUP3 DUP5 SUB SLT ISZERO PUSH2 0x3C7B JUMPI PUSH1 0x0 DUP1 REVERT JUMPDEST POP MLOAD SWAP2 SWAP1 POP JUMP JUMPDEST PUSH1 0x0 DUP1 PUSH1 0x40 DUP4 DUP6 SUB SLT ISZERO PUSH2 0x3C95 JUMPI PUSH1 0x0 DUP1 REVERT JUMPDEST POP POP DUP1 MLOAD PUSH1 0x20 SWAP1 SWAP2 ADD MLOAD SWAP1 SWAP3 SWAP1 SWAP2 POP JUMP JUMPDEST PUSH1 0x40 DUP2 ADD PUSH2 0x3CB4 DUP3 DUP6 PUSH2 0x36F5 JUMP JUMPDEST DUP3 PUSH1 0x20 DUP4 ADD MSTORE SWAP4 SWAP3 POP POP POP JUMP JUMPDEST PUSH1 0x20 DUP2 MSTORE PUSH1 0x0 PUSH2 0x16D9 PUSH1 0x20 DUP4 ADD DUP5 PUSH2 0x3BC5 JUMP JUMPDEST PUSH7 0xFFFFFFFFFFFFFF DUP2 DUP2 AND DUP4 DUP3 AND ADD SWAP1 DUP2 GT ISZERO PUSH2 0x1611 JUMPI PUSH2 0x1611 PUSH2 0x3B00 JUMP JUMPDEST PUSH1 0xFF DUP2 DUP2 AND DUP4 DUP3 AND ADD SWAP1 DUP2 GT ISZERO PUSH2 0x1611 JUMPI PUSH2 0x1611 PUSH2 0x3B00 JUMP JUMPDEST PUSH1 0x1F DUP3 GT ISZERO PUSH2 0x3D53 JUMPI DUP1 PUSH1 0x0 MSTORE PUSH1 0x20 PUSH1 0x0 KECCAK256 PUSH1 0x1F DUP5 ADD PUSH1 0x5 SHR DUP2 ADD PUSH1 0x20 DUP6 LT ISZERO PUSH2 0x3D33 JUMPI POP DUP1 JUMPDEST PUSH1 0x1F DUP5 ADD PUSH1 0x5 SHR DUP3 ADD SWAP2 POP JUMPDEST DUP2 DUP2 LT ISZERO PUSH2 0x2010 JUMPI PUSH1 0x0 DUP2 SSTORE PUSH1 0x1 ADD PUSH2 0x3D3F JUMP JUMPDEST POP POP POP JUMP JUMPDEST DUP2 MLOAD PUSH8 0xFFFFFFFFFFFFFFFF DUP2 GT ISZERO PUSH2 0x3D72 JUMPI PUSH2 0x3D72 PUSH2 0x3565 JUMP JUMPDEST PUSH2 0x3D86 DUP2 PUSH2 0x3D80 DUP5 SLOAD PUSH2 0x3B8B JUMP JUMPDEST DUP5 PUSH2 0x3D0C JUMP JUMPDEST PUSH1 0x20 PUSH1 0x1F DUP3 GT PUSH1 0x1 DUP2 EQ PUSH2 0x3DBA JUMPI PUSH1 0x0 DUP4 ISZERO PUSH2 0x3DA2 JUMPI POP DUP5 DUP3 ADD MLOAD JUMPDEST PUSH1 0x0 NOT PUSH1 0x3 DUP6 SWAP1 SHL SHR NOT AND PUSH1 0x1 DUP5 SWAP1 SHL OR DUP5 SSTORE PUSH2 0x2010 JUMP JUMPDEST PUSH1 0x0 DUP5 DUP2 MSTORE PUSH1 0x20 DUP2 KECCAK256 PUSH1 0x1F NOT DUP6 AND SWAP2 JUMPDEST DUP3 DUP2 LT ISZERO PUSH2 0x3DEA JUMPI DUP8 DUP6 ADD MLOAD DUP3 SSTORE PUSH1 0x20 SWAP5 DUP6 ADD SWAP5 PUSH1 0x1 SWAP1 SWAP3 ADD SWAP2 ADD PUSH2 0x3DCA JUMP JUMPDEST POP DUP5 DUP3 LT ISZERO PUSH2 0x3E08 JUMPI DUP7 DUP5 ADD MLOAD PUSH1 0x0 NOT PUSH1 0x3 DUP8 SWAP1 SHL PUSH1 0xF8 AND SHR NOT AND DUP2 SSTORE JUMPDEST POP POP POP POP PUSH1 0x1 SWAP1 DUP2 SHL ADD SWAP1 SSTORE POP JUMP JUMPDEST PUSH1 0x0 PUSH1 0xFF DUP3 AND PUSH1 0xFF DUP2 SUB PUSH2 0x3E2D JUMPI PUSH2 0x3E2D PUSH2 0x3B00 JUMP JUMPDEST PUSH1 0x1 ADD SWAP3 SWAP2 POP POP JUMP JUMPDEST PUSH1 0x0 DUP1 DUP4 CALLDATALOAD PUSH1 0x1E NOT DUP5 CALLDATASIZE SUB ADD DUP2 SLT PUSH2 0x3E4D JUMPI PUSH1 0x0 DUP1 REVERT JUMPDEST DUP4 ADD DUP1 CALLDATALOAD SWAP2 POP PUSH8 0xFFFFFFFFFFFFFFFF DUP3 GT ISZERO PUSH2 0x3E68 JUMPI PUSH1 0x0 DUP1 REVERT JUMPDEST PUSH1 0x20 ADD SWAP2 POP PUSH1 0x5 DUP2 SWAP1 SHL CALLDATASIZE SUB DUP3 SGT ISZERO PUSH2 0x1F60 JUMPI PUSH1 0x0 DUP1 REVERT JUMPDEST DUP2 DUP4 MSTORE DUP2 DUP2 PUSH1 0x20 DUP6 ADD CALLDATACOPY POP PUSH1 0x0 DUP3 DUP3 ADD PUSH1 0x20 SWAP1 DUP2 ADD SWAP2 SWAP1 SWAP2 MSTORE PUSH1 0x1F SWAP1 SWAP2 ADD PUSH1 0x1F NOT AND SWAP1 SWAP2 ADD ADD SWAP1 JUMP JUMPDEST PUSH1 0x20 DUP2 MSTORE PUSH1 0x0 PUSH2 0x3C61 PUSH1 0x20 DUP4 ADD DUP5 DUP7 PUSH2 0x3E80 JUMP JUMPDEST PUSH1 0x0 PUSH1 0x1 DUP3 ADD PUSH2 0x3ECF JUMPI PUSH2 0x3ECF PUSH2 0x3B00 JUMP JUMPDEST POP PUSH1 0x1 ADD SWAP1 JUMP JUMPDEST PUSH1 0x0 PUSH9 0xFFFFFFFFFFFFFFFFFF DUP3 AND PUSH9 0xFFFFFFFFFFFFFFFFFF DUP2 SUB PUSH2 0x3E2D JUMPI PUSH2 0x3E2D PUSH2 0x3B00 JUMP JUMPDEST PUSH9 0xFFFFFFFFFFFFFFFFFF DUP3 DUP2 AND DUP3 DUP3 AND SUB SWAP1 DUP2 GT ISZERO PUSH2 0x1611 JUMPI PUSH2 0x1611 PUSH2 0x3B00 JUMP JUMPDEST PUSH1 0x60 DUP2 MSTORE PUSH1 0x0 PUSH2 0x3F31 PUSH1 0x60 DUP4 ADD DUP7 DUP9 PUSH2 0x3E80 JUMP JUMPDEST PUSH1 0xFF SWAP5 SWAP1 SWAP5 AND PUSH1 0x20 DUP4 ADD MSTORE POP PUSH1 0x40 ADD MSTORE SWAP3 SWAP2 POP POP JUMP INVALID LOG2 PUSH5 0x6970667358 0x22 SLT KECCAK256 CALLER 0xEB 0xEB 0xBC COINBASE DELEGATECALL DUP16 0xC1 PUSH25 0x9AF0980443B9FC46E3F37029FBCCD21E86AEF900428E366473 PUSH16 0x6C634300081A00330000000000000000 "},"gasEstimates":{"creation":{"codeDepositCost":"3250600","executionCost":"infinite","totalCost":"infinite"},"external":{"ARBITRATOR()":"infinite","ARTICLE_WITHDRAWAL_TIMELOCK()":"2407","LOSER_APPEAL_PERIOD_MULTIPLIER()":"2406","LOSER_STAKE_MULTIPLIER()":"2363","MULTIPLIER_DENOMINATOR()":"305","NUMBER_OF_LEAST_SIGNIFICANT_BITS_TO_IGNORE()":"262","NUMBER_OF_RULING_OPTIONS()":"263","TREASURY()":"2461","VERSION()":"infinite","WINNER_STAKE_MULTIPLIER()":"2362","admin()":"2459","appealFee(uint256)":"infinite","articleStorage(uint72)":"2782","categoryCounter()":"2372","categoryToArbitratorExtraData(uint256)":"infinite","challenge(uint72)":"infinite","challengeFee(uint72)":"infinite","challengeTaxRate()":"2383","changeAdmin(address)":"27933","changeArticleWithdrawalTimelock(uint256)":"25743","changeLoserAppealPeriodMultiplier(uint256)":"25722","changeLoserStakeMultiplier(uint256)":"25721","changeTreasury(address)":"27975","changeWinnerStakeMultiplier(uint256)":"25700","disputes(uint256)":"2864","findVacantStorageSlot(uint72)":"infinite","fundAppeal(uint256,uint8)":"infinite","getAmountRemainsToBeRaised(uint256,uint8)":"infinite","getAppealPeriod(uint256,uint8)":"infinite","getLastRoundWinner(uint256)":"infinite","getReturnOfInvestmentRatio(uint8,uint8)":"infinite","getRoundInfo(uint256,uint256)":"infinite","getTotalWithdrawableAmount(uint256,address)":"infinite","increaseBounty(uint72)":"32631","initializeArticle(string,uint8,uint72)":"infinite","initiateWithdrawal(uint72)":"32255","newCategory(string,bytes)":"infinite","rule(uint256,uint256)":"infinite","submitEvidence(uint256,string)":"infinite","switchPublishingLock()":"26601","transferBalanceToTreasury()":"infinite","transferOwnership(uint72,address)":"infinite","treasuryBalance()":"2386","updateChallengeTaxRate(uint256)":"25749","withdraw(uint72)":"infinite","withdrawFeesAndRewards(uint256,address,uint256,uint8)":"infinite","withdrawFeesAndRewardsForAllRounds(uint256,address,uint8)":"infinite","withdrawFeesAndRewardsForAllRoundsAndAllRulings(uint256,address)":"infinite","withdrawFeesAndRewardsForGivenPositions(uint256,address,uint256[][])":"infinite"},"internal":{"getWithdrawableAmount(struct TruthPost.Round storage pointer,address,enum ITruthPost.RulingOptions,enum ITruthPost.RulingOptions)":"12818"}},"methodIdentifiers":{"ARBITRATOR()":"68871c9c","ARTICLE_WITHDRAWAL_TIMELOCK()":"d3b476b1","LOSER_APPEAL_PERIOD_MULTIPLIER()":"be467604","LOSER_STAKE_MULTIPLIER()":"b34bfaa8","MULTIPLIER_DENOMINATOR()":"fe6ca782","NUMBER_OF_LEAST_SIGNIFICANT_BITS_TO_IGNORE()":"d970d18c","NUMBER_OF_RULING_OPTIONS()":"7597b3cb","TREASURY()":"2d2c5565","VERSION()":"ffa1ad74","WINNER_STAKE_MULTIPLIER()":"e349ad30","admin()":"f851a440","appealFee(uint256)":"1e26de34","articleStorage(uint72)":"3e556162","categoryCounter()":"03624fc0","categoryToArbitratorExtraData(uint256)":"4de12db0","challenge(uint72)":"12a145e1","challengeFee(uint72)":"37641483","challengeTaxRate()":"fc0ac672","changeAdmin(address)":"8f283970","changeArticleWithdrawalTimelock(uint256)":"92e25925","changeLoserAppealPeriodMultiplier(uint256)":"c94828f0","changeLoserStakeMultiplier(uint256)":"92239dff","changeTreasury(address)":"b14f2a39","changeWinnerStakeMultiplier(uint256)":"adc7faba","disputes(uint256)":"564a565d","findVacantStorageSlot(uint72)":"e165720c","fundAppeal(uint256,uint8)":"12b3a2c0","getAmountRemainsToBeRaised(uint256,uint8)":"a509efeb","getAppealPeriod(uint256,uint8)":"638af3da","getLastRoundWinner(uint256)":"7f67bd6c","getReturnOfInvestmentRatio(uint8,uint8)":"b4c70581","getRoundInfo(uint256,uint256)":"8a9bb02a","getTotalWithdrawableAmount(uint256,address)":"af4a9144","increaseBounty(uint72)":"44b9ad06","initializeArticle(string,uint8,uint72)":"faa0ba9d","initiateWithdrawal(uint72)":"ba4c8f8f","newCategory(string,bytes)":"4c55c000","rule(uint256,uint256)":"311a6c56","submitEvidence(uint256,string)":"a6a7f0eb","switchPublishingLock()":"ba0ec60b","transferBalanceToTreasury()":"b7bddc72","transferOwnership(uint72,address)":"ec4adca9","treasuryBalance()":"313dab20","updateChallengeTaxRate(uint256)":"26804bef","withdraw(uint72)":"a92c4707","withdrawFeesAndRewards(uint256,address,uint256,uint8)":"dc227fc2","withdrawFeesAndRewardsForAllRounds(uint256,address,uint8)":"6760aeb0","withdrawFeesAndRewardsForAllRoundsAndAllRulings(uint256,address)":"c9330c0f","withdrawFeesAndRewardsForGivenPositions(uint256,address,uint256[][])":"67284f21"}},"storageLayout":{"storage":[{"astId":298,"contract":"contracts/TruthPost.sol:TruthPost","label":"isPublishingEnabled","offset":0,"slot":"0","type":"t_bool"},{"astId":300,"contract":"contracts/TruthPost.sol:TruthPost","label":"TREASURY","offset":1,"slot":"0","type":"t_address_payable"},{"astId":302,"contract":"contracts/TruthPost.sol:TruthPost","label":"treasuryBalance","offset":0,"slot":"1","type":"t_uint256"},{"astId":311,"contract":"contracts/TruthPost.sol:TruthPost","label":"LOSER_APPEAL_PERIOD_MULTIPLIER","offset":0,"slot":"2","type":"t_uint256"},{"astId":313,"contract":"contracts/TruthPost.sol:TruthPost","label":"ARTICLE_WITHDRAWAL_TIMELOCK","offset":0,"slot":"3","type":"t_uint256"},{"astId":315,"contract":"contracts/TruthPost.sol:TruthPost","label":"WINNER_STAKE_MULTIPLIER","offset":0,"slot":"4","type":"t_uint256"},{"astId":317,"contract":"contracts/TruthPost.sol:TruthPost","label":"LOSER_STAKE_MULTIPLIER","offset":0,"slot":"5","type":"t_uint256"},{"astId":320,"contract":"contracts/TruthPost.sol:TruthPost","label":"challengeTaxRate","offset":0,"slot":"6","type":"t_uint256"},{"astId":713,"contract":"contracts/TruthPost.sol:TruthPost","label":"categoryCounter","offset":0,"slot":"7","type":"t_uint8"},{"astId":720,"contract":"contracts/TruthPost.sol:TruthPost","label":"admin","offset":1,"slot":"7","type":"t_address_payable"},{"astId":783,"contract":"contracts/TruthPost.sol:TruthPost","label":"categoryToArbitratorExtraData","offset":0,"slot":"8","type":"t_array(t_bytes_storage)64_storage"},{"astId":788,"contract":"contracts/TruthPost.sol:TruthPost","label":"articleStorage","offset":0,"slot":"72","type":"t_mapping(t_uint72,t_struct(Article)779_storage)"},{"astId":793,"contract":"contracts/TruthPost.sol:TruthPost","label":"disputes","offset":0,"slot":"73","type":"t_mapping(t_uint256,t_struct(DisputeData)747_storage)"}],"types":{"t_address":{"encoding":"inplace","label":"address","numberOfBytes":"20"},"t_address_payable":{"encoding":"inplace","label":"address payable","numberOfBytes":"20"},"t_array(t_bool)3_storage":{"base":"t_bool","encoding":"inplace","label":"bool[3]","numberOfBytes":"32"},"t_array(t_bytes_storage)64_storage":{"base":"t_bytes_storage","encoding":"inplace","label":"bytes[64]","numberOfBytes":"2048"},"t_array(t_struct(Round)770_storage)dyn_storage":{"base":"t_struct(Round)770_storage","encoding":"dynamic_array","label":"struct TruthPost.Round[]","numberOfBytes":"32"},"t_array(t_uint256)3_storage":{"base":"t_uint256","encoding":"inplace","label":"uint256[3]","numberOfBytes":"96"},"t_bool":{"encoding":"inplace","label":"bool","numberOfBytes":"1"},"t_bytes_storage":{"encoding":"bytes","label":"bytes","numberOfBytes":"32"},"t_enum(RulingOptions)295":{"encoding":"inplace","label":"enum ITruthPost.RulingOptions","numberOfBytes":"1"},"t_mapping(t_address,t_array(t_uint256)3_storage)":{"encoding":"mapping","key":"t_address","label":"mapping(address => uint256[3])","numberOfBytes":"32","value":"t_array(t_uint256)3_storage"},"t_mapping(t_uint256,t_struct(DisputeData)747_storage)":{"encoding":"mapping","key":"t_uint256","label":"mapping(uint256 => struct TruthPost.DisputeData)","numberOfBytes":"32","value":"t_struct(DisputeData)747_storage"},"t_mapping(t_uint72,t_struct(Article)779_storage)":{"encoding":"mapping","key":"t_uint72","label":"mapping(uint72 => struct TruthPost.Article)","numberOfBytes":"32","value":"t_struct(Article)779_storage"},"t_struct(Article)779_storage":{"encoding":"inplace","label":"struct TruthPost.Article","members":[{"astId":772,"contract":"contracts/TruthPost.sol:TruthPost","label":"owner","offset":0,"slot":"0","type":"t_address_payable"},{"astId":774,"contract":"contracts/TruthPost.sol:TruthPost","label":"withdrawalPermittedAt","offset":20,"slot":"0","type":"t_uint32"},{"astId":776,"contract":"contracts/TruthPost.sol:TruthPost","label":"bountyAmount","offset":24,"slot":"0","type":"t_uint56"},{"astId":778,"contract":"contracts/TruthPost.sol:TruthPost","label":"category","offset":31,"slot":"0","type":"t_uint8"}],"numberOfBytes":"32"},"t_struct(DisputeData)747_storage":{"encoding":"inplace","label":"struct TruthPost.DisputeData","members":[{"astId":733,"contract":"contracts/TruthPost.sol:TruthPost","label":"challenger","offset":0,"slot":"0","type":"t_address_payable"},{"astId":736,"contract":"contracts/TruthPost.sol:TruthPost","label":"outcome","offset":20,"slot":"0","type":"t_enum(RulingOptions)295"},{"astId":738,"contract":"contracts/TruthPost.sol:TruthPost","label":"articleCategory","offset":21,"slot":"0","type":"t_uint8"},{"astId":740,"contract":"contracts/TruthPost.sol:TruthPost","label":"resolved","offset":22,"slot":"0","type":"t_bool"},{"astId":742,"contract":"contracts/TruthPost.sol:TruthPost","label":"articleStorageAddress","offset":23,"slot":"0","type":"t_uint72"},{"astId":746,"contract":"contracts/TruthPost.sol:TruthPost","label":"rounds","offset":0,"slot":"1","type":"t_array(t_struct(Round)770_storage)dyn_storage"}],"numberOfBytes":"64"},"t_struct(Round)770_storage":{"encoding":"inplace","label":"struct TruthPost.Round","members":[{"astId":755,"contract":"contracts/TruthPost.sol:TruthPost","label":"contributions","offset":0,"slot":"0","type":"t_mapping(t_address,t_array(t_uint256)3_storage)"},{"astId":761,"contract":"contracts/TruthPost.sol:TruthPost","label":"hasPaid","offset":0,"slot":"1","type":"t_array(t_bool)3_storage"},{"astId":767,"contract":"contracts/TruthPost.sol:TruthPost","label":"totalPerRuling","offset":0,"slot":"2","type":"t_array(t_uint256)3_storage"},{"astId":769,"contract":"contracts/TruthPost.sol:TruthPost","label":"totalClaimableAfterExpenses","offset":0,"slot":"5","type":"t_uint256"}],"numberOfBytes":"192"},"t_uint256":{"encoding":"inplace","label":"uint256","numberOfBytes":"32"},"t_uint32":{"encoding":"inplace","label":"uint32","numberOfBytes":"4"},"t_uint56":{"encoding":"inplace","label":"uint56","numberOfBytes":"7"},"t_uint72":{"encoding":"inplace","label":"uint72","numberOfBytes":"9"},"t_uint8":{"encoding":"inplace","label":"uint8","numberOfBytes":"1"}}},"userdoc":{"kind":"user","methods":{"appealFee(uint256)":{"notice":"Get required appeal fee and deposit."},"challenge(uint72)":{"notice":"Challenge article."},"challengeFee(uint72)":{"notice":"Get required challenge fee."},"changeAdmin(address)":{"notice":"Changes the administrator of the contract to a new address."},"changeArticleWithdrawalTimelock(uint256)":{"notice":"Update the timelock for the article withdtrawal."},"changeLoserAppealPeriodMultiplier(uint256)":{"notice":"Update the appeal window for the loser."},"changeLoserStakeMultiplier(uint256)":{"notice":"Update the arbitration cost for the loser."},"changeTreasury(address)":{"notice":"Changes the treasury address of the contract to a new address."},"changeWinnerStakeMultiplier(uint256)":{"notice":"Update the arbitration cost for the winner."},"findVacantStorageSlot(uint72)":{"notice":"Find a vacant storage slot for an article."},"fundAppeal(uint256,uint8)":{"notice":"Fund a crowdfunding appeal."},"getAmountRemainsToBeRaised(uint256,uint8)":{"notice":"Learn about how much more needs to be raised for given ruling option."},"getAppealPeriod(uint256,uint8)":{"notice":"Get appeal time window."},"getLastRoundWinner(uint256)":{"notice":"Get last round's winner."},"getReturnOfInvestmentRatio(uint8,uint8)":{"notice":"Get return of investment ratio."},"getRoundInfo(uint256,uint256)":{"notice":"Learn about given dispute round."},"getTotalWithdrawableAmount(uint256,address)":{"notice":"Learn the total amount of appeal crowdfunding balance available."},"increaseBounty(uint72)":{"notice":"Increase bounty."},"initializeArticle(string,uint8,uint72)":{"notice":"Publish an article."},"initiateWithdrawal(uint72)":{"notice":"Initiate unpublishing process."},"newCategory(string,bytes)":{"notice":"Initialize a category."},"rule(uint256,uint256)":{"notice":"Execute a ruling"},"submitEvidence(uint256,string)":{"notice":"Submit an evidence."},"switchPublishingLock()":{"notice":"Switches publishing lock."},"transferBalanceToTreasury()":{"notice":"Transfers the balance of the contract to the treasury."},"transferOwnership(uint72,address)":{"notice":"Transfer ownership of an article."},"updateChallengeTaxRate(uint256)":{"notice":"Updates the challenge tax rate of the contract to a new value."},"withdraw(uint72)":{"notice":"Execute unpublishing."},"withdrawFeesAndRewards(uint256,address,uint256,uint8)":{"notice":"Withdraw appeal crowdfunding balance."},"withdrawFeesAndRewardsForAllRounds(uint256,address,uint8)":{"notice":"Withdraw appeal crowdfunding balance for given ruling option for all rounds."},"withdrawFeesAndRewardsForAllRoundsAndAllRulings(uint256,address)":{"notice":"Withdraw appeal crowdfunding balance for all ruling options and all rounds."},"withdrawFeesAndRewardsForGivenPositions(uint256,address,uint256[][])":{"notice":"Withdraw appeal crowdfunding balance for given ruling option and for given rounds."}},"notice":"Smart contract for a type of curation, where submitted items are on hold until they are withdrawn and the amount of security deposits are determined by submitters.","version":1}}}}