{"contracts/for-testing-purposes/Arbitrator.sol":{"Arbitrator":{"abi":[{"anonymous":false,"inputs":[{"indexed":true,"internalType":"uint256","name":"_disputeID","type":"uint256"},{"indexed":true,"internalType":"contract IArbitrable","name":"_arbitrable","type":"address"}],"name":"AppealDecision","type":"event"},{"anonymous":false,"inputs":[{"indexed":true,"internalType":"uint256","name":"_disputeID","type":"uint256"},{"indexed":true,"internalType":"contract IArbitrable","name":"_arbitrable","type":"address"}],"name":"AppealPossible","type":"event"},{"anonymous":false,"inputs":[{"indexed":true,"internalType":"uint256","name":"_disputeID","type":"uint256"},{"indexed":true,"internalType":"contract IArbitrable","name":"_arbitrable","type":"address"}],"name":"DisputeCreation","type":"event"},{"inputs":[{"internalType":"uint256","name":"_disputeID","type":"uint256"},{"internalType":"bytes","name":"_extraData","type":"bytes"}],"name":"appeal","outputs":[],"stateMutability":"payable","type":"function"},{"inputs":[{"internalType":"uint256","name":"","type":"uint256"},{"internalType":"bytes","name":"","type":"bytes"}],"name":"appealCost","outputs":[{"internalType":"uint256","name":"fee","type":"uint256"}],"stateMutability":"view","type":"function"},{"inputs":[{"internalType":"uint256","name":"_disputeID","type":"uint256"}],"name":"appealPeriod","outputs":[{"internalType":"uint256","name":"start","type":"uint256"},{"internalType":"uint256","name":"end","type":"uint256"}],"stateMutability":"view","type":"function"},{"inputs":[{"internalType":"bytes","name":"","type":"bytes"}],"name":"arbitrationCost","outputs":[{"internalType":"uint256","name":"fee","type":"uint256"}],"stateMutability":"view","type":"function"},{"inputs":[{"internalType":"uint256","name":"_choices","type":"uint256"},{"internalType":"bytes","name":"_extraData","type":"bytes"}],"name":"createDispute","outputs":[{"internalType":"uint256","name":"disputeID","type":"uint256"}],"stateMutability":"payable","type":"function"},{"inputs":[{"internalType":"uint256","name":"_disputeID","type":"uint256"}],"name":"currentRuling","outputs":[{"internalType":"uint256","name":"ruling","type":"uint256"}],"stateMutability":"view","type":"function"},{"inputs":[{"internalType":"uint256","name":"_disputeID","type":"uint256"}],"name":"disputeStatus","outputs":[{"internalType":"enum IArbitrator.DisputeStatus","name":"status","type":"uint8"}],"stateMutability":"view","type":"function"},{"inputs":[{"internalType":"uint256","name":"","type":"uint256"}],"name":"disputes","outputs":[{"internalType":"contract IArbitrable","name":"arbitrated","type":"address"},{"internalType":"uint256","name":"appealDeadline","type":"uint256"},{"internalType":"uint256","name":"numberOfRulingOptions","type":"uint256"},{"internalType":"uint256","name":"ruling","type":"uint256"},{"internalType":"enum IArbitrator.DisputeStatus","name":"status","type":"uint8"}],"stateMutability":"view","type":"function"},{"inputs":[{"internalType":"uint256","name":"_disputeID","type":"uint256"}],"name":"executeRuling","outputs":[],"stateMutability":"nonpayable","type":"function"},{"inputs":[{"internalType":"uint256","name":"_disputeID","type":"uint256"},{"internalType":"uint256","name":"_ruling","type":"uint256"},{"internalType":"uint256","name":"_appealWindow","type":"uint256"}],"name":"giveRuling","outputs":[],"stateMutability":"nonpayable","type":"function"},{"inputs":[],"name":"governor","outputs":[{"internalType":"address","name":"","type":"address"}],"stateMutability":"view","type":"function"},{"inputs":[{"internalType":"uint256","name":"_arbitrationPrice","type":"uint256"}],"name":"setArbitrationPrice","outputs":[],"stateMutability":"nonpayable","type":"function"}],"devdoc":{"details":"DON'T USE ON PRODUCTION.","events":{"AppealDecision(uint256,address)":{"details":"To be emitted when the current ruling is appealed.","params":{"_arbitrable":"The contract which created the dispute.","_disputeID":"ID of the dispute."}},"AppealPossible(uint256,address)":{"details":"To be emitted when a dispute can be appealed.","params":{"_arbitrable":"The contract which created the dispute.","_disputeID":"ID of the dispute."}},"DisputeCreation(uint256,address)":{"details":"To be emitted when a dispute is created.","params":{"_arbitrable":"The contract which created the dispute.","_disputeID":"ID of the dispute."}}},"kind":"dev","methods":{"appeal(uint256,bytes)":{"details":"Appeal a ruling. Note that it has to be called before the arbitrator contract calls rule.","params":{"_disputeID":"ID of the dispute to be appealed.","_extraData":"Can be used to give extra info on the appeal."}},"appealPeriod(uint256)":{"details":"Compute the start and end of the dispute's current or next appeal period, if possible. If not known or appeal is impossible: should return (0, 0).","params":{"_disputeID":"ID of the dispute."},"returns":{"end":"The end of the period.","start":"The start of the period."}},"createDispute(uint256,bytes)":{"details":"Create a dispute. Must be called by the arbitrable contract. Must be paid at least arbitrationCost(_extraData).","params":{"_choices":"Amount of choices the arbitrator can make in this dispute.","_extraData":"Can be used to give additional info on the dispute to be created."},"returns":{"disputeID":"ID of the dispute created."}},"currentRuling(uint256)":{"details":"Return the current ruling of a dispute. This is useful for parties to know if they should appeal.","params":{"_disputeID":"ID of the dispute."},"returns":{"ruling":"The ruling which has been given or the one which will be given if there is no appeal."}},"disputeStatus(uint256)":{"details":"Return the status of a dispute.","params":{"_disputeID":"ID of the dispute to rule."},"returns":{"status":"The status of the dispute."}}},"title":"An IArbitrator implemetation for testing purposes.","version":1},"evm":{"bytecode":{"linkReferences":{},"object":"6080604052600080546001600160a01b03191633179055670de0b6b3a7640000600155348015602d57600080fd5b50610e1e8061003d6000396000f3fe6080604052600436106100c75760003560e01c8063afe15cfb11610074578063f23f16e61161004e578063f23f16e614610232578063f7434ea914610252578063ffb43c481461027457600080fd5b8063afe15cfb146101ca578063bc97d0f3146101ff578063c13517e11461021f57600080fd5b806349912f88116100a557806349912f8814610164578063564a565d146101795780638bb04875146101aa57600080fd5b80630c340a24146100cc57806310f169e8146101095780631c3db16d14610136575b600080fd5b3480156100d857600080fd5b506000546100ec906001600160a01b031681565b6040516001600160a01b0390911681526020015b60405180910390f35b34801561011557600080fd5b50610129610124366004610ba5565b610294565b6040516101009190610bf6565b34801561014257600080fd5b50610156610151366004610ba5565b610349565b604051908152602001610100565b610177610172366004610ca9565b610377565b005b34801561018557600080fd5b50610199610194366004610ba5565b61054c565b604051610100959493929190610cf0565b3480156101b657600080fd5b506101776101c5366004610ba5565b61059a565b3480156101d657600080fd5b506101ea6101e5366004610ba5565b610734565b60408051928352602083019190915201610100565b34801561020b57600080fd5b5061017761021a366004610d2d565b61076c565b61015661022d366004610ca9565b61093d565b34801561023e57600080fd5b5061015661024d366004610ca9565b610aef565b34801561025e57600080fd5b5061015661026d366004610d59565b5060015490565b34801561028057600080fd5b5061017761028f366004610ba5565b610b3a565b600080600283815481106102aa576102aa610d96565b6000918252602090912060059091020190506001600284815481106102d1576102d1610d96565b600091825260209091206004600590920201015460ff1660028111156102f9576102f9610bbe565b14801561030a575080600101544210155b156103185750600292915050565b6002838154811061032b5761032b610d96565b600091825260209091206004600590920201015460ff169392505050565b60006002828154811061035e5761035e610d96565b9060005260206000209060050201600301549050919050565b60006002838154811061038c5761038c610d96565b9060005260206000209060050201905060006103a88484610aef565b90506001600483015460ff1660028111156103c5576103c5610bbe565b146104175760405162461bcd60e51b815260206004820152601f60248201527f5468652064697370757465206d7573742062652061707065616c61626c652e0060448201526064015b60405180910390fd5b816001015442106104905760405162461bcd60e51b815260206004820152603a60248201527f5468652061707065616c206d757374206f63637572206265666f72652074686560448201527f20656e64206f66207468652061707065616c20706572696f642e000000000000606482015260840161040e565b803410156105065760405162461bcd60e51b815260206004820152602660248201527f56616c7565206973206c657373207468616e207265717569726564206170706560448201527f616c206665650000000000000000000000000000000000000000000000000000606482015260840161040e565b60006001830181905560048301805460ff19169055604051339186917f9c9b64db9e130f48381bf697abf638e73117dbfbfd7a4484f2da3ba188f4187d9190a350505050565b6002818154811061055c57600080fd5b6000918252602090912060059091020180546001820154600283015460038401546004909401546001600160a01b0390931694509092909160ff1685565b6000600282815481106105af576105af610d96565b6000918252602090912060059091020190506001600482015460ff1660028111156105dc576105dc610bbe565b146106295760405162461bcd60e51b815260206004820152601f60248201527f5468652064697370757465206d7573742062652061707065616c61626c652e00604482015260640161040e565b80600101544210156106a35760405162461bcd60e51b815260206004820152603f60248201527f5468652064697370757465206d7573742062652065786563757465642061667460448201527f6572206974732061707065616c20706572696f642068617320656e6465642e00606482015260840161040e565b6004818101805460ff19166002179055815460038301546040517f311a6c5600000000000000000000000000000000000000000000000000000000815292830185905260248301526001600160a01b03169063311a6c5690604401600060405180830381600087803b15801561071857600080fd5b505af115801561072c573d6000803e3d6000fd5b505050505050565b60008060006002848154811061074c5761074c610d96565b906000526020600020906005020190504281600101549250925050915091565b6000546001600160a01b031633146107d25760405162461bcd60e51b815260206004820152602360248201527f43616e206f6e6c792062652063616c6c65642062792074686520676f7665726e60448201526237b91760e91b606482015260840161040e565b6000600284815481106107e7576107e7610d96565b90600052602060002090600502019050806002015483111561084b5760405162461bcd60e51b815260206004820152600f60248201527f496e76616c69642072756c696e672e0000000000000000000000000000000000604482015260640161040e565b6000600482015460ff16600281111561086657610866610bbe565b146108d95760405162461bcd60e51b815260206004820152602c60248201527f5468652064697370757465206d7573742062652077616974696e6720666f722060448201527f6172626974726174696f6e2e0000000000000000000000000000000000000000606482015260840161040e565b6003810183905560048101805460ff191660011790556108f98242610dc2565b600182015580546040516001600160a01b039091169085907fa5d41b970d849372be1da1481ffd78d162bfe57a7aa2fe4e5fb73481fa5ac24f90600090a350505050565b60008061094960015490565b9050803410156109c15760405162461bcd60e51b815260206004820152602c60248201527f56616c7565206973206c657373207468616e207265717569726564206172626960448201527f74726174696f6e206665652e0000000000000000000000000000000000000000606482015260840161040e565b60026040518060a00160405280336001600160a01b03168152602001600081526020018681526020016000815260200160006002811115610a0457610a04610bbe565b90528154600180820184556000938452602093849020835160059093020180547fffffffffffffffffffffffff0000000000000000000000000000000000000000166001600160a01b0390931692909217825592820151818401556040820151600280830191909155606083015160038301556080830151600483018054949593949193909260ff19909216918490811115610aa257610aa2610bbe565b021790555050600254610ab89150600190610dd5565b604051909250339083907f141dfc18aa6a56fc816f44f0e9e2f1ebc92b15ab167770e17db5b084c10ed99590600090a35092915050565b6000610b316040518060400160405280600681526020017f554e5553454400000000000000000000000000000000000000000000000000008152505060015490565b90505b92915050565b6000546001600160a01b03163314610ba05760405162461bcd60e51b815260206004820152602360248201527f43616e206f6e6c792062652063616c6c65642062792074686520676f7665726e60448201526237b91760e91b606482015260840161040e565b600155565b600060208284031215610bb757600080fd5b5035919050565b634e487b7160e01b600052602160045260246000fd5b60038110610bf257634e487b7160e01b600052602160045260246000fd5b9052565b60208101610b348284610bd4565b634e487b7160e01b600052604160045260246000fd5b600082601f830112610c2b57600080fd5b813567ffffffffffffffff811115610c4557610c45610c04565b604051601f8201601f19908116603f0116810167ffffffffffffffff81118282101715610c7457610c74610c04565b604052818152838201602001851015610c8c57600080fd5b816020850160208301376000918101602001919091529392505050565b60008060408385031215610cbc57600080fd5b82359150602083013567ffffffffffffffff811115610cda57600080fd5b610ce685828601610c1a565b9150509250929050565b600060a0820190506001600160a01b0387168252856020830152846040830152836060830152610d236080830184610bd4565b9695505050505050565b600080600060608486031215610d4257600080fd5b505081359360208301359350604090920135919050565b600060208284031215610d6b57600080fd5b813567ffffffffffffffff811115610d8257600080fd5b610d8e84828501610c1a565b949350505050565b634e487b7160e01b600052603260045260246000fd5b634e487b7160e01b600052601160045260246000fd5b80820180821115610b3457610b34610dac565b81810381811115610b3457610b34610dac56fea26469706673582212200ebbcde5eb6e4f436e2f0b1874b98a4ae32806d1f9300b13065d162ae553a5a564736f6c634300081a0033","opcodes":"PUSH1 0x80 PUSH1 0x40 MSTORE PUSH1 0x0 DUP1 SLOAD PUSH1 0x1 PUSH1 0x1 PUSH1 0xA0 SHL SUB NOT AND CALLER OR SWAP1 SSTORE PUSH8 0xDE0B6B3A7640000 PUSH1 0x1 SSTORE CALLVALUE DUP1 ISZERO PUSH1 0x2D JUMPI PUSH1 0x0 DUP1 REVERT JUMPDEST POP PUSH2 0xE1E DUP1 PUSH2 0x3D PUSH1 0x0 CODECOPY PUSH1 0x0 RETURN INVALID PUSH1 0x80 PUSH1 0x40 MSTORE PUSH1 0x4 CALLDATASIZE LT PUSH2 0xC7 JUMPI PUSH1 0x0 CALLDATALOAD PUSH1 0xE0 SHR DUP1 PUSH4 0xAFE15CFB GT PUSH2 0x74 JUMPI DUP1 PUSH4 0xF23F16E6 GT PUSH2 0x4E JUMPI DUP1 PUSH4 0xF23F16E6 EQ PUSH2 0x232 JUMPI DUP1 PUSH4 0xF7434EA9 EQ PUSH2 0x252 JUMPI DUP1 PUSH4 0xFFB43C48 EQ PUSH2 0x274 JUMPI PUSH1 0x0 DUP1 REVERT JUMPDEST DUP1 PUSH4 0xAFE15CFB EQ PUSH2 0x1CA JUMPI DUP1 PUSH4 0xBC97D0F3 EQ PUSH2 0x1FF JUMPI DUP1 PUSH4 0xC13517E1 EQ PUSH2 0x21F JUMPI PUSH1 0x0 DUP1 REVERT JUMPDEST DUP1 PUSH4 0x49912F88 GT PUSH2 0xA5 JUMPI DUP1 PUSH4 0x49912F88 EQ PUSH2 0x164 JUMPI DUP1 PUSH4 0x564A565D EQ PUSH2 0x179 JUMPI DUP1 PUSH4 0x8BB04875 EQ PUSH2 0x1AA JUMPI PUSH1 0x0 DUP1 REVERT JUMPDEST DUP1 PUSH4 0xC340A24 EQ PUSH2 0xCC JUMPI DUP1 PUSH4 0x10F169E8 EQ PUSH2 0x109 JUMPI DUP1 PUSH4 0x1C3DB16D EQ PUSH2 0x136 JUMPI JUMPDEST PUSH1 0x0 DUP1 REVERT JUMPDEST CALLVALUE DUP1 ISZERO PUSH2 0xD8 JUMPI PUSH1 0x0 DUP1 REVERT JUMPDEST POP PUSH1 0x0 SLOAD PUSH2 0xEC SWAP1 PUSH1 0x1 PUSH1 0x1 PUSH1 0xA0 SHL SUB AND DUP2 JUMP JUMPDEST PUSH1 0x40 MLOAD PUSH1 0x1 PUSH1 0x1 PUSH1 0xA0 SHL SUB SWAP1 SWAP2 AND DUP2 MSTORE PUSH1 0x20 ADD JUMPDEST PUSH1 0x40 MLOAD DUP1 SWAP2 SUB SWAP1 RETURN JUMPDEST CALLVALUE DUP1 ISZERO PUSH2 0x115 JUMPI PUSH1 0x0 DUP1 REVERT JUMPDEST POP PUSH2 0x129 PUSH2 0x124 CALLDATASIZE PUSH1 0x4 PUSH2 0xBA5 JUMP JUMPDEST PUSH2 0x294 JUMP JUMPDEST PUSH1 0x40 MLOAD PUSH2 0x100 SWAP2 SWAP1 PUSH2 0xBF6 JUMP JUMPDEST CALLVALUE DUP1 ISZERO PUSH2 0x142 JUMPI PUSH1 0x0 DUP1 REVERT JUMPDEST POP PUSH2 0x156 PUSH2 0x151 CALLDATASIZE PUSH1 0x4 PUSH2 0xBA5 JUMP JUMPDEST PUSH2 0x349 JUMP JUMPDEST PUSH1 0x40 MLOAD SWAP1 DUP2 MSTORE PUSH1 0x20 ADD PUSH2 0x100 JUMP JUMPDEST PUSH2 0x177 PUSH2 0x172 CALLDATASIZE PUSH1 0x4 PUSH2 0xCA9 JUMP JUMPDEST PUSH2 0x377 JUMP JUMPDEST STOP JUMPDEST CALLVALUE DUP1 ISZERO PUSH2 0x185 JUMPI PUSH1 0x0 DUP1 REVERT JUMPDEST POP PUSH2 0x199 PUSH2 0x194 CALLDATASIZE PUSH1 0x4 PUSH2 0xBA5 JUMP JUMPDEST PUSH2 0x54C JUMP JUMPDEST PUSH1 0x40 MLOAD PUSH2 0x100 SWAP6 SWAP5 SWAP4 SWAP3 SWAP2 SWAP1 PUSH2 0xCF0 JUMP JUMPDEST CALLVALUE DUP1 ISZERO PUSH2 0x1B6 JUMPI PUSH1 0x0 DUP1 REVERT JUMPDEST POP PUSH2 0x177 PUSH2 0x1C5 CALLDATASIZE PUSH1 0x4 PUSH2 0xBA5 JUMP JUMPDEST PUSH2 0x59A JUMP JUMPDEST CALLVALUE DUP1 ISZERO PUSH2 0x1D6 JUMPI PUSH1 0x0 DUP1 REVERT JUMPDEST POP PUSH2 0x1EA PUSH2 0x1E5 CALLDATASIZE PUSH1 0x4 PUSH2 0xBA5 JUMP JUMPDEST PUSH2 0x734 JUMP JUMPDEST PUSH1 0x40 DUP1 MLOAD SWAP3 DUP4 MSTORE PUSH1 0x20 DUP4 ADD SWAP2 SWAP1 SWAP2 MSTORE ADD PUSH2 0x100 JUMP JUMPDEST CALLVALUE DUP1 ISZERO PUSH2 0x20B JUMPI PUSH1 0x0 DUP1 REVERT JUMPDEST POP PUSH2 0x177 PUSH2 0x21A CALLDATASIZE PUSH1 0x4 PUSH2 0xD2D JUMP JUMPDEST PUSH2 0x76C JUMP JUMPDEST PUSH2 0x156 PUSH2 0x22D CALLDATASIZE PUSH1 0x4 PUSH2 0xCA9 JUMP JUMPDEST PUSH2 0x93D JUMP JUMPDEST CALLVALUE DUP1 ISZERO PUSH2 0x23E JUMPI PUSH1 0x0 DUP1 REVERT JUMPDEST POP PUSH2 0x156 PUSH2 0x24D CALLDATASIZE PUSH1 0x4 PUSH2 0xCA9 JUMP JUMPDEST PUSH2 0xAEF JUMP JUMPDEST CALLVALUE DUP1 ISZERO PUSH2 0x25E JUMPI PUSH1 0x0 DUP1 REVERT JUMPDEST POP PUSH2 0x156 PUSH2 0x26D CALLDATASIZE PUSH1 0x4 PUSH2 0xD59 JUMP JUMPDEST POP PUSH1 0x1 SLOAD SWAP1 JUMP JUMPDEST CALLVALUE DUP1 ISZERO PUSH2 0x280 JUMPI PUSH1 0x0 DUP1 REVERT JUMPDEST POP PUSH2 0x177 PUSH2 0x28F CALLDATASIZE PUSH1 0x4 PUSH2 0xBA5 JUMP JUMPDEST PUSH2 0xB3A JUMP JUMPDEST PUSH1 0x0 DUP1 PUSH1 0x2 DUP4 DUP2 SLOAD DUP2 LT PUSH2 0x2AA JUMPI PUSH2 0x2AA PUSH2 0xD96 JUMP JUMPDEST PUSH1 0x0 SWAP2 DUP3 MSTORE PUSH1 0x20 SWAP1 SWAP2 KECCAK256 PUSH1 0x5 SWAP1 SWAP2 MUL ADD SWAP1 POP PUSH1 0x1 PUSH1 0x2 DUP5 DUP2 SLOAD DUP2 LT PUSH2 0x2D1 JUMPI PUSH2 0x2D1 PUSH2 0xD96 JUMP JUMPDEST PUSH1 0x0 SWAP2 DUP3 MSTORE PUSH1 0x20 SWAP1 SWAP2 KECCAK256 PUSH1 0x4 PUSH1 0x5 SWAP1 SWAP3 MUL ADD ADD SLOAD PUSH1 0xFF AND PUSH1 0x2 DUP2 GT ISZERO PUSH2 0x2F9 JUMPI PUSH2 0x2F9 PUSH2 0xBBE JUMP JUMPDEST EQ DUP1 ISZERO PUSH2 0x30A JUMPI POP DUP1 PUSH1 0x1 ADD SLOAD TIMESTAMP LT ISZERO JUMPDEST ISZERO PUSH2 0x318 JUMPI POP PUSH1 0x2 SWAP3 SWAP2 POP POP JUMP JUMPDEST PUSH1 0x2 DUP4 DUP2 SLOAD DUP2 LT PUSH2 0x32B JUMPI PUSH2 0x32B PUSH2 0xD96 JUMP JUMPDEST PUSH1 0x0 SWAP2 DUP3 MSTORE PUSH1 0x20 SWAP1 SWAP2 KECCAK256 PUSH1 0x4 PUSH1 0x5 SWAP1 SWAP3 MUL ADD ADD SLOAD PUSH1 0xFF AND SWAP4 SWAP3 POP POP POP JUMP JUMPDEST PUSH1 0x0 PUSH1 0x2 DUP3 DUP2 SLOAD DUP2 LT PUSH2 0x35E JUMPI PUSH2 0x35E PUSH2 0xD96 JUMP JUMPDEST SWAP1 PUSH1 0x0 MSTORE PUSH1 0x20 PUSH1 0x0 KECCAK256 SWAP1 PUSH1 0x5 MUL ADD PUSH1 0x3 ADD SLOAD SWAP1 POP SWAP2 SWAP1 POP JUMP JUMPDEST PUSH1 0x0 PUSH1 0x2 DUP4 DUP2 SLOAD DUP2 LT PUSH2 0x38C JUMPI PUSH2 0x38C PUSH2 0xD96 JUMP JUMPDEST SWAP1 PUSH1 0x0 MSTORE PUSH1 0x20 PUSH1 0x0 KECCAK256 SWAP1 PUSH1 0x5 MUL ADD SWAP1 POP PUSH1 0x0 PUSH2 0x3A8 DUP5 DUP5 PUSH2 0xAEF JUMP JUMPDEST SWAP1 POP PUSH1 0x1 PUSH1 0x4 DUP4 ADD SLOAD PUSH1 0xFF AND PUSH1 0x2 DUP2 GT ISZERO PUSH2 0x3C5 JUMPI PUSH2 0x3C5 PUSH2 0xBBE JUMP JUMPDEST EQ PUSH2 0x417 JUMPI PUSH1 0x40 MLOAD PUSH3 0x461BCD PUSH1 0xE5 SHL DUP2 MSTORE PUSH1 0x20 PUSH1 0x4 DUP3 ADD MSTORE PUSH1 0x1F PUSH1 0x24 DUP3 ADD MSTORE PUSH32 0x5468652064697370757465206D7573742062652061707065616C61626C652E00 PUSH1 0x44 DUP3 ADD MSTORE PUSH1 0x64 ADD JUMPDEST PUSH1 0x40 MLOAD DUP1 SWAP2 SUB SWAP1 REVERT JUMPDEST DUP2 PUSH1 0x1 ADD SLOAD TIMESTAMP LT PUSH2 0x490 JUMPI PUSH1 0x40 MLOAD PUSH3 0x461BCD PUSH1 0xE5 SHL DUP2 MSTORE PUSH1 0x20 PUSH1 0x4 DUP3 ADD MSTORE PUSH1 0x3A PUSH1 0x24 DUP3 ADD MSTORE PUSH32 0x5468652061707065616C206D757374206F63637572206265666F726520746865 PUSH1 0x44 DUP3 ADD MSTORE PUSH32 0x20656E64206F66207468652061707065616C20706572696F642E000000000000 PUSH1 0x64 DUP3 ADD MSTORE PUSH1 0x84 ADD PUSH2 0x40E JUMP JUMPDEST DUP1 CALLVALUE LT ISZERO PUSH2 0x506 JUMPI PUSH1 0x40 MLOAD PUSH3 0x461BCD PUSH1 0xE5 SHL DUP2 MSTORE PUSH1 0x20 PUSH1 0x4 DUP3 ADD MSTORE PUSH1 0x26 PUSH1 0x24 DUP3 ADD MSTORE PUSH32 0x56616C7565206973206C657373207468616E2072657175697265642061707065 PUSH1 0x44 DUP3 ADD MSTORE PUSH32 0x616C206665650000000000000000000000000000000000000000000000000000 PUSH1 0x64 DUP3 ADD MSTORE PUSH1 0x84 ADD PUSH2 0x40E JUMP JUMPDEST PUSH1 0x0 PUSH1 0x1 DUP4 ADD DUP2 SWAP1 SSTORE PUSH1 0x4 DUP4 ADD DUP1 SLOAD PUSH1 0xFF NOT AND SWAP1 SSTORE PUSH1 0x40 MLOAD CALLER SWAP2 DUP7 SWAP2 PUSH32 0x9C9B64DB9E130F48381BF697ABF638E73117DBFBFD7A4484F2DA3BA188F4187D SWAP2 SWAP1 LOG3 POP POP POP POP JUMP JUMPDEST PUSH1 0x2 DUP2 DUP2 SLOAD DUP2 LT PUSH2 0x55C JUMPI PUSH1 0x0 DUP1 REVERT JUMPDEST PUSH1 0x0 SWAP2 DUP3 MSTORE PUSH1 0x20 SWAP1 SWAP2 KECCAK256 PUSH1 0x5 SWAP1 SWAP2 MUL ADD DUP1 SLOAD PUSH1 0x1 DUP3 ADD SLOAD PUSH1 0x2 DUP4 ADD SLOAD PUSH1 0x3 DUP5 ADD SLOAD PUSH1 0x4 SWAP1 SWAP5 ADD SLOAD PUSH1 0x1 PUSH1 0x1 PUSH1 0xA0 SHL SUB SWAP1 SWAP4 AND SWAP5 POP SWAP1 SWAP3 SWAP1 SWAP2 PUSH1 0xFF AND DUP6 JUMP JUMPDEST PUSH1 0x0 PUSH1 0x2 DUP3 DUP2 SLOAD DUP2 LT PUSH2 0x5AF JUMPI PUSH2 0x5AF PUSH2 0xD96 JUMP JUMPDEST PUSH1 0x0 SWAP2 DUP3 MSTORE PUSH1 0x20 SWAP1 SWAP2 KECCAK256 PUSH1 0x5 SWAP1 SWAP2 MUL ADD SWAP1 POP PUSH1 0x1 PUSH1 0x4 DUP3 ADD SLOAD PUSH1 0xFF AND PUSH1 0x2 DUP2 GT ISZERO PUSH2 0x5DC JUMPI PUSH2 0x5DC PUSH2 0xBBE JUMP JUMPDEST EQ PUSH2 0x629 JUMPI PUSH1 0x40 MLOAD PUSH3 0x461BCD PUSH1 0xE5 SHL DUP2 MSTORE PUSH1 0x20 PUSH1 0x4 DUP3 ADD MSTORE PUSH1 0x1F PUSH1 0x24 DUP3 ADD MSTORE PUSH32 0x5468652064697370757465206D7573742062652061707065616C61626C652E00 PUSH1 0x44 DUP3 ADD MSTORE PUSH1 0x64 ADD PUSH2 0x40E JUMP JUMPDEST DUP1 PUSH1 0x1 ADD SLOAD TIMESTAMP LT ISZERO PUSH2 0x6A3 JUMPI PUSH1 0x40 MLOAD PUSH3 0x461BCD PUSH1 0xE5 SHL DUP2 MSTORE PUSH1 0x20 PUSH1 0x4 DUP3 ADD MSTORE PUSH1 0x3F PUSH1 0x24 DUP3 ADD MSTORE PUSH32 0x5468652064697370757465206D75737420626520657865637574656420616674 PUSH1 0x44 DUP3 ADD MSTORE PUSH32 0x6572206974732061707065616C20706572696F642068617320656E6465642E00 PUSH1 0x64 DUP3 ADD MSTORE PUSH1 0x84 ADD PUSH2 0x40E JUMP JUMPDEST PUSH1 0x4 DUP2 DUP2 ADD DUP1 SLOAD PUSH1 0xFF NOT AND PUSH1 0x2 OR SWAP1 SSTORE DUP2 SLOAD PUSH1 0x3 DUP4 ADD SLOAD PUSH1 0x40 MLOAD PUSH32 0x311A6C5600000000000000000000000000000000000000000000000000000000 DUP2 MSTORE SWAP3 DUP4 ADD DUP6 SWAP1 MSTORE PUSH1 0x24 DUP4 ADD MSTORE PUSH1 0x1 PUSH1 0x1 PUSH1 0xA0 SHL SUB AND SWAP1 PUSH4 0x311A6C56 SWAP1 PUSH1 0x44 ADD PUSH1 0x0 PUSH1 0x40 MLOAD DUP1 DUP4 SUB DUP2 PUSH1 0x0 DUP8 DUP1 EXTCODESIZE ISZERO DUP1 ISZERO PUSH2 0x718 JUMPI PUSH1 0x0 DUP1 REVERT JUMPDEST POP GAS CALL ISZERO DUP1 ISZERO PUSH2 0x72C JUMPI RETURNDATASIZE PUSH1 0x0 DUP1 RETURNDATACOPY RETURNDATASIZE PUSH1 0x0 REVERT JUMPDEST POP POP POP POP POP POP JUMP JUMPDEST PUSH1 0x0 DUP1 PUSH1 0x0 PUSH1 0x2 DUP5 DUP2 SLOAD DUP2 LT PUSH2 0x74C JUMPI PUSH2 0x74C PUSH2 0xD96 JUMP JUMPDEST SWAP1 PUSH1 0x0 MSTORE PUSH1 0x20 PUSH1 0x0 KECCAK256 SWAP1 PUSH1 0x5 MUL ADD SWAP1 POP TIMESTAMP DUP2 PUSH1 0x1 ADD SLOAD SWAP3 POP SWAP3 POP POP SWAP2 POP SWAP2 JUMP JUMPDEST PUSH1 0x0 SLOAD PUSH1 0x1 PUSH1 0x1 PUSH1 0xA0 SHL SUB AND CALLER EQ PUSH2 0x7D2 JUMPI PUSH1 0x40 MLOAD PUSH3 0x461BCD PUSH1 0xE5 SHL DUP2 MSTORE PUSH1 0x20 PUSH1 0x4 DUP3 ADD MSTORE PUSH1 0x23 PUSH1 0x24 DUP3 ADD MSTORE PUSH32 0x43616E206F6E6C792062652063616C6C65642062792074686520676F7665726E PUSH1 0x44 DUP3 ADD MSTORE PUSH3 0x37B917 PUSH1 0xE9 SHL PUSH1 0x64 DUP3 ADD MSTORE PUSH1 0x84 ADD PUSH2 0x40E JUMP JUMPDEST PUSH1 0x0 PUSH1 0x2 DUP5 DUP2 SLOAD DUP2 LT PUSH2 0x7E7 JUMPI PUSH2 0x7E7 PUSH2 0xD96 JUMP JUMPDEST SWAP1 PUSH1 0x0 MSTORE PUSH1 0x20 PUSH1 0x0 KECCAK256 SWAP1 PUSH1 0x5 MUL ADD SWAP1 POP DUP1 PUSH1 0x2 ADD SLOAD DUP4 GT ISZERO PUSH2 0x84B JUMPI PUSH1 0x40 MLOAD PUSH3 0x461BCD PUSH1 0xE5 SHL DUP2 MSTORE PUSH1 0x20 PUSH1 0x4 DUP3 ADD MSTORE PUSH1 0xF PUSH1 0x24 DUP3 ADD MSTORE PUSH32 0x496E76616C69642072756C696E672E0000000000000000000000000000000000 PUSH1 0x44 DUP3 ADD MSTORE PUSH1 0x64 ADD PUSH2 0x40E JUMP JUMPDEST PUSH1 0x0 PUSH1 0x4 DUP3 ADD SLOAD PUSH1 0xFF AND PUSH1 0x2 DUP2 GT ISZERO PUSH2 0x866 JUMPI PUSH2 0x866 PUSH2 0xBBE JUMP JUMPDEST EQ PUSH2 0x8D9 JUMPI PUSH1 0x40 MLOAD PUSH3 0x461BCD PUSH1 0xE5 SHL DUP2 MSTORE PUSH1 0x20 PUSH1 0x4 DUP3 ADD MSTORE PUSH1 0x2C PUSH1 0x24 DUP3 ADD MSTORE PUSH32 0x5468652064697370757465206D7573742062652077616974696E6720666F7220 PUSH1 0x44 DUP3 ADD MSTORE PUSH32 0x6172626974726174696F6E2E0000000000000000000000000000000000000000 PUSH1 0x64 DUP3 ADD MSTORE PUSH1 0x84 ADD PUSH2 0x40E JUMP JUMPDEST PUSH1 0x3 DUP2 ADD DUP4 SWAP1 SSTORE PUSH1 0x4 DUP2 ADD DUP1 SLOAD PUSH1 0xFF NOT AND PUSH1 0x1 OR SWAP1 SSTORE PUSH2 0x8F9 DUP3 TIMESTAMP PUSH2 0xDC2 JUMP JUMPDEST PUSH1 0x1 DUP3 ADD SSTORE DUP1 SLOAD PUSH1 0x40 MLOAD PUSH1 0x1 PUSH1 0x1 PUSH1 0xA0 SHL SUB SWAP1 SWAP2 AND SWAP1 DUP6 SWAP1 PUSH32 0xA5D41B970D849372BE1DA1481FFD78D162BFE57A7AA2FE4E5FB73481FA5AC24F SWAP1 PUSH1 0x0 SWAP1 LOG3 POP POP POP POP JUMP JUMPDEST PUSH1 0x0 DUP1 PUSH2 0x949 PUSH1 0x1 SLOAD SWAP1 JUMP JUMPDEST SWAP1 POP DUP1 CALLVALUE LT ISZERO PUSH2 0x9C1 JUMPI PUSH1 0x40 MLOAD PUSH3 0x461BCD PUSH1 0xE5 SHL DUP2 MSTORE PUSH1 0x20 PUSH1 0x4 DUP3 ADD MSTORE PUSH1 0x2C PUSH1 0x24 DUP3 ADD MSTORE PUSH32 0x56616C7565206973206C657373207468616E2072657175697265642061726269 PUSH1 0x44 DUP3 ADD MSTORE PUSH32 0x74726174696F6E206665652E0000000000000000000000000000000000000000 PUSH1 0x64 DUP3 ADD MSTORE PUSH1 0x84 ADD PUSH2 0x40E JUMP JUMPDEST PUSH1 0x2 PUSH1 0x40 MLOAD DUP1 PUSH1 0xA0 ADD PUSH1 0x40 MSTORE DUP1 CALLER PUSH1 0x1 PUSH1 0x1 PUSH1 0xA0 SHL SUB AND DUP2 MSTORE PUSH1 0x20 ADD PUSH1 0x0 DUP2 MSTORE PUSH1 0x20 ADD DUP7 DUP2 MSTORE PUSH1 0x20 ADD PUSH1 0x0 DUP2 MSTORE PUSH1 0x20 ADD PUSH1 0x0 PUSH1 0x2 DUP2 GT ISZERO PUSH2 0xA04 JUMPI PUSH2 0xA04 PUSH2 0xBBE JUMP JUMPDEST SWAP1 MSTORE DUP2 SLOAD PUSH1 0x1 DUP1 DUP3 ADD DUP5 SSTORE PUSH1 0x0 SWAP4 DUP5 MSTORE PUSH1 0x20 SWAP4 DUP5 SWAP1 KECCAK256 DUP4 MLOAD PUSH1 0x5 SWAP1 SWAP4 MUL ADD DUP1 SLOAD PUSH32 0xFFFFFFFFFFFFFFFFFFFFFFFF0000000000000000000000000000000000000000 AND PUSH1 0x1 PUSH1 0x1 PUSH1 0xA0 SHL SUB SWAP1 SWAP4 AND SWAP3 SWAP1 SWAP3 OR DUP3 SSTORE SWAP3 DUP3 ADD MLOAD DUP2 DUP5 ADD SSTORE PUSH1 0x40 DUP3 ADD MLOAD PUSH1 0x2 DUP1 DUP4 ADD SWAP2 SWAP1 SWAP2 SSTORE PUSH1 0x60 DUP4 ADD MLOAD PUSH1 0x3 DUP4 ADD SSTORE PUSH1 0x80 DUP4 ADD MLOAD PUSH1 0x4 DUP4 ADD DUP1 SLOAD SWAP5 SWAP6 SWAP4 SWAP5 SWAP2 SWAP4 SWAP1 SWAP3 PUSH1 0xFF NOT SWAP1 SWAP3 AND SWAP2 DUP5 SWAP1 DUP2 GT ISZERO PUSH2 0xAA2 JUMPI PUSH2 0xAA2 PUSH2 0xBBE JUMP JUMPDEST MUL OR SWAP1 SSTORE POP POP PUSH1 0x2 SLOAD PUSH2 0xAB8 SWAP2 POP PUSH1 0x1 SWAP1 PUSH2 0xDD5 JUMP JUMPDEST PUSH1 0x40 MLOAD SWAP1 SWAP3 POP CALLER SWAP1 DUP4 SWAP1 PUSH32 0x141DFC18AA6A56FC816F44F0E9E2F1EBC92B15AB167770E17DB5B084C10ED995 SWAP1 PUSH1 0x0 SWAP1 LOG3 POP SWAP3 SWAP2 POP POP JUMP JUMPDEST PUSH1 0x0 PUSH2 0xB31 PUSH1 0x40 MLOAD DUP1 PUSH1 0x40 ADD PUSH1 0x40 MSTORE DUP1 PUSH1 0x6 DUP2 MSTORE PUSH1 0x20 ADD PUSH32 0x554E555345440000000000000000000000000000000000000000000000000000 DUP2 MSTORE POP POP PUSH1 0x1 SLOAD SWAP1 JUMP JUMPDEST SWAP1 POP JUMPDEST SWAP3 SWAP2 POP POP JUMP JUMPDEST PUSH1 0x0 SLOAD PUSH1 0x1 PUSH1 0x1 PUSH1 0xA0 SHL SUB AND CALLER EQ PUSH2 0xBA0 JUMPI PUSH1 0x40 MLOAD PUSH3 0x461BCD PUSH1 0xE5 SHL DUP2 MSTORE PUSH1 0x20 PUSH1 0x4 DUP3 ADD MSTORE PUSH1 0x23 PUSH1 0x24 DUP3 ADD MSTORE PUSH32 0x43616E206F6E6C792062652063616C6C65642062792074686520676F7665726E PUSH1 0x44 DUP3 ADD MSTORE PUSH3 0x37B917 PUSH1 0xE9 SHL PUSH1 0x64 DUP3 ADD MSTORE PUSH1 0x84 ADD PUSH2 0x40E JUMP JUMPDEST PUSH1 0x1 SSTORE JUMP JUMPDEST PUSH1 0x0 PUSH1 0x20 DUP3 DUP5 SUB SLT ISZERO PUSH2 0xBB7 JUMPI PUSH1 0x0 DUP1 REVERT JUMPDEST POP CALLDATALOAD SWAP2 SWAP1 POP JUMP JUMPDEST PUSH4 0x4E487B71 PUSH1 0xE0 SHL PUSH1 0x0 MSTORE PUSH1 0x21 PUSH1 0x4 MSTORE PUSH1 0x24 PUSH1 0x0 REVERT JUMPDEST PUSH1 0x3 DUP2 LT PUSH2 0xBF2 JUMPI PUSH4 0x4E487B71 PUSH1 0xE0 SHL PUSH1 0x0 MSTORE PUSH1 0x21 PUSH1 0x4 MSTORE PUSH1 0x24 PUSH1 0x0 REVERT JUMPDEST SWAP1 MSTORE JUMP JUMPDEST PUSH1 0x20 DUP2 ADD PUSH2 0xB34 DUP3 DUP5 PUSH2 0xBD4 JUMP JUMPDEST PUSH4 0x4E487B71 PUSH1 0xE0 SHL PUSH1 0x0 MSTORE PUSH1 0x41 PUSH1 0x4 MSTORE PUSH1 0x24 PUSH1 0x0 REVERT JUMPDEST PUSH1 0x0 DUP3 PUSH1 0x1F DUP4 ADD SLT PUSH2 0xC2B JUMPI PUSH1 0x0 DUP1 REVERT JUMPDEST DUP2 CALLDATALOAD PUSH8 0xFFFFFFFFFFFFFFFF DUP2 GT ISZERO PUSH2 0xC45 JUMPI PUSH2 0xC45 PUSH2 0xC04 JUMP JUMPDEST PUSH1 0x40 MLOAD PUSH1 0x1F DUP3 ADD PUSH1 0x1F NOT SWAP1 DUP2 AND PUSH1 0x3F ADD AND DUP2 ADD PUSH8 0xFFFFFFFFFFFFFFFF DUP2 GT DUP3 DUP3 LT OR ISZERO PUSH2 0xC74 JUMPI PUSH2 0xC74 PUSH2 0xC04 JUMP JUMPDEST PUSH1 0x40 MSTORE DUP2 DUP2 MSTORE DUP4 DUP3 ADD PUSH1 0x20 ADD DUP6 LT ISZERO PUSH2 0xC8C JUMPI PUSH1 0x0 DUP1 REVERT JUMPDEST DUP2 PUSH1 0x20 DUP6 ADD PUSH1 0x20 DUP4 ADD CALLDATACOPY PUSH1 0x0 SWAP2 DUP2 ADD PUSH1 0x20 ADD SWAP2 SWAP1 SWAP2 MSTORE SWAP4 SWAP3 POP POP POP JUMP JUMPDEST PUSH1 0x0 DUP1 PUSH1 0x40 DUP4 DUP6 SUB SLT ISZERO PUSH2 0xCBC JUMPI PUSH1 0x0 DUP1 REVERT JUMPDEST DUP3 CALLDATALOAD SWAP2 POP PUSH1 0x20 DUP4 ADD CALLDATALOAD PUSH8 0xFFFFFFFFFFFFFFFF DUP2 GT ISZERO PUSH2 0xCDA JUMPI PUSH1 0x0 DUP1 REVERT JUMPDEST PUSH2 0xCE6 DUP6 DUP3 DUP7 ADD PUSH2 0xC1A JUMP JUMPDEST SWAP2 POP POP SWAP3 POP SWAP3 SWAP1 POP JUMP JUMPDEST PUSH1 0x0 PUSH1 0xA0 DUP3 ADD SWAP1 POP PUSH1 0x1 PUSH1 0x1 PUSH1 0xA0 SHL SUB DUP8 AND DUP3 MSTORE DUP6 PUSH1 0x20 DUP4 ADD MSTORE DUP5 PUSH1 0x40 DUP4 ADD MSTORE DUP4 PUSH1 0x60 DUP4 ADD MSTORE PUSH2 0xD23 PUSH1 0x80 DUP4 ADD DUP5 PUSH2 0xBD4 JUMP JUMPDEST SWAP7 SWAP6 POP POP POP POP POP POP JUMP JUMPDEST PUSH1 0x0 DUP1 PUSH1 0x0 PUSH1 0x60 DUP5 DUP7 SUB SLT ISZERO PUSH2 0xD42 JUMPI PUSH1 0x0 DUP1 REVERT JUMPDEST POP POP DUP2 CALLDATALOAD SWAP4 PUSH1 0x20 DUP4 ADD CALLDATALOAD SWAP4 POP PUSH1 0x40 SWAP1 SWAP3 ADD CALLDATALOAD SWAP2 SWAP1 POP JUMP JUMPDEST PUSH1 0x0 PUSH1 0x20 DUP3 DUP5 SUB SLT ISZERO PUSH2 0xD6B JUMPI PUSH1 0x0 DUP1 REVERT JUMPDEST DUP2 CALLDATALOAD PUSH8 0xFFFFFFFFFFFFFFFF DUP2 GT ISZERO PUSH2 0xD82 JUMPI PUSH1 0x0 DUP1 REVERT JUMPDEST PUSH2 0xD8E DUP5 DUP3 DUP6 ADD PUSH2 0xC1A JUMP JUMPDEST SWAP5 SWAP4 POP POP POP POP JUMP JUMPDEST PUSH4 0x4E487B71 PUSH1 0xE0 SHL PUSH1 0x0 MSTORE PUSH1 0x32 PUSH1 0x4 MSTORE PUSH1 0x24 PUSH1 0x0 REVERT JUMPDEST PUSH4 0x4E487B71 PUSH1 0xE0 SHL PUSH1 0x0 MSTORE PUSH1 0x11 PUSH1 0x4 MSTORE PUSH1 0x24 PUSH1 0x0 REVERT JUMPDEST DUP1 DUP3 ADD DUP1 DUP3 GT ISZERO PUSH2 0xB34 JUMPI PUSH2 0xB34 PUSH2 0xDAC JUMP JUMPDEST DUP2 DUP2 SUB DUP2 DUP2 GT ISZERO PUSH2 0xB34 JUMPI PUSH2 0xB34 PUSH2 0xDAC JUMP INVALID LOG2 PUSH5 0x6970667358 0x22 SLT KECCAK256 0xE 0xBB 0xCD 0xE5 0xEB PUSH15 0x4F436E2F0B1874B98A4AE32806D1F9 ADDRESS SIGNEXTEND SGT MOD TSTORE AND 0x2A 0xE5 MSTORE8 0xA5 0xA5 PUSH5 0x736F6C6343 STOP ADDMOD BYTE STOP CALLER "},"gasEstimates":{"creation":{"codeDepositCost":"722800","executionCost":"47094","totalCost":"769894"},"external":{"appeal(uint256,bytes)":"infinite","appealCost(uint256,bytes)":"infinite","appealPeriod(uint256)":"4664","arbitrationCost(bytes)":"infinite","createDispute(uint256,bytes)":"infinite","currentRuling(uint256)":"4662","disputeStatus(uint256)":"13449","disputes(uint256)":"13317","executeRuling(uint256)":"infinite","giveRuling(uint256,uint256,uint256)":"81137","governor()":"2350","setArbitrationPrice(uint256)":"24530"}},"methodIdentifiers":{"appeal(uint256,bytes)":"49912f88","appealCost(uint256,bytes)":"f23f16e6","appealPeriod(uint256)":"afe15cfb","arbitrationCost(bytes)":"f7434ea9","createDispute(uint256,bytes)":"c13517e1","currentRuling(uint256)":"1c3db16d","disputeStatus(uint256)":"10f169e8","disputes(uint256)":"564a565d","executeRuling(uint256)":"8bb04875","giveRuling(uint256,uint256,uint256)":"bc97d0f3","governor()":"0c340a24","setArbitrationPrice(uint256)":"ffb43c48"}},"storageLayout":{"storage":[{"astId":2861,"contract":"contracts/for-testing-purposes/Arbitrator.sol:Arbitrator","label":"governor","offset":0,"slot":"0","type":"t_address"},{"astId":2864,"contract":"contracts/for-testing-purposes/Arbitrator.sol:Arbitrator","label":"arbitrationPrice","offset":0,"slot":"1","type":"t_uint256"},{"astId":2893,"contract":"contracts/for-testing-purposes/Arbitrator.sol:Arbitrator","label":"disputes","offset":0,"slot":"2","type":"t_array(t_struct(Dispute)2877_storage)dyn_storage"}],"types":{"t_address":{"encoding":"inplace","label":"address","numberOfBytes":"20"},"t_array(t_struct(Dispute)2877_storage)dyn_storage":{"base":"t_struct(Dispute)2877_storage","encoding":"dynamic_array","label":"struct Arbitrator.Dispute[]","numberOfBytes":"32"},"t_contract(IArbitrable)153":{"encoding":"inplace","label":"contract IArbitrable","numberOfBytes":"20"},"t_enum(DisputeStatus)161":{"encoding":"inplace","label":"enum IArbitrator.DisputeStatus","numberOfBytes":"1"},"t_struct(Dispute)2877_storage":{"encoding":"inplace","label":"struct Arbitrator.Dispute","members":[{"astId":2867,"contract":"contracts/for-testing-purposes/Arbitrator.sol:Arbitrator","label":"arbitrated","offset":0,"slot":"0","type":"t_contract(IArbitrable)153"},{"astId":2869,"contract":"contracts/for-testing-purposes/Arbitrator.sol:Arbitrator","label":"appealDeadline","offset":0,"slot":"1","type":"t_uint256"},{"astId":2871,"contract":"contracts/for-testing-purposes/Arbitrator.sol:Arbitrator","label":"numberOfRulingOptions","offset":0,"slot":"2","type":"t_uint256"},{"astId":2873,"contract":"contracts/for-testing-purposes/Arbitrator.sol:Arbitrator","label":"ruling","offset":0,"slot":"3","type":"t_uint256"},{"astId":2876,"contract":"contracts/for-testing-purposes/Arbitrator.sol:Arbitrator","label":"status","offset":0,"slot":"4","type":"t_enum(DisputeStatus)161"}],"numberOfBytes":"160"},"t_uint256":{"encoding":"inplace","label":"uint256","numberOfBytes":"32"}}},"userdoc":{"kind":"user","methods":{},"version":1}}}}