{
  "_format": "hh-sol-artifact-1",
  "contractName": "TruthPost",
  "sourceName": "contracts/TruthPost.sol",
  "abi": [
    {
      "inputs": [
        {
          "internalType": "contract IArbitrator",
          "name": "_arbitrator",
          "type": "address"
        },
        {
          "internalType": "bytes",
          "name": "_arbitratorExtraData",
          "type": "bytes"
        },
        {
          "internalType": "string",
          "name": "_metaevidenceIpfsUri",
          "type": "string"
        },
        {
          "internalType": "uint256",
          "name": "_articleWithdrawalTimelock",
          "type": "uint256"
        },
        {
          "internalType": "uint256",
          "name": "_winnerStakeMultiplier",
          "type": "uint256"
        },
        {
          "internalType": "uint256",
          "name": "_loserStakeMultiplier",
          "type": "uint256"
        },
        {
          "internalType": "address payable",
          "name": "_treasury",
          "type": "address"
        }
      ],
      "stateMutability": "nonpayable",
      "type": "constructor"
    },
    {
      "anonymous": false,
      "inputs": [
        {
          "indexed": true,
          "internalType": "address",
          "name": "_newAdmin",
          "type": "address"
        }
      ],
      "name": "AdminUpdate",
      "type": "event"
    },
    {
      "anonymous": false,
      "inputs": [
        {
          "indexed": true,
          "internalType": "uint256",
          "name": "_newWithdrawalTimelock",
          "type": "uint256"
        }
      ],
      "name": "ArticleWithdrawalTimelockUpdate",
      "type": "event"
    },
    {
      "anonymous": false,
      "inputs": [
        {
          "indexed": false,
          "internalType": "uint256",
          "name": "articleAddress",
          "type": "uint256"
        }
      ],
      "name": "ArticleWithdrawn",
      "type": "event"
    },
    {
      "anonymous": false,
      "inputs": [
        {
          "indexed": false,
          "internalType": "uint256",
          "name": "articleAddress",
          "type": "uint256"
        },
        {
          "indexed": false,
          "internalType": "uint256",
          "name": "newTotal",
          "type": "uint256"
        }
      ],
      "name": "BalanceUpdate",
      "type": "event"
    },
    {
      "anonymous": false,
      "inputs": [
        {
          "indexed": true,
          "internalType": "uint256",
          "name": "articleAddress",
          "type": "uint256"
        },
        {
          "indexed": false,
          "internalType": "address",
          "name": "challanger",
          "type": "address"
        },
        {
          "indexed": false,
          "internalType": "uint256",
          "name": "disputeID",
          "type": "uint256"
        }
      ],
      "name": "Challenge",
      "type": "event"
    },
    {
      "anonymous": false,
      "inputs": [
        {
          "indexed": true,
          "internalType": "uint256",
          "name": "_newTaxRate",
          "type": "uint256"
        }
      ],
      "name": "ChallengeTaxRateUpdate",
      "type": "event"
    },
    {
      "anonymous": false,
      "inputs": [
        {
          "indexed": true,
          "internalType": "uint256",
          "name": "disputeId",
          "type": "uint256"
        },
        {
          "indexed": true,
          "internalType": "uint256",
          "name": "round",
          "type": "uint256"
        },
        {
          "indexed": false,
          "internalType": "enum ITruthPost.RulingOptions",
          "name": "ruling",
          "type": "uint8"
        },
        {
          "indexed": true,
          "internalType": "address",
          "name": "contributor",
          "type": "address"
        },
        {
          "indexed": false,
          "internalType": "uint256",
          "name": "amount",
          "type": "uint256"
        }
      ],
      "name": "Contribution",
      "type": "event"
    },
    {
      "anonymous": false,
      "inputs": [
        {
          "indexed": false,
          "internalType": "uint256",
          "name": "articleAddress",
          "type": "uint256"
        }
      ],
      "name": "Debunked",
      "type": "event"
    },
    {
      "anonymous": false,
      "inputs": [
        {
          "indexed": true,
          "internalType": "contract IArbitrator",
          "name": "_arbitrator",
          "type": "address"
        },
        {
          "indexed": true,
          "internalType": "uint256",
          "name": "_disputeID",
          "type": "uint256"
        },
        {
          "indexed": false,
          "internalType": "uint256",
          "name": "_metaEvidenceID",
          "type": "uint256"
        },
        {
          "indexed": false,
          "internalType": "uint256",
          "name": "_evidenceGroupID",
          "type": "uint256"
        }
      ],
      "name": "Dispute",
      "type": "event"
    },
    {
      "anonymous": false,
      "inputs": [
        {
          "indexed": true,
          "internalType": "contract IArbitrator",
          "name": "_arbitrator",
          "type": "address"
        },
        {
          "indexed": true,
          "internalType": "uint256",
          "name": "_evidenceGroupID",
          "type": "uint256"
        },
        {
          "indexed": true,
          "internalType": "address",
          "name": "_party",
          "type": "address"
        },
        {
          "indexed": false,
          "internalType": "string",
          "name": "_evidence",
          "type": "string"
        }
      ],
      "name": "Evidence",
      "type": "event"
    },
    {
      "anonymous": false,
      "inputs": [
        {
          "indexed": true,
          "internalType": "uint256",
          "name": "_newLoserAppealPeriodMultiplier",
          "type": "uint256"
        }
      ],
      "name": "LoserAppealPeriodMultiplierUpdate",
      "type": "event"
    },
    {
      "anonymous": false,
      "inputs": [
        {
          "indexed": true,
          "internalType": "uint256",
          "name": "_newLoserStakeMultiplier",
          "type": "uint256"
        }
      ],
      "name": "LoserStakeMultiplierUpdate",
      "type": "event"
    },
    {
      "anonymous": false,
      "inputs": [
        {
          "indexed": true,
          "internalType": "uint256",
          "name": "_metaEvidenceID",
          "type": "uint256"
        },
        {
          "indexed": false,
          "internalType": "string",
          "name": "_evidence",
          "type": "string"
        }
      ],
      "name": "MetaEvidence",
      "type": "event"
    },
    {
      "anonymous": false,
      "inputs": [
        {
          "indexed": false,
          "internalType": "string",
          "name": "articleID",
          "type": "string"
        },
        {
          "indexed": false,
          "internalType": "uint8",
          "name": "category",
          "type": "uint8"
        },
        {
          "indexed": false,
          "internalType": "uint256",
          "name": "articleAddress",
          "type": "uint256"
        }
      ],
      "name": "NewArticle",
      "type": "event"
    },
    {
      "anonymous": false,
      "inputs": [
        {
          "indexed": true,
          "internalType": "address",
          "name": "_newOwner",
          "type": "address"
        }
      ],
      "name": "OwnershipTransfer",
      "type": "event"
    },
    {
      "anonymous": false,
      "inputs": [
        {
          "indexed": true,
          "internalType": "contract IArbitrator",
          "name": "_arbitrator",
          "type": "address"
        },
        {
          "indexed": true,
          "internalType": "uint256",
          "name": "_disputeID",
          "type": "uint256"
        },
        {
          "indexed": false,
          "internalType": "uint256",
          "name": "_ruling",
          "type": "uint256"
        }
      ],
      "name": "Ruling",
      "type": "event"
    },
    {
      "anonymous": false,
      "inputs": [
        {
          "indexed": true,
          "internalType": "uint256",
          "name": "disputeId",
          "type": "uint256"
        },
        {
          "indexed": true,
          "internalType": "uint256",
          "name": "round",
          "type": "uint256"
        },
        {
          "indexed": true,
          "internalType": "enum ITruthPost.RulingOptions",
          "name": "ruling",
          "type": "uint8"
        }
      ],
      "name": "RulingFunded",
      "type": "event"
    },
    {
      "anonymous": false,
      "inputs": [
        {
          "indexed": false,
          "internalType": "uint256",
          "name": "articleAddress",
          "type": "uint256"
        }
      ],
      "name": "TimelockStarted",
      "type": "event"
    },
    {
      "anonymous": false,
      "inputs": [
        {
          "indexed": true,
          "internalType": "uint256",
          "name": "_byAmount",
          "type": "uint256"
        }
      ],
      "name": "TreasuryBalanceUpdate",
      "type": "event"
    },
    {
      "anonymous": false,
      "inputs": [
        {
          "indexed": true,
          "internalType": "address",
          "name": "_newTreasury",
          "type": "address"
        }
      ],
      "name": "TreasuryUpdate",
      "type": "event"
    },
    {
      "anonymous": false,
      "inputs": [
        {
          "indexed": true,
          "internalType": "uint256",
          "name": "_newWinnerStakeMultiplier",
          "type": "uint256"
        }
      ],
      "name": "WinnerStakeMultiplierUpdate",
      "type": "event"
    },
    {
      "anonymous": false,
      "inputs": [
        {
          "indexed": true,
          "internalType": "uint256",
          "name": "disputeId",
          "type": "uint256"
        },
        {
          "indexed": true,
          "internalType": "uint256",
          "name": "round",
          "type": "uint256"
        },
        {
          "indexed": false,
          "internalType": "enum ITruthPost.RulingOptions",
          "name": "ruling",
          "type": "uint8"
        },
        {
          "indexed": true,
          "internalType": "address",
          "name": "contributor",
          "type": "address"
        },
        {
          "indexed": false,
          "internalType": "uint256",
          "name": "reward",
          "type": "uint256"
        }
      ],
      "name": "Withdrawal",
      "type": "event"
    },
    {
      "inputs": [],
      "name": "ARBITRATOR",
      "outputs": [
        {
          "internalType": "contract IArbitrator",
          "name": "",
          "type": "address"
        }
      ],
      "stateMutability": "view",
      "type": "function"
    },
    {
      "inputs": [],
      "name": "ARTICLE_WITHDRAWAL_TIMELOCK",
      "outputs": [
        {
          "internalType": "uint256",
          "name": "",
          "type": "uint256"
        }
      ],
      "stateMutability": "view",
      "type": "function"
    },
    {
      "inputs": [],
      "name": "LOSER_APPEAL_PERIOD_MULTIPLIER",
      "outputs": [
        {
          "internalType": "uint256",
          "name": "",
          "type": "uint256"
        }
      ],
      "stateMutability": "view",
      "type": "function"
    },
    {
      "inputs": [],
      "name": "LOSER_STAKE_MULTIPLIER",
      "outputs": [
        {
          "internalType": "uint256",
          "name": "",
          "type": "uint256"
        }
      ],
      "stateMutability": "view",
      "type": "function"
    },
    {
      "inputs": [],
      "name": "MULTIPLIER_DENOMINATOR",
      "outputs": [
        {
          "internalType": "uint256",
          "name": "",
          "type": "uint256"
        }
      ],
      "stateMutability": "view",
      "type": "function"
    },
    {
      "inputs": [],
      "name": "NUMBER_OF_LEAST_SIGNIFICANT_BITS_TO_IGNORE",
      "outputs": [
        {
          "internalType": "uint256",
          "name": "",
          "type": "uint256"
        }
      ],
      "stateMutability": "view",
      "type": "function"
    },
    {
      "inputs": [],
      "name": "NUMBER_OF_RULING_OPTIONS",
      "outputs": [
        {
          "internalType": "uint256",
          "name": "",
          "type": "uint256"
        }
      ],
      "stateMutability": "view",
      "type": "function"
    },
    {
      "inputs": [],
      "name": "TREASURY",
      "outputs": [
        {
          "internalType": "address payable",
          "name": "",
          "type": "address"
        }
      ],
      "stateMutability": "view",
      "type": "function"
    },
    {
      "inputs": [],
      "name": "VERSION",
      "outputs": [
        {
          "internalType": "string",
          "name": "",
          "type": "string"
        }
      ],
      "stateMutability": "view",
      "type": "function"
    },
    {
      "inputs": [],
      "name": "WINNER_STAKE_MULTIPLIER",
      "outputs": [
        {
          "internalType": "uint256",
          "name": "",
          "type": "uint256"
        }
      ],
      "stateMutability": "view",
      "type": "function"
    },
    {
      "inputs": [],
      "name": "admin",
      "outputs": [
        {
          "internalType": "address payable",
          "name": "",
          "type": "address"
        }
      ],
      "stateMutability": "view",
      "type": "function"
    },
    {
      "inputs": [
        {
          "internalType": "uint256",
          "name": "_disputeID",
          "type": "uint256"
        }
      ],
      "name": "appealFee",
      "outputs": [
        {
          "internalType": "uint256",
          "name": "arbitrationFee",
          "type": "uint256"
        }
      ],
      "stateMutability": "view",
      "type": "function"
    },
    {
      "inputs": [
        {
          "internalType": "uint72",
          "name": "",
          "type": "uint72"
        }
      ],
      "name": "articleStorage",
      "outputs": [
        {
          "internalType": "address payable",
          "name": "owner",
          "type": "address"
        },
        {
          "internalType": "uint32",
          "name": "withdrawalPermittedAt",
          "type": "uint32"
        },
        {
          "internalType": "uint56",
          "name": "bountyAmount",
          "type": "uint56"
        },
        {
          "internalType": "uint8",
          "name": "category",
          "type": "uint8"
        }
      ],
      "stateMutability": "view",
      "type": "function"
    },
    {
      "inputs": [],
      "name": "categoryCounter",
      "outputs": [
        {
          "internalType": "uint8",
          "name": "",
          "type": "uint8"
        }
      ],
      "stateMutability": "view",
      "type": "function"
    },
    {
      "inputs": [
        {
          "internalType": "uint256",
          "name": "",
          "type": "uint256"
        }
      ],
      "name": "categoryToArbitratorExtraData",
      "outputs": [
        {
          "internalType": "bytes",
          "name": "",
          "type": "bytes"
        }
      ],
      "stateMutability": "view",
      "type": "function"
    },
    {
      "inputs": [
        {
          "internalType": "uint72",
          "name": "_articleStorageAddress",
          "type": "uint72"
        }
      ],
      "name": "challenge",
      "outputs": [],
      "stateMutability": "payable",
      "type": "function"
    },
    {
      "inputs": [
        {
          "internalType": "uint72",
          "name": "_articleStorageAddress",
          "type": "uint72"
        }
      ],
      "name": "challengeFee",
      "outputs": [
        {
          "internalType": "uint256",
          "name": "",
          "type": "uint256"
        }
      ],
      "stateMutability": "view",
      "type": "function"
    },
    {
      "inputs": [],
      "name": "challengeTaxRate",
      "outputs": [
        {
          "internalType": "uint256",
          "name": "",
          "type": "uint256"
        }
      ],
      "stateMutability": "view",
      "type": "function"
    },
    {
      "inputs": [
        {
          "internalType": "address payable",
          "name": "_newAdmin",
          "type": "address"
        }
      ],
      "name": "changeAdmin",
      "outputs": [],
      "stateMutability": "nonpayable",
      "type": "function"
    },
    {
      "inputs": [
        {
          "internalType": "uint256",
          "name": "_newArticleWithdrawalTimelock",
          "type": "uint256"
        }
      ],
      "name": "changeArticleWithdrawalTimelock",
      "outputs": [],
      "stateMutability": "nonpayable",
      "type": "function"
    },
    {
      "inputs": [
        {
          "internalType": "uint256",
          "name": "_newLoserAppealPeriodMultiplier",
          "type": "uint256"
        }
      ],
      "name": "changeLoserAppealPeriodMultiplier",
      "outputs": [],
      "stateMutability": "nonpayable",
      "type": "function"
    },
    {
      "inputs": [
        {
          "internalType": "uint256",
          "name": "_newLoserStakeMultiplier",
          "type": "uint256"
        }
      ],
      "name": "changeLoserStakeMultiplier",
      "outputs": [],
      "stateMutability": "nonpayable",
      "type": "function"
    },
    {
      "inputs": [
        {
          "internalType": "address payable",
          "name": "_newTreasury",
          "type": "address"
        }
      ],
      "name": "changeTreasury",
      "outputs": [],
      "stateMutability": "nonpayable",
      "type": "function"
    },
    {
      "inputs": [
        {
          "internalType": "uint256",
          "name": "_newWinnerStakeMultiplier",
          "type": "uint256"
        }
      ],
      "name": "changeWinnerStakeMultiplier",
      "outputs": [],
      "stateMutability": "nonpayable",
      "type": "function"
    },
    {
      "inputs": [
        {
          "internalType": "uint256",
          "name": "",
          "type": "uint256"
        }
      ],
      "name": "disputes",
      "outputs": [
        {
          "internalType": "address payable",
          "name": "challenger",
          "type": "address"
        },
        {
          "internalType": "enum ITruthPost.RulingOptions",
          "name": "outcome",
          "type": "uint8"
        },
        {
          "internalType": "uint8",
          "name": "articleCategory",
          "type": "uint8"
        },
        {
          "internalType": "bool",
          "name": "resolved",
          "type": "bool"
        },
        {
          "internalType": "uint72",
          "name": "articleStorageAddress",
          "type": "uint72"
        }
      ],
      "stateMutability": "view",
      "type": "function"
    },
    {
      "inputs": [
        {
          "internalType": "uint72",
          "name": "_searchPointer",
          "type": "uint72"
        }
      ],
      "name": "findVacantStorageSlot",
      "outputs": [
        {
          "internalType": "uint256",
          "name": "vacantSlotIndex",
          "type": "uint256"
        }
      ],
      "stateMutability": "view",
      "type": "function"
    },
    {
      "inputs": [
        {
          "internalType": "uint256",
          "name": "_disputeID",
          "type": "uint256"
        },
        {
          "internalType": "enum ITruthPost.RulingOptions",
          "name": "_supportedRuling",
          "type": "uint8"
        }
      ],
      "name": "fundAppeal",
      "outputs": [
        {
          "internalType": "bool",
          "name": "fullyFunded",
          "type": "bool"
        }
      ],
      "stateMutability": "payable",
      "type": "function"
    },
    {
      "inputs": [
        {
          "internalType": "uint256",
          "name": "_disputeID",
          "type": "uint256"
        },
        {
          "internalType": "enum ITruthPost.RulingOptions",
          "name": "_ruling",
          "type": "uint8"
        }
      ],
      "name": "getAmountRemainsToBeRaised",
      "outputs": [
        {
          "internalType": "uint256",
          "name": "",
          "type": "uint256"
        }
      ],
      "stateMutability": "view",
      "type": "function"
    },
    {
      "inputs": [
        {
          "internalType": "uint256",
          "name": "_disputeID",
          "type": "uint256"
        },
        {
          "internalType": "enum ITruthPost.RulingOptions",
          "name": "_ruling",
          "type": "uint8"
        }
      ],
      "name": "getAppealPeriod",
      "outputs": [
        {
          "internalType": "uint256",
          "name": "",
          "type": "uint256"
        },
        {
          "internalType": "uint256",
          "name": "",
          "type": "uint256"
        }
      ],
      "stateMutability": "view",
      "type": "function"
    },
    {
      "inputs": [
        {
          "internalType": "uint256",
          "name": "_disputeID",
          "type": "uint256"
        }
      ],
      "name": "getLastRoundWinner",
      "outputs": [
        {
          "internalType": "uint256",
          "name": "",
          "type": "uint256"
        }
      ],
      "stateMutability": "view",
      "type": "function"
    },
    {
      "inputs": [
        {
          "internalType": "enum ITruthPost.RulingOptions",
          "name": "_ruling",
          "type": "uint8"
        },
        {
          "internalType": "enum ITruthPost.RulingOptions",
          "name": "_lastRoundWinner",
          "type": "uint8"
        }
      ],
      "name": "getReturnOfInvestmentRatio",
      "outputs": [
        {
          "internalType": "uint256",
          "name": "",
          "type": "uint256"
        }
      ],
      "stateMutability": "view",
      "type": "function"
    },
    {
      "inputs": [
        {
          "internalType": "uint256",
          "name": "_disputeID",
          "type": "uint256"
        },
        {
          "internalType": "uint256",
          "name": "_round",
          "type": "uint256"
        }
      ],
      "name": "getRoundInfo",
      "outputs": [
        {
          "internalType": "bool[3]",
          "name": "hasPaid",
          "type": "bool[3]"
        },
        {
          "internalType": "uint256[3]",
          "name": "totalPerRuling",
          "type": "uint256[3]"
        },
        {
          "internalType": "uint256",
          "name": "totalClaimableAfterExpenses",
          "type": "uint256"
        }
      ],
      "stateMutability": "view",
      "type": "function"
    },
    {
      "inputs": [
        {
          "internalType": "uint256",
          "name": "_disputeID",
          "type": "uint256"
        },
        {
          "internalType": "address payable",
          "name": "_contributor",
          "type": "address"
        }
      ],
      "name": "getTotalWithdrawableAmount",
      "outputs": [
        {
          "internalType": "uint256",
          "name": "sum",
          "type": "uint256"
        },
        {
          "internalType": "uint256[][]",
          "name": "amounts",
          "type": "uint256[][]"
        }
      ],
      "stateMutability": "view",
      "type": "function"
    },
    {
      "inputs": [
        {
          "internalType": "uint72",
          "name": "_articleStorageAddress",
          "type": "uint72"
        }
      ],
      "name": "increaseBounty",
      "outputs": [],
      "stateMutability": "payable",
      "type": "function"
    },
    {
      "inputs": [
        {
          "internalType": "string",
          "name": "_articleID",
          "type": "string"
        },
        {
          "internalType": "uint8",
          "name": "_category",
          "type": "uint8"
        },
        {
          "internalType": "uint72",
          "name": "_searchPointer",
          "type": "uint72"
        }
      ],
      "name": "initializeArticle",
      "outputs": [],
      "stateMutability": "payable",
      "type": "function"
    },
    {
      "inputs": [
        {
          "internalType": "uint72",
          "name": "_articleStorageAddress",
          "type": "uint72"
        }
      ],
      "name": "initiateWithdrawal",
      "outputs": [],
      "stateMutability": "nonpayable",
      "type": "function"
    },
    {
      "inputs": [
        {
          "internalType": "string",
          "name": "_metaevidenceIpfsUri",
          "type": "string"
        },
        {
          "internalType": "bytes",
          "name": "_arbitratorExtraData",
          "type": "bytes"
        }
      ],
      "name": "newCategory",
      "outputs": [],
      "stateMutability": "nonpayable",
      "type": "function"
    },
    {
      "inputs": [
        {
          "internalType": "uint256",
          "name": "_disputeID",
          "type": "uint256"
        },
        {
          "internalType": "uint256",
          "name": "_ruling",
          "type": "uint256"
        }
      ],
      "name": "rule",
      "outputs": [],
      "stateMutability": "nonpayable",
      "type": "function"
    },
    {
      "inputs": [
        {
          "internalType": "uint256",
          "name": "_disputeID",
          "type": "uint256"
        },
        {
          "internalType": "string",
          "name": "_evidenceURI",
          "type": "string"
        }
      ],
      "name": "submitEvidence",
      "outputs": [],
      "stateMutability": "nonpayable",
      "type": "function"
    },
    {
      "inputs": [],
      "name": "switchPublishingLock",
      "outputs": [],
      "stateMutability": "nonpayable",
      "type": "function"
    },
    {
      "inputs": [],
      "name": "transferBalanceToTreasury",
      "outputs": [],
      "stateMutability": "nonpayable",
      "type": "function"
    },
    {
      "inputs": [
        {
          "internalType": "uint72",
          "name": "_articleStorageAddress",
          "type": "uint72"
        },
        {
          "internalType": "address payable",
          "name": "_newOwner",
          "type": "address"
        }
      ],
      "name": "transferOwnership",
      "outputs": [],
      "stateMutability": "nonpayable",
      "type": "function"
    },
    {
      "inputs": [],
      "name": "treasuryBalance",
      "outputs": [
        {
          "internalType": "uint256",
          "name": "",
          "type": "uint256"
        }
      ],
      "stateMutability": "view",
      "type": "function"
    },
    {
      "inputs": [
        {
          "internalType": "uint256",
          "name": "_newChallengeTaxRate",
          "type": "uint256"
        }
      ],
      "name": "updateChallengeTaxRate",
      "outputs": [],
      "stateMutability": "nonpayable",
      "type": "function"
    },
    {
      "inputs": [
        {
          "internalType": "uint72",
          "name": "_articleStorageAddress",
          "type": "uint72"
        }
      ],
      "name": "withdraw",
      "outputs": [],
      "stateMutability": "nonpayable",
      "type": "function"
    },
    {
      "inputs": [
        {
          "internalType": "uint256",
          "name": "_disputeID",
          "type": "uint256"
        },
        {
          "internalType": "address payable",
          "name": "_contributor",
          "type": "address"
        },
        {
          "internalType": "uint256",
          "name": "_roundNumber",
          "type": "uint256"
        },
        {
          "internalType": "enum ITruthPost.RulingOptions",
          "name": "_ruling",
          "type": "uint8"
        }
      ],
      "name": "withdrawFeesAndRewards",
      "outputs": [
        {
          "internalType": "uint256",
          "name": "amount",
          "type": "uint256"
        }
      ],
      "stateMutability": "nonpayable",
      "type": "function"
    },
    {
      "inputs": [
        {
          "internalType": "uint256",
          "name": "_disputeID",
          "type": "uint256"
        },
        {
          "internalType": "address payable",
          "name": "_contributor",
          "type": "address"
        },
        {
          "internalType": "enum ITruthPost.RulingOptions",
          "name": "_ruling",
          "type": "uint8"
        }
      ],
      "name": "withdrawFeesAndRewardsForAllRounds",
      "outputs": [],
      "stateMutability": "nonpayable",
      "type": "function"
    },
    {
      "inputs": [
        {
          "internalType": "uint256",
          "name": "_disputeID",
          "type": "uint256"
        },
        {
          "internalType": "address payable",
          "name": "_contributor",
          "type": "address"
        }
      ],
      "name": "withdrawFeesAndRewardsForAllRoundsAndAllRulings",
      "outputs": [],
      "stateMutability": "nonpayable",
      "type": "function"
    },
    {
      "inputs": [
        {
          "internalType": "uint256",
          "name": "_disputeID",
          "type": "uint256"
        },
        {
          "internalType": "address payable",
          "name": "_contributor",
          "type": "address"
        },
        {
          "internalType": "uint256[][]",
          "name": "positions",
          "type": "uint256[][]"
        }
      ],
      "name": "withdrawFeesAndRewardsForGivenPositions",
      "outputs": [],
      "stateMutability": "nonpayable",
      "type": "function"
    }
  ],
  "bytecode": "0x60a06040526000805460ff1916600117905561020060025560106006556007805433610100026001600160a81b031990911617905534801561004057600080fd5b5060405161454738038061454783398101604081905261005f916102af565b600384905560048390556005829055600080546001600160a01b0380841661010002610100600160a81b03199092169190911790915587166080526100a485876100b0565b50505050505050610554565b6007546100c19060ff166001610386565b60ff166000036101175760405162461bcd60e51b815260206004820181905260248201527f4e6f207370616365206c65667420666f722061206e65772063617465676f7279604482015260640160405180910390fd5b60075460405160ff909116907f61606860eb6c87306811e2695215385101daab53bd6ab4e9f9049aead9363c7d906101509085906103a5565b60405180910390a2600754819060089060ff1660408110610173576101736103d8565b019061017f9082610477565b506007805460ff1690600061019383610535565b91906101000a81548160ff021916908360ff160217905550505050565b6001600160a01b03811681146101c557600080fd5b50565b634e487b7160e01b600052604160045260246000fd5b60005b838110156101f95781810151838201526020016101e1565b50506000910152565b6000806001600160401b0384111561021c5761021c6101c8565b50604051601f19601f85018116603f011681018181106001600160401b038211171561024a5761024a6101c8565b60405283815290508082840185101561026257600080fd5b6102708460208301856101de565b509392505050565b600082601f83011261028957600080fd5b61029883835160208501610202565b9392505050565b80516102aa816101b0565b919050565b600080600080600080600060e0888a0312156102ca57600080fd5b87516102d5816101b0565b60208901519097506001600160401b038111156102f157600080fd5b8801601f81018a1361030257600080fd5b6103118a825160208401610202565b60408a015190975090506001600160401b0381111561032f57600080fd5b61033b8a828b01610278565b60608a015160808b015160a08c015192985090965094509250610362905060c0890161029f565b905092959891949750929550565b634e487b7160e01b600052601160045260246000fd5b60ff818116838216019081111561039f5761039f610370565b92915050565b60208152600082518060208401526103c48160408501602087016101de565b601f01601f19169190910160400192915050565b634e487b7160e01b600052603260045260246000fd5b600181811c9082168061040257607f821691505b60208210810361042257634e487b7160e01b600052602260045260246000fd5b50919050565b601f82111561047257806000526020600020601f840160051c8101602085101561044f5750805b601f840160051c820191505b8181101561046f576000815560010161045b565b50505b505050565b81516001600160401b03811115610490576104906101c8565b6104a48161049e84546103ee565b84610428565b6020601f8211600181146104d857600083156104c05750848201515b600019600385901b1c1916600184901b17845561046f565b600084815260208120601f198516915b8281101561050857878501518255602094850194600190920191016104e8565b50848210156105265786840151600019600387901b60f8161c191681555b50505050600190811b01905550565b600060ff821660ff810361054b5761054b610370565b60010192915050565b608051613f7d6105ca6000396000818161067001528181610c0501528181610d8301528181610e4101528181610ecf015281816110b4015281816114f10152818161162c015281816117b201528181611a6001528181611e420152818161206b015281816123ba01526124b40152613f7d6000f3fe60806040526004361061031e5760003560e01c8063a509efeb116101a5578063c9330c0f116100ec578063e349ad3011610095578063faa0ba9d1161006f578063faa0ba9d146109c0578063fc0ac672146109d3578063fe6ca782146109e9578063ffa1ad74146109ff57600080fd5b8063e349ad3014610965578063ec4adca91461097b578063f851a4401461099b57600080fd5b8063d970d18c116100c6578063d970d18c14610910578063dc227fc214610925578063e165720c1461094557600080fd5b8063c9330c0f146108ba578063c94828f0146108da578063d3b476b1146108fa57600080fd5b8063b34bfaa81161014e578063ba0ec60b11610128578063ba0ec60b1461086f578063ba4c8f8f14610884578063be467604146108a457600080fd5b8063b34bfaa814610824578063b4c705811461083a578063b7bddc721461085a57600080fd5b8063adc7faba1161017f578063adc7faba146107b6578063af4a9144146107d6578063b14f2a391461080457600080fd5b8063a509efeb14610756578063a6a7f0eb14610776578063a92c47071461079657600080fd5b80634de12db0116102695780637597b3cb116102125780638f283970116101ec5780638f283970146106f657806392239dff1461071657806392e259251461073657600080fd5b80637597b3cb146106925780637f67bd6c146106a75780638a9bb02a146106c757600080fd5b806367284f211161024357806367284f211461061e5780636760aeb01461063e57806368871c9c1461065e57600080fd5b80634de12db014610541578063564a565d1461056e578063638af3da146105e957600080fd5b8063311a6c56116102cb5780633e556162116102a55780633e5561621461046d57806344b9ad061461050e5780634c55c0001461052157600080fd5b8063311a6c5614610417578063313dab2014610437578063376414831461044d57600080fd5b80631e26de34116102fc5780631e26de341461038c57806326804bef146103ba5780632d2c5565146103da57600080fd5b806303624fc01461032357806312a145e11461035457806312b3a2c014610369575b600080fd5b34801561032f57600080fd5b5060075461033d9060ff1681565b60405160ff90911681526020015b60405180910390f35b6103676103623660046134d4565b610a48565b005b61037c6103773660046134fe565b610e1b565b604051901515815260200161034b565b34801561039857600080fd5b506103ac6103a736600461352a565b611617565b60405190815260200161034b565b3480156103c657600080fd5b506103676103d536600461352a565b6116e0565b3480156103e657600080fd5b506000546103ff9061010090046001600160a01b031681565b6040516001600160a01b03909116815260200161034b565b34801561042357600080fd5b50610367610432366004613543565b6117a7565b34801561044357600080fd5b506103ac60015481565b34801561045957600080fd5b506103ac6104683660046134d4565b611a3d565b34801561047957600080fd5b506104ce6104883660046134d4565b6048602052600090815260409020546001600160a01b03811690600160a01b810463ffffffff1690600160c01b810466ffffffffffffff1690600160f81b900460ff1684565b604080516001600160a01b03909516855263ffffffff909316602085015266ffffffffffffff9091169183019190915260ff16606082015260800161034b565b61036761051c3660046134d4565b611b58565b34801561052d57600080fd5b5061036761053c3660046135f5565b611c9e565b34801561054d57600080fd5b5061056161055c36600461352a565b611d9a565b60405161034b91906136cc565b34801561057a57600080fd5b506105d861058936600461352a565b6049602052600090815260409020546001600160a01b0381169060ff600160a01b8204811691600160a81b8104821691600160b01b8204169068ffffffffffffffffff600160b81b9091041685565b60405161034b959493929190613717565b3480156105f557600080fd5b506106096106043660046134fe565b611e3a565b6040805192835260208301919091520161034b565b34801561062a57600080fd5b50610367610639366004613775565b611f67565b34801561064a57600080fd5b50610367610659366004613802565b612017565b34801561066a57600080fd5b506103ff7f000000000000000000000000000000000000000000000000000000000000000081565b34801561069e57600080fd5b506103ac600281565b3480156106b357600080fd5b506103ac6106c236600461352a565b612052565b3480156106d357600080fd5b506106e76106e2366004613543565b6120de565b60405161034b9392919061383e565b34801561070257600080fd5b506103676107113660046138a3565b6121ce565b34801561072257600080fd5b5061036761073136600461352a565b612249565b34801561074257600080fd5b5061036761075136600461352a565b612298565b34801561076257600080fd5b506103ac6107713660046134fe565b6122e7565b34801561078257600080fd5b50610367610791366004613900565b6124a7565b3480156107a257600080fd5b506103676107b13660046134d4565b61251a565b3480156107c257600080fd5b506103676107d136600461352a565b612753565b3480156107e257600080fd5b506107f66107f136600461394c565b6127a2565b60405161034b92919061396f565b34801561081057600080fd5b5061036761081f3660046138a3565b612981565b34801561083057600080fd5b506103ac60055481565b34801561084657600080fd5b506103ac610855366004613a05565b6129fa565b34801561086657600080fd5b50610367612a84565b34801561087b57600080fd5b50610367612ae9565b34801561089057600080fd5b5061036761089f3660046134d4565b612b19565b3480156108b057600080fd5b506103ac60025481565b3480156108c657600080fd5b506103676108d536600461394c565b612c82565b3480156108e657600080fd5b506103676108f536600461352a565b612cdf565b34801561090657600080fd5b506103ac60035481565b34801561091c57600080fd5b506103ac602081565b34801561093157600080fd5b506103ac610940366004613a2f565b612d2e565b34801561095157600080fd5b506103ac6109603660046134d4565b612e92565b34801561097157600080fd5b506103ac60045481565b34801561098757600080fd5b50610367610996366004613a75565b612f11565b3480156109a757600080fd5b506007546103ff9061010090046001600160a01b031681565b6103676109ce366004613a9f565b61300b565b3480156109df57600080fd5b506103ac60065481565b3480156109f557600080fd5b506103ac61040081565b348015610a0b57600080fd5b506105616040518060400160405280600581526020017f312e322e3000000000000000000000000000000000000000000000000000000081525081565b68ffffffffffffffffff811660009081526048602052604090208054600160c01b900466ffffffffffffff16610ac55760405162461bcd60e51b815260206004820152601560248201527f4e6f7468696e6720746f206368616c6c656e67652e000000000000000000000060448201526064015b60405180910390fd5b805463fffffffe19600160a01b90910463ffffffff1601610b285760405162461bcd60e51b815260206004820152601e60248201527f546865726520697320616e206f6e676f696e67206368616c6c656e67652e00006044820152606401610abc565b805463ffffffff60a01b191677ffffffff0000000000000000000000000000000000000000178155610b5982611a3d565b341015610ba85760405162461bcd60e51b815260206004820181905260248201527f496e73756666696369656e742066756e647320746f206368616c6c656e67652e6044820152606401610abc565b600654815460009161040091610bd59190600160c01b900460201b6affffffffffffff0000000016613b16565b610bdf9190613b2d565b90508060016000828254610bf39190613b4f565b90915550600090506001600160a01b037f00000000000000000000000000000000000000000000000000000000000000001663c13517e1610c348434613b62565b8554600290600890600160f81b900460ff1660408110610c5657610c56613b75565b016040518463ffffffff1660e01b8152600401610c74929190613c48565b60206040518083038185885af1158015610c92573d6000803e3d6000fd5b50505050506040513d601f19601f82011682018060405250810190610cb79190613c69565b600081815260496020908152604091829020805460018083018054909101905576ffffff0000000000000000000000000000000000000000163376ffffffffffffffffffffffffffffffffffffffffffffff1617600160b81b68ffffffffffffffffff8a16021780825587547fffffffffffffffffffff00ffffffffffffffffffffffffffffffffffffffffff909116600160f81b9182900460ff908116600160a81b029190911790925587548451919004909116815290810183905291925082916001600160a01b037f000000000000000000000000000000000000000000000000000000000000000016917f74baab670a4015ab2f1b467c5252a96141a2573f2908e58a92081e80d3cfde3d910160405180910390a3604080513381526020810183905268ffffffffffffffffff8616917f1e5338a1fb672aa84963dc9f9e4afd009b4ed726debb09224bf4d02a6c68b4e4910160405180910390a250505050565b6000828152604960205260408082209051631c3db16d60e01b81526004810185905282907f00000000000000000000000000000000000000000000000000000000000000006001600160a01b031690631c3db16d90602401602060405180830381865afa158015610e90573d6000803e3d6000fd5b505050506040513d601f19601f82011682018060405250810190610eb49190613c69565b6002811115610ec557610ec56136df565b90506000806000807f00000000000000000000000000000000000000000000000000000000000000006001600160a01b031663afe15cfb8a6040518263ffffffff1660e01b8152600401610f1b91815260200190565b6040805180830381865afa158015610f37573d6000803e3d6000fd5b505050506040513d601f19601f82011682018060405250810190610f5b9190613c82565b915091506000856002811115610f7357610f736136df565b896002811115610f8557610f856136df565b0361100857814210610fff5760405162461bcd60e51b815260206004820152602e60248201527f46756e64696e67206d757374206265206d6164652077697468696e207468652060448201527f61707065616c20706572696f642e0000000000000000000000000000000000006064820152608401610abc565b506004546110b0565b600254610400906110198585613b62565b6110239190613b16565b61102d9190613b2d565b6110379084613b4f565b42106110ab5760405162461bcd60e51b815260206004820152603960248201527f46756e64696e67206d757374206265206d6164652077697468696e207468652060448201527f66697273742068616c662061707065616c20706572696f642e000000000000006064820152608401610abc565b506005545b86547f00000000000000000000000000000000000000000000000000000000000000006001600160a01b03169063f23f16e6908c90600890600160a81b900460ff166040811061110257611102613b75565b016040518363ffffffff1660e01b8152600401611120929190613c48565b602060405180830381865afa15801561113d573d6000803e3d6000fd5b505050506040513d601f19601f820116820180604052508101906111619190613c69565b94506104006111708287613b16565b61117a9190613b2d565b6111849086613b4f565b6001888101549195508a94506000935061119f925090613b62565b905060008660010182815481106111b8576111b8613b75565b90600052602060002090600602019050806001018360028111156111de576111de6136df565b600381106111ee576111ee613b75565b602081049091015460ff601f9092166101000a900416156112775760405162461bcd60e51b815260206004820152602160248201527f41707065616c206665652068617320616c7265616479206265656e207061696460448201527f2e000000000000000000000000000000000000000000000000000000000000006064820152608401610abc565b60008082600201856002811115611290576112906136df565b600381106112a0576112a0613b75565b015490508581106112b457600091506112d8565b346112bf8288613b62565b116112d3576112ce8187613b62565b6112d5565b345b91505b50336001600160a01b0316838c7f2b4ef80a862edc5616a4e61c11f4a368f33323faca91fa7635d48b85c183e66a8d85604051611316929190613ca6565b60405180910390a43360009081526020839052604090208190856002811115611341576113416136df565b6003811061135157611351613b75565b0160008282546113619190613b4f565b92505081905550808260020185600281111561137f5761137f6136df565b6003811061138f5761138f613b75565b01600082825461139f9190613b4f565b9250508190555084826002018560028111156113bd576113bd6136df565b600381106113cd576113cd613b75565b01541061149b57816002018460028111156113ea576113ea6136df565b600381106113fa576113fa613b75565b015482600501600082825461140f9190613b4f565b909155506001905082810185600281111561142c5761142c6136df565b6003811061143c5761143c613b75565b602091828204019190066101000a81548160ff02191690831515021790555089600281111561146d5761146d6136df565b60405184908d907fb5681f036910f38d8c2fa06f2cbedc227ecf03d7c4a358ee9096197b15ff8fd090600090a45b6001820154610100900460ff1680156114be5750600182015462010000900460ff165b156115925760018089018054909101815560009081526005830180548892906114e8908490613b62565b909155505087547f00000000000000000000000000000000000000000000000000000000000000006001600160a01b0316906349912f889088908e90600890600160a81b900460ff166040811061154157611541613b75565b016040518463ffffffff1660e01b815260040161155f929190613c48565b6000604051808303818588803b15801561157857600080fd5b505af115801561158c573d6000803e3d6000fd5b50505050505b600061159e8234613b62565b11156115ca57336108fc6115b28334613b62565b6040518115909202916000818181858888f150505050505b816001018460028111156115e0576115e06136df565b600381106115f0576115f0613b75565b602081049091015460ff601f9092166101000a900416985050505050505050505b92915050565b600081815260496020526040808220805490917f00000000000000000000000000000000000000000000000000000000000000006001600160a01b03169163f23f16e6918691600891600160a81b90910460ff1690811061167a5761167a613b75565b016040518363ffffffff1660e01b8152600401611698929190613c48565b602060405180830381865afa1580156116b5573d6000803e3d6000fd5b505050506040513d601f19601f820116820180604052508101906116d99190613c69565b9392505050565b60075461010090046001600160a01b031633146116fc57600080fd5b6101008111156117745760405162461bcd60e51b815260206004820152603660248201527f5468652074617820726174652063616e206f6e6c7920626520696e637265617360448201527f65642062792061206d6178696d756d206f6620323525000000000000000000006064820152608401610abc565b600681905560405181907f5100ab374784a62034356f9af3b71ea723c1e89beb5627c6c1dacea1117250b890600090a250565b336001600160a01b037f000000000000000000000000000000000000000000000000000000000000000016146117dc57600080fd5b60008281526049602052604081206001808201805492939290916117ff91613b62565b8154811061180f5761180f613b75565b60009182526020822060016006929092020190810154909250610100900460ff161561183d57506001611853565b6001820154610100900460ff1615611853575060025b600080826002811115611868576118686136df565b036118845784600281111561187f5761187f6136df565b611886565b815b8454909150819085907fffffffffffffffffffffff00ffffffffffffffffffffffffffffffffffffffff16600160a01b8360028111156118c8576118c86136df565b02179055508354600160b81b900468ffffffffffffffffff1660008181526048602052604090206002836002811115611903576119036136df565b036119bb5780547fff00000000000000ffffffffffffffffffffffffffffffffffffffffffffffff8116825560405168ffffffffffffffffff84168152600160c01b909104602090811b6affffffffffffff0000000016917f8271992f9b3a3f30dc2a464982dc4a136e7357403462443a171a0fb0c6ccc265910160405180910390a16000898152604960205260408082205490516001600160a01b039091169183156108fc02918491818181858888f15050505050505b805463ffffffff60a01b1916815585547fffffffffffffffffff00ffffffffffffffffffffffffffffffffffffffffffff16600160b01b178655604051889033907f394027a5fa6e098a1191094d1719d6929b9abc535fcc0c8f448d6a4e7562227690611a2b908b815260200190565b60405180910390a35050505050505050565b68ffffffffffffffffff81166000908152604860205260408082208054909183917f00000000000000000000000000000000000000000000000000000000000000006001600160a01b03169163f7434ea991600891600160f81b90910460ff16908110611aac57611aac613b75565b016040518263ffffffff1660e01b8152600401611ac99190613cc1565b602060405180830381865afa158015611ae6573d6000803e3d6000fd5b505050506040513d601f19601f82011682018060405250810190611b0a9190613c69565b600654835491925060009161040091611b3991600160c01b900460201b6affffffffffffff0000000016613b16565b611b439190613b2d565b9050611b4f8183613b4f565b95945050505050565b68ffffffffffffffffff8116600090815260486020526040902080546001600160a01b03163314611bf15760405162461bcd60e51b815260206004820152602e60248201527f4f6e6c7920617574686f722063616e20696e63726561736520626f756e74792060448201527f6f6620616e2061727469636c652e0000000000000000000000000000000000006064820152608401610abc565b80543460201c908290601890611c18908490600160c01b900466ffffffffffffff16613cd4565b82546101009290920a66ffffffffffffff8181021990931691909216919091021790555080546040805168ffffffffffffffffff85168152600160c01b909204602090811b6affffffffffffff0000000016908301527fdf5fc410d3381cc7f0a7fe3af72f4e3cf53ef5787f20554af69035a950e1b2e391015b60405180910390a15050565b600754611caf9060ff166001613cf3565b60ff16600003611d015760405162461bcd60e51b815260206004820181905260248201527f4e6f207370616365206c65667420666f722061206e65772063617465676f72796044820152606401610abc565b60075460405160ff909116907f61606860eb6c87306811e2695215385101daab53bd6ab4e9f9049aead9363c7d90611d3a9085906136cc565b60405180910390a2600754819060089060ff1660408110611d5d57611d5d613b75565b0190611d699082613d58565b506007805460ff16906000611d7d83613e17565b91906101000a81548160ff021916908360ff160217905550505050565b60088160408110611daa57600080fd5b018054909150611db990613b8b565b80601f0160208091040260200160405190810160405280929190818152602001828054611de590613b8b565b8015611e325780601f10611e0757610100808354040283529160200191611e32565b820191906000526020600020905b815481529060010190602001808311611e1557829003601f168201915b505050505081565b6000806000807f00000000000000000000000000000000000000000000000000000000000000006001600160a01b031663afe15cfb876040518263ffffffff1660e01b8152600401611e8e91815260200190565b6040805180830381865afa158015611eaa573d6000803e3d6000fd5b505050506040513d601f19601f82011682018060405250810190611ece9190613c82565b9150915060006104006002548484611ee69190613b62565b611ef09190613b16565b611efa9190613b2d565b611f049084613b4f565b90506000866002811115611f1a57611f1a6136df565b611f2389612052565b6002811115611f3457611f346136df565b6002811115611f4557611f456136df565b14905080611f54578382611f57565b83835b95509550505050505b9250929050565b60005b818110156120105760005b838383818110611f8757611f87613b75565b9050602002810190611f999190613e36565b9050811015612007576000848484818110611fb657611fb6613b75565b9050602002810190611fc89190613e36565b83818110611fd857611fd8613b75565b905060200201351115611fff57611ffd868684846002811115610940576109406136df565b505b600101611f75565b50600101611f6a565b5050505050565b6000838152604960205260408120600181015490915b8181101561204a5761204186868387612d2e565b5060010161202d565b505050505050565b604051631c3db16d60e01b8152600481018290526000907f00000000000000000000000000000000000000000000000000000000000000006001600160a01b031690631c3db16d90602401602060405180830381865afa1580156120ba573d6000803e3d6000fd5b505050506040513d601f19601f820116820180604052508101906116119190613c69565b6120e6613498565b6120ee613498565b600084815260496020526040812060010180548291908690811061211457612114613b75565b906000526020600020906006020190508060010181600201826005015482600380602002604051908101604052809291908260038015612189576020028201916000905b825461010083900a900460ff1615158152602060019283018181049485019490930390920291018084116121585790505b505060408051606081019182905294975086935060039250905082845b8154815260200190600101908083116121a65750505050509150935093509350509250925092565b60075461010090046001600160a01b031633146121ea57600080fd5b6007805474ffffffffffffffffffffffffffffffffffffffff0019166101006001600160a01b038416908102919091179091556040517f0c2515f25186df02132ad46f01e062c3b8982c8de57fa2b1b0a280d8e810f39b90600090a250565b60075461010090046001600160a01b0316331461226557600080fd5b600581905560405181907f505f3bf1e426c82f14f7c9cfb2d31ef5b7bb76428e16bd90dabec113e3d4a2bc90600090a250565b60075461010090046001600160a01b031633146122b457600080fd5b600381905560405181907f207e19e347becb468ef02d25790188e4d5da0fe37176d3bbb7940168ec5d613690600090a250565b6000828152604960205260408120600180820154839161230691613b62565b9050600082600101828154811061231f5761231f613b75565b906000526020600020906006020190506000856002811115612343576123436136df565b61234c88612052565b600281111561235d5761235d6136df565b600281111561236e5761236e6136df565b14905060008161238057600554612384565b6004545b905060008360020188600281111561239e5761239e6136df565b600381106123ae576123ae613b75565b015486549091506000907f00000000000000000000000000000000000000000000000000000000000000006001600160a01b03169063f23f16e6908c90600890600160a81b900460ff166040811061240857612408613b75565b016040518363ffffffff1660e01b8152600401612426929190613c48565b602060405180830381865afa158015612443573d6000803e3d6000fd5b505050506040513d601f19601f820116820180604052508101906124679190613c69565b905060006104006124788584613b16565b6124829190613b2d565b61248c9083613b4f565b90506124988382613b62565b9b9a5050505050505050505050565b336001600160a01b0316837f00000000000000000000000000000000000000000000000000000000000000006001600160a01b03167fdccf2f8b2cc26eafcd61905cba744cff4b81d14740725f6376390dc6298a6a3c858560405161250d929190613ea9565b60405180910390a4505050565b68ffffffffffffffffff8116600090815260486020526040902080546001600160a01b031633146125995760405162461bcd60e51b8152602060048201526024808201527f4f6e6c7920617574686f722063616e20776974686472617720616e206172746960448201526331b6329760e11b6064820152608401610abc565b8054600160a01b900463ffffffff1660000361261d5760405162461bcd60e51b815260206004820152602660248201527f596f75206e65656420746f20696e697469617465207769746864726177616c2060448201527f66697273742e00000000000000000000000000000000000000000000000000006064820152608401610abc565b805442600160a01b90910463ffffffff1611156126a25760405162461bcd60e51b815260206004820152603f60248201527f596f75206e65656420746f207761697420666f722074696d656c6f636b206f7260448201527f207761697420756e74696c20746865206368616c6c656e676520656e64732e006064820152608401610abc565b80547fff0000000000000000000000ffffffffffffffffffffffffffffffffffffffff81168255604051600160c01b90910460201b6affffffffffffff00000000169033906108fc8315029083906000818181858888f1935050505015801561270f573d6000803e3d6000fd5b5060405168ffffffffffffffffff841681527f70b41d8cca762ceec66d93f536dbb31f5cabbf1901f862508b9438de54fce4eb9060200160405180910390a1505050565b60075461010090046001600160a01b0316331461276f57600080fd5b600481905560405181907f8df75282265171690a1298cf028f5e3c7d8d42313394a4f25d4aeea6c1ea62cf90600090a250565b6000828152604960205260408120805460609190600160b01b900460ff166127ce576000925050611f60565b60018101548154600160a01b900460ff168167ffffffffffffffff8111156127f8576127f8613565565b60405190808252806020026020018201604052801561282b57816020015b60608152602001906001900390816128165790505b50935060005b828110156129765761284560026001613b4f565b67ffffffffffffffff81111561285d5761285d613565565b604051908082528060200260200182016040528015612886578160200160208202803683370190505b5085828151811061289957612899613b75565b602002602001018190525060008460010182815481106128bb576128bb613b75565b9060005260206000209060060201905060005b6002811161296c5760006128f5838b8460028111156128ef576128ef6136df565b8861327a565b9050801561295957612914838b8460028111156128ef576128ef6136df565b61291e908a613b4f565b98508088858151811061293357612933613b75565b6020026020010151838151811061294c5761294c613b75565b6020026020010181815250505b508061296481613ebd565b9150506128ce565b5050600101612831565b505050509250929050565b60075461010090046001600160a01b0316331461299d57600080fd5b6000805474ffffffffffffffffffffffffffffffffffffffff0019166101006001600160a01b03841690810291909117825560405190917f8a3509a4057c89a5993a4a3140c2ebf7e829d325d8998eaa6c48adcff98b2cef91a250565b600080836002811115612a0f57612a0f6136df565b836002811115612a2157612a216136df565b1490506103e8600082612a3657600554612a3a565b6004545b9050612a4861040082613b4f565b82610400600554600454612a5c9190613b4f565b612a669190613b4f565b612a709190613b16565b612a7a9190613b2d565b9695505050505050565b60018054600091829055815460405191926101009091046001600160a01b0316916108fc84150291849190818181858888f150506040518493507fb315332b30dc40d1e51def214ce42d93a73bd0c17b08db04b34f10736bb2f06f925060009150a250565b60075461010090046001600160a01b03163314612b0557600080fd5b6000805460ff19811660ff90911615179055565b68ffffffffffffffffff8116600090815260486020526040902080546001600160a01b03163314612b985760405162461bcd60e51b8152602060048201526024808201527f4f6e6c7920617574686f722063616e20776974686472617720616e206172746960448201526331b6329760e11b6064820152608401610abc565b8054600160a01b900463ffffffff1615612c1a5760405162461bcd60e51b815260206004820152603560248201527f5769746864726177616c20616c726561647920696e69746961746564206f722060448201527f74686572652069732061206368616c6c656e67652e00000000000000000000006064820152608401610abc565b600354612c279042613b4f565b815463ffffffff91909116600160a01b0263ffffffff60a01b1990911617815560405168ffffffffffffffffff831681527f416c1ad2b96c356f3bbd35431f86cce449ddbb4f8c3755ea9d2776b04c2e9c8f90602001611c92565b6000828152604960205260408120600181015490915b818110156120105760005b60028111612cd657612cc3868684846002811115610940576109406136df565b5080612cce81613ebd565b915050612ca3565b50600101612c98565b60075461010090046001600160a01b03163314612cfb57600080fd5b600281905560405181907fbf39faa024d2f97599a0095e84098ee2171b6681738416c0030f442ba956d52b90600090a250565b60008481526049602052604081208054600160b01b900460ff16612d945760405162461bcd60e51b815260206004820152601760248201527f5468657265206973206e6f2072756c696e67207965742e0000000000000000006044820152606401610abc565b6000816001018581548110612dab57612dab613b75565b90600052602060002090600602019050612dd88187868560000160149054906101000a900460ff1661327a565b92508215612e88576001600160a01b0386166000908152602082905260408120856002811115612e0a57612e0a6136df565b60038110612e1a57612e1a613b75565b01556040516001600160a01b0387169084156108fc029085906000818181858888f1935050505050856001600160a01b031685887fff2b7c936d6023fea901b3455cefc23b124c1ca5997dc5b48c461fd20984289d8787604051612e7f929190613ca6565b60405180910390a45b5050949350505050565b6000805b6048600084612ea481613ed6565b955068ffffffffffffffffff1668ffffffffffffffffff16815260200190815260200160002090508060000160189054906101000a900466ffffffffffffff1666ffffffffffffff16600003612e9657612eff600184613efc565b68ffffffffffffffffff169392505050565b68ffffffffffffffffff8216600090815260486020526040902080546001600160a01b03163314612faa5760405162461bcd60e51b815260206004820152602360248201527f4f6e6c7920617574686f722063616e207472616e73666572206f776e6572736860448201527f69702e00000000000000000000000000000000000000000000000000000000006064820152608401610abc565b80547fffffffffffffffffffffffff0000000000000000000000000000000000000000166001600160a01b03831690811782556040517fdfc39691aec87dc6aa51ff70c0e592f260c54d2ed6c64e8c4c2306da0eec872b90600090a2505050565b60075460ff908116908316106130635760405162461bcd60e51b815260206004820152601c60248201527f546869732063617465676f727920646f6573206e6f74206578697374000000006044820152606401610abc565b60005b604860008361307481613ed6565b945068ffffffffffffffffff1668ffffffffffffffffff16815260200190815260200160002090508060000160189054906101000a900466ffffffffffffff1666ffffffffffffff166000036130665780547fff00000000000000ffffffff000000000000000000000000000000000000000016337fff00000000000000ffffffffffffffffffffffffffffffffffffffffffffffff1617600160c01b3460201c66ffffffffffffff9081168202929092177effffffffffffffffffffffffffffffffffffffffffffffffffffffffffffff16600160f81b60ff8716021780845504166131c95760405162461bcd60e51b815260206004820152603960248201527f596f752063616e277420696e697469616c697a6520616e2061727469636c652060448201527f776974686f75742070757474696e67206120626f756e74792e000000000000006064820152608401610abc565b60006131d6600184613efc565b68ffffffffffffffffff1690507f4f9a2b734331c583faf3f19d1feb5f08b742e016a56fb61379950beaf3e22341868686846040516132189493929190613f1d565b60405180910390a1815460408051838152600160c01b909204602090811b6affffffffffffff0000000016908301527fdf5fc410d3381cc7f0a7fe3af72f4e3cf53ef5787f20554af69035a950e1b2e3910160405180910390a1505050505050565b60008260018601816002811115613293576132936136df565b600381106132a3576132a3613b75565b602081049091015460ff601f9092166101000a900416613300576001600160a01b03851660009081526020879052604090208160028111156132e7576132e76136df565b600381106132f7576132f7613b75565b0154915061348f565b826002811115613312576133126136df565b846002811115613324576133246136df565b036133e357600086600201826002811115613341576133416136df565b6003811061335157613351613b75565b01541161335f5760006133dc565b85600201816002811115613375576133756136df565b6003811061338557613385613b75565b015460058701546001600160a01b03871660009081526020899052604090208360028111156133b6576133b66136df565b600381106133c6576133c6613b75565b01546133d29190613b16565b6133dc9190613b2d565b915061348f565b856001018360028111156133f9576133f96136df565b6003811061340957613409613b75565b602081049091015460ff601f9092166101000a90041661348f57600486015460038701546134379190613b4f565b60058701546001600160a01b0387166000908152602089905260409020836002811115613466576134666136df565b6003811061347657613476613b75565b01546134829190613b16565b61348c9190613b2d565b91505b50949350505050565b60405180606001604052806003906020820280368337509192915050565b803568ffffffffffffffffff811681146134cf57600080fd5b919050565b6000602082840312156134e657600080fd5b6116d9826134b6565b8035600381106134cf57600080fd5b6000806040838503121561351157600080fd5b82359150613521602084016134ef565b90509250929050565b60006020828403121561353c57600080fd5b5035919050565b6000806040838503121561355657600080fd5b50508035926020909101359150565b634e487b7160e01b600052604160045260246000fd5b60008067ffffffffffffffff84111561359657613596613565565b50604051601f19601f85018116603f0116810181811067ffffffffffffffff821117156135c5576135c5613565565b6040528381529050808284018510156135dd57600080fd5b83836020830137600060208583010152509392505050565b6000806040838503121561360857600080fd5b823567ffffffffffffffff81111561361f57600080fd5b8301601f8101851361363057600080fd5b61363f8582356020840161357b565b925050602083013567ffffffffffffffff81111561365c57600080fd5b8301601f8101851361366d57600080fd5b61367c8582356020840161357b565b9150509250929050565b6000815180845260005b818110156136ac57602081850181015186830182015201613690565b506000602082860101526020601f19601f83011685010191505092915050565b6020815260006116d96020830184613686565b634e487b7160e01b600052602160045260246000fd5b6003811061371357634e487b7160e01b600052602160045260246000fd5b9052565b6001600160a01b038616815260a0810161373460208301876136f5565b60ff949094166040820152911515606083015268ffffffffffffffffff1660809091015292915050565b80356001600160a01b03811681146134cf57600080fd5b6000806000806060858703121561378b57600080fd5b8435935061379b6020860161375e565b9250604085013567ffffffffffffffff8111156137b757600080fd5b8501601f810187136137c857600080fd5b803567ffffffffffffffff8111156137df57600080fd5b8760208260051b84010111156137f457600080fd5b949793965060200194505050565b60008060006060848603121561381757600080fd5b833592506138276020850161375e565b9150613835604085016134ef565b90509250925092565b60e08101818560005b60038110156138685781511515835260209283019290910190600101613847565b505050606082018460005b6003811015613892578151835260209283019290910190600101613873565b5050508260c0830152949350505050565b6000602082840312156138b557600080fd5b6116d98261375e565b60008083601f8401126138d057600080fd5b50813567ffffffffffffffff8111156138e857600080fd5b602083019150836020828501011115611f6057600080fd5b60008060006040848603121561391557600080fd5b83359250602084013567ffffffffffffffff81111561393357600080fd5b61393f868287016138be565b9497909650939450505050565b6000806040838503121561395f57600080fd5b823591506135216020840161375e565b6000604082018483526040602084015280845180835260608501915060608160051b86010192506020860160005b828110156139f857868503605f190184528151805180875260209182019187019060005b818110156139df5783518352602093840193909201916001016139c1565b509096505050602093840193919091019060010161399d565b5092979650505050505050565b60008060408385031215613a1857600080fd5b613a21836134ef565b9150613521602084016134ef565b60008060008060808587031215613a4557600080fd5b84359350613a556020860161375e565b925060408501359150613a6a606086016134ef565b905092959194509250565b60008060408385031215613a8857600080fd5b613a91836134b6565b91506135216020840161375e565b60008060008060608587031215613ab557600080fd5b843567ffffffffffffffff811115613acc57600080fd5b613ad8878288016138be565b909550935050602085013560ff81168114613af257600080fd5b9150613a6a604086016134b6565b634e487b7160e01b600052601160045260246000fd5b808202811582820484141761161157611611613b00565b600082613b4a57634e487b7160e01b600052601260045260246000fd5b500490565b8082018082111561161157611611613b00565b8181038181111561161157611611613b00565b634e487b7160e01b600052603260045260246000fd5b600181811c90821680613b9f57607f821691505b602082108103613bbf57634e487b7160e01b600052602260045260246000fd5b50919050565b60008154613bd281613b8b565b808552600182168015613bec5760018114613c0857613c3f565b60ff1983166020870152602082151560051b8701019350613c3f565b84600052602060002060005b83811015613c365781546020828a010152600182019150602081019050613c14565b87016020019450505b50505092915050565b828152604060208201526000613c616040830184613bc5565b949350505050565b600060208284031215613c7b57600080fd5b5051919050565b60008060408385031215613c9557600080fd5b505080516020909101519092909150565b60408101613cb482856136f5565b8260208301529392505050565b6020815260006116d96020830184613bc5565b66ffffffffffffff818116838216019081111561161157611611613b00565b60ff818116838216019081111561161157611611613b00565b601f821115613d5357806000526020600020601f840160051c81016020851015613d335750805b601f840160051c820191505b818110156120105760008155600101613d3f565b505050565b815167ffffffffffffffff811115613d7257613d72613565565b613d8681613d808454613b8b565b84613d0c565b6020601f821160018114613dba5760008315613da25750848201515b600019600385901b1c1916600184901b178455612010565b600084815260208120601f198516915b82811015613dea5787850151825560209485019460019092019101613dca565b5084821015613e085786840151600019600387901b60f8161c191681555b50505050600190811b01905550565b600060ff821660ff8103613e2d57613e2d613b00565b60010192915050565b6000808335601e19843603018112613e4d57600080fd5b83018035915067ffffffffffffffff821115613e6857600080fd5b6020019150600581901b3603821315611f6057600080fd5b81835281816020850137506000828201602090810191909152601f909101601f19169091010190565b602081526000613c61602083018486613e80565b600060018201613ecf57613ecf613b00565b5060010190565b600068ffffffffffffffffff821668ffffffffffffffffff8103613e2d57613e2d613b00565b68ffffffffffffffffff828116828216039081111561161157611611613b00565b606081526000613f31606083018688613e80565b60ff94909416602083015250604001529291505056fea264697066735822122033ebebbc41f48fc1789af0980443b9fc46e3f37029fbccd21e86aef900428e3664736f6c634300081a0033",
  "linkReferences": {},
  "deployedLinkReferences": {}
}